:100000000C94BB040C94AC130C9485130C94E30473
:100010000C94E3040C94E3040C94E3040C94E304C4
:100020000C94E3040C94E3040C94E3040C94E304B4
:100030000C94E3040C94E3040C94E3040C94E304A4
:100040000C943B130C94E3040C94F9130C94D31309
:100050000C94E3040C94E3040C94E3040C94E30484
:100060000C942B140C94E304084AD73B3BCE016E4E
:1000700084BCBFFDC12F3D6C74319ABD56833DDAFF
:100080003D00C77F11BED9E4BB4C3E916BAAAABE0E
:10009000000000803F00FB00003E000B0036000126
:1000A00000020003000000650054FFEF0000FA802A
:1000B000000B12820001000200000000000000009E
:1000C00000000000000000280000FFFF4581FFFF46
:1000D000FA7200000000000003E8000000010001C7
:1000E0007FFFFFFE8001001B0000000000000000F9
:1000F000000000000000004000004000000002CBB3
:1001000047A2200000002000000000000000400086
:1001100000006000000041FF000000000B2A00000A
:10012000165500002182FD872650FD800000001F2B
:100130000000000580000000000000010000000237
:10014000000000030000400000000000046F0002F7
:10015000653200005EC040000000000000000000AA
:10016000000000000000FB8C6F5DFD5D08D9007C85
:10017000733B006C12CC3200139D3200D0D632009B
:100180000800400001F4FFE6807902000000000052
:10019000D0D600002710FB00000040000000000047
:1001A000000000000000000000010000000000004E
:1001B0000100010000000000FA36FFBC308E00058F
:1001C000FBF0FFD95BC8FFD09ABE000010A9FFF476
:1001D0001EB200CEBBF700000001000000040002C8
:1001E00000020200000CFFC280000001800000CF6E
:1001F000800040000000000000000000000000003F
:1002000006000000001400000000000000000000D4
:1002100000000000000000000000000000000000DE
:100220000000000000000923A135000000000000CC
:1002300000000000000000000000033F68B67935B0
:1002400028BCC67ED16C8000FFFF4000000000008B
:10025000B26A000000000000000000000000000082
:100260003FF000000030000000000000000000002F
:10027000000000000000000000000000000000007E
:100280000000000040000000254D002F706D0000B0
:1002900005AE000C02D00000000000650054FFEF26
:1002A0000000000000000000010000440001000503
:1002B0008BC1000001000000000000650000005438
:1002C0000000FFEF00000000000000000000000040
:1002D000000000000000000000000000000000001E
:1002E000000000000000000000000000000000000E
:1002F00000000000000000000001000000020000FB
:1003000000000000000000000000000000000000ED
:1003100000000000000000000000000000000000DD
:10032000000000000000001B0000000000000000B2
:1003300000000000000000000000000000000000BD
:1003400000000000000000000000000000000000AD
:10035000000000000000001B000000000000000082
:10036000000000000000000000000000000000008D
:10037000000000000000000000000000000000007D
:10038000000000000000000000000000000000006D
:10039000000000000000D8DCBAA2F1DEB2B8B4A8B8
:1003A0008191F74A907F916AF3F9DBA8F9B0BAA07E
:1003B00080F2CE81F3C2F1C1F2C3F3CCA2B280F1DC
:1003C000C6D880BAA7DFDFDFF2A7C3CBC5B6F087F8
:1003D000A2942448703C95406834589B78A2F183DD
:1003E000922D557DD8B1B4B8A1D09180F270F37040
:1003F000F27C80A8F101B09887D943D886C988BA21
:10040000A1F20EB89780F1A9DFDFDFAADFDFDFF20C
:10041000AA4CCD6CA90CC92C97979797F1A989265E
:100420004666B0B4BA80ACDEF2CAF1B28C02A9B6AC
:100430009800890E161EB8A9B4992C547CB08AA8CD
:1004400096365676F1B9AFB4B083C0B8A89711B15B
:100450008F98B9AFF0240844106418F1A329557D92
:10046000AF83B593AFF0002850F1A3869F61A6DA61
:10047000DEDFD9FAA38696DB31A6D9F8DFBAA68FDC
:10048000C2C5C7B28CC1B8A2DFDFDFA3DFDFDFD810
:10049000D8F1B8A8B286B4980D355DB8AA98B087DF
:1004A0002D353DB2B6BAAF8C96198F9FA70E161E8A
:1004B000B49AB8AA872C547CB9A3DEDFDFA3B1803D
:1004C000F2C4CDC9F1B8A9B499830D355D89B9A33A
:1004D0002D557DB593A30E161EA92C547CB8B4B02F
:1004E000F19783A81184A50998A383F0DA2408441E
:1004F000106418D8F1A529557DA58595021A2E3AC4
:10050000565A4048F9F3A3D9F8F0988324084410C8
:1005100064189782A8F111F098A224084410641876
:10052000DAF3DED883A59401D9A302F1A2C3C5C72B
:10053000D8F18492A24DDA2AD84869D92AD86855C8
:10054000DA32D85071D932D8705DDA3AD85879D9C0
:100550003AD87893A34DDA2AD84869D92AD8685569
:10056000DA32D85071D932D8705DDA3AD85879D9A0
:100570003AD878A88A9AF02850789EF38818F19F84
:100580001D98A8D908D8C89F129EF315A8DA121092
:10059000D8F1AFC8978734B5B994A421F3D922D83C
:1005A000F22DF3D92AD8F235F3D932D881A460607C
:1005B00061D961D86C6869D969D8747071D971D8FA
:1005C000B1A384193D5DA3831A3E5E931030811060
:1005D00011B8B0AF8F94F2DA3ED8B49AA88729DA6E
:1005E000F8D8879A35DAF8D8879A3DDAF8D8B1B9C9
:1005F000A49885022E56A581000C14A397B08AF109
:100600002DD928D84DD948D86DD968D8B1840DDAFC
:100610000ED8A32983DA2C0ED8A3844983DA2C4C74
:100620000ED8B8B0A88A9AF520AADADFD8A840AACE
:10063000D0DADED8A860AADAD0DFD8F19786A83160
:100640009B069907AB9728889BF00C201440B8B004
:10065000B4A88C9CF0042851791D301438B282ABB8
:10066000D0982C505078789BF11AB0F08A9CA82929
:1006700051798B2951798A2470598B2058718A4479
:1006800069388B3940688A6448318B304960A58865
:10069000200971584468113964493019F1AC002CB3
:1006A000547CF08CA804285078F1889726A8599893
:1006B000AC8C02264666F0899CA829517924705991
:1006C000446938644831A98809205970AB11384011
:1006D00069A8193148608CA83C415C207C00F187F6
:1006E000981986A86E767EA999882D557D9EB9A306
:1006F0008A228A6E8A568A5E9FB183062646660ED5
:100700002E4E6E9DB8AD002C547CF2B18CB499B9CC
:10071000A32D557D8191AC38AD3AB58391AC2DD9DF
:1007200028D84DD948D86DD968D88C9DAE29D90420
:10073000AED851D904AED879D904D881F39DAD0093
:100740008DAE1981ADD901D8F2AEDA26D88E9129B5
:1007500083A7D9ADADADADF32AD8D8F1B0AC8991AE
:100760003E5E76F3AC2E2EF1B18C5A9CAC2C282830
:10077000289CAC3018A8988128343C9724A72834AA
:100780003C9C24F2B089AC912C4C6C8A9B2DD9D81E
:10079000D851D9D8D879D9D8D8F19E88A331DAD808
:1007A000D8912DD928D84DD948D86DD968D8B183DA
:1007B00093353D8025DAD8D88569DAD8D8B49381C5
:1007C000A328343CF3AB8BF8A391B609B4D9ABDEC4
:1007D000FAB0879CB9A3DDF1202830389AF128308F
:1007E000389DF1A3A3A3A3F2A3B49080F2A3A3A383
:1007F000A3A3A3A3A3A3A3B2A3A3A3A3A3A3B087C9
:10080000B599F128303898F1A3A3A3A397A3A3A384
:10081000A3F39BA330DCB9A7F1262626FED8FF2937
:1008200000444D5020496E697469616C697A617445
:10083000696F6E206661696C65642028636F64650A
:100840002000444D50207265616479212057616910
:1008500074696E6720666F722066697273742069AE
:100860006E746572727570742E2E2E00456E616204
:100870006C696E6720696E7465727275707420643D
:100880006574656374696F6E202841726475696E62
:100890006F2065787465726E616C20696E74657224
:1008A000727570742030292E2E2E00456E61626C98
:1008B000696E6720444D502E2E2E004D5055363017
:1008C000353020636F6E6E656374696F6E2066618C
:1008D000696C6564004D50553630353020636F6E5D
:1008E0006E656374696F6E20737563636573736699
:1008F000756C00496E697469616C697A696E67200C
:10090000444D502E2E2E00FF0400000015000B0D4C
:1009100000052006092727021A1F05203709272767
:10092000021A1F00000000240027002A0000000017
:1009300000250028002B000404040404040404021D
:10094000020202020203030303030301020408106C
:100950002040800102040810200102040810200039
:10096000000008000201000003040700000000006E
:1009700000000000011611241FBECFEFD8E0DEBF3B
:10098000CDBF11E0A0E0B1E0E8EAFCE402C00590D0
:100990000D92AE3EB107D9F724E0AEEEB1E001C052
:1009A0001D92A938B207E1F714E0CBEBD4E004C004
:1009B0002197FE010E94DE21CA3BD107C9F70E94A0
:1009C000BE160C9452260C940000CF92DF92EF9248
:1009D000FF926B017C01E0911F03F091200382E004
:1009E0008083C11481EED806E104F104A1F060E037
:1009F00079E08DE390E0A70196010E94AD2121509E
:100A00003109410951095695479537952795211583
:100A100080E13807A8F0E0911F03F09120031082D5
:100A200060E874E88EE190E0A70196010E94AD2194
:100A30002150310941095109569547953795279518
:100A4000E0911B03F0911C033083E0911D03F091B2
:100A50001E03208310922703E0912303F0912403C7
:100A600086E08083E0912103F09122038081806100
:100A70008083E0912103F09122038081886080834C
:100A8000E0912103F0912203808180688083E091CE
:100A90002103F091220380818F7D8083FF90EF906E
:100AA000DF90CF90089591E09093C2028093C102AD
:100AB0001092C0021092BF0208958091040120E4B8
:100AC000829FC001112480937C0080917A00806411
:100AD00080937A0080917A0086FDFCCF8091780027
:100AE0009091790008958091BD029091BE02891B7A
:100AF000990B089590E0FC01E15AF64F2491FC0116
:100B0000E55BF64F3491FC01E95CF64FE491EE238E
:100B1000C9F0222339F0233001F1A8F4213019F172
:100B2000223029F1F0E0EE0FFF1FE35DF64FA591B3
:100B3000B4918FB7F894EC91611126C030953E23A3
:100B40003C938FBF08952730A9F02830C9F0243096
:100B500049F7809180008F7D03C0809180008F775E
:100B600080938000DFCF84B58F7784BDDBCF84B5E1
:100B70008F7DFBCF8091B0008F778093B000D2CF74
:100B80008091B0008F7DF9CF3E2BDACFCF93DF93EA
:100B900090E0FC01E55BF64F2491895C964FFC01E7
:100BA00084918823D1F090E0880F991FFC01ED5DBE
:100BB000F64FA591B491FC01E35DF64FC591D49138
:100BC00061110EC09FB7F8948C91E22FE0958E23AF
:100BD0008C932881E223E8839FBFDF91CF91089512
:100BE0008FB7F894EC91E22BEC938FBFF6CF3FB721
:100BF000F8948091B9029091BA02A091BB02B09191
:100C0000BC0226B5A89B05C02F3F19F00196A11D77
:100C1000B11D3FBFBA2FA92F982F8827BC01CD0146
:100C2000620F711D811D911D42E0660F771F881FA5
:100C3000991F4A95D1F708958F929F92AF92BF92D4
:100C4000CF92DF92EF92FF924B015C010E94F70579
:100C50006B017C010E94F7056C197D098E099F09C3
:100C6000683E734081059105A8F321E0821A91083E
:100C7000A108B10888EEC80E83E0D81EE11CF11C63
:100C800081149104A104B10429F7FF90EF90DF9043
:100C9000CF90BF90AF909F908F9008952FB7F8940A
:100CA0006091B5027091B6028091B7029091B8023E
:100CB0002FBF089581E08093B102089508950895AB
:100CC0000895AF92BF92CF92DF92EF92FF920F936F
:100CD0001F93CF93DF936C017B018B01040F151FD2
:100CE000EB015E01AE18BF08C017D10759F069913A
:100CF000D601ED91FC910190F081E02DC60109959E
:100D0000892B79F7C501DF91CF911F910F91FF904A
:100D1000EF90DF90CF90BF90AF900895FC01538D7E
:100D2000448D252F30E0842F90E0821B930B5417C5
:100D300010F0CF96089501970895FC01918D828D52
:100D4000981761F0A28DAE0FBF2FB11D5D968C91EB
:100D5000928D9F5F9F73928F90E008958FEF9FEF2A
:100D60000895FC01918D828D981731F0828DE80FE6
:100D7000F11D858D90E008958FEF9FEF0895FC01A0
:100D8000918D228D892F90E0805C9F4F821B91096D
:100D90008F73992708958FE093E00E94BF0621E0AA
:100DA000892B09F420E0822F089580E090E0892BC0
:100DB00029F00E94CB0681110C9400000895FC01DB
:100DC000A48DA80FB92FB11DA35ABF4F2C91848DAC
:100DD00090E001968F739927848FA689B7892C9309
:100DE000A089B1898C91837080648C93938D848D5C
:100DF000981306C00288F389E02D80818F7D80835F
:100E00000895EF92FF920F931F93CF93DF93EC011E
:100E100081E0888F9B8D8C8D98131AC0E889F989A1
:100E2000808185FF15C09FB7F894EE89FF896083A4
:100E3000E889F98980818370806480839FBF81E025
:100E400090E0DF91CF911F910F91FF90EF90089567
:100E5000F62E0B8D10E00F5F1F4F0F731127E02E42
:100E60008C8D8E110CC00FB607FCFACFE889F9897A
:100E7000808185FFF5CFCE010E94DF06F1CFEB8D9B
:100E8000EC0FFD2FF11DE35AFF4FF0829FB7F8944E
:100E90000B8FEA89FB8980818062CFCF0F931F93EC
:100EA000CF93DF938C01D0E0C0E0F801EC0FFD1F81
:100EB0006491662341F08FE093E00E940107892B43
:100EC00011F02196F2CFCE01DF91CF911F910F91BA
:100ED0000895CF93DF93EC01888D8823B9F0AA8918
:100EE000BB89E889F9898C9185FD03C0808186FDE5
:100EF0000DC00FB607FCF7CF8C9185FFF2CF808134
:100F000085FFEDCFCE010E94DF06E9CFDF91CF91C3
:100F1000089520912F02260F3327331F21323105E8
:100F2000ECF420910903FC0190E080E0243069F0AA
:100F300082E00895A0912F022191AC01415F5D4FA5
:100F4000A40FB52FB11D2C930196861798F38091AD
:100F50002F02680F60932F0280E0089581E00895CA
:100F60001092090381E08093E8021092E30261E0AD
:100F700082E10E947A0561E083E10E947A05E9EB53
:100F8000F0E080818E7F808380818D7F808388E404
:100F90008093B80085E48093BC000895CF93DF93DD
:100FA00091E090930E028823B9F0C091B800D091DF
:100FB000BA008091BC008A7B8093BC0060E082E133
:100FC0000E947A0560E083E10E947A050E94B007E2
:100FD000D093BA00C093B800DF91CF910895CF921B
:100FE000DF92EF92FF920F931F93CF93DF93D82F4F
:100FF000C62F613208F098C00E94F7056B017C0192
:101000008091090381116BC081E080930903809373
:10101000E8029FEF9093E7021092E6029C0F9093F4
:10102000E5028093E4028091E402DD0FD82BD09397
:10103000E4028091E302813009F078C01092E3026B
:101040000E94F7056B017C018091E4028093BB0054
:1010500080910B0390910C03A0910D03B0910E03AE
:10106000892B8A2B8B2BA1F00E94F70500910B0393
:1010700010910C0320910D0330910E036C197D0922
:101080008E099F09061717072807390708F448C073
:101090008091BC0083FDD8CF85EC8093BC000E947A
:1010A000F7056B017C0180910903813009F440C090
:1010B0008091E6028C1710F4C091E602E3ECF2E0B6
:1010C000A9EEB2E080E08C1355C08C2FDF91CF9158
:1010D0001F910F91FF90EF90DF90CF900895809136
:1010E0000B0390910C03A0910D03B0910E03892B7B
:1010F0008A2B8B2B09F484CF0E94F70500910B03F8
:1011000010910C0320910D0330910E036C197D0991
:101110008E099F09061717072807390708F070CFAF
:1011200080910A030E94CE07C0E0CFCF85EEB5CFF5
:1011300080910B0390910C03A0910D03B0910E03CD
:10114000892B8A2B8B2B09F4AECF0E94F7050091D7
:101150000B0310910C0320910D0330910E036C19B9
:101160007D098E099F09061717072807390708F018
:101170009ACFD6CF91919D938F5FA5CF0895E0919F
:10118000BE028091BD02E81730F4F0E0E751FD4F58
:10119000808190E008958FEF9FEF08959091BE02B7
:1011A0008091BD022FEF3FEF981748F4E92FF0E050
:1011B000E751FD4F208130E09F5F9093BE02C9014F
:1011C0000895CF92DF92EF92FF920F931F93CF93E8
:1011D000DF937C01CB018A012091C202222389F096
:1011E000EB016B01C40ED51ECC15DD0569F06991CC
:1011F000D701ED91FC910190F081E02DC701099597
:10120000F3CF642F0E948907C801DF91CF911F910E
:101210000F91FF90EF90DF90CF900895CF93DF93E1
:101220001F92CDB7DEB769832091C2022223F9F065
:101230002091BF02203258F021E030E0FC013383DE
:10124000228390E080E00F90DF91CF91089580910C
:10125000C002E82FF0E0E251FE4F998190838F5F4A
:101260008093C0028093BF0281E090E0ECCF61E008
:10127000CE0101960E948907F7CFCF92DF92EF92BD
:10128000FF920F931F93CF93DF93D091BF0281E022
:10129000D13208F09CC0C091C1020E94F7056B01D9
:1012A0007C018091090381116CC082E08093090365
:1012B00081E08093E8028FEF8093E7021092E602CC
:1012C000D093E502AEEEB1E0E3ECF2E080E0D813BB
:1012D0008DC01092E4028091E402CC0FC82BC09321
:1012E000E4028091E302813009F084C01092E302AD
:1012F0000E94F7056B017C018091E4028093BB00A2
:1013000080910B0390910C03A0910D03B0910E03FB
:10131000892B8A2B8B2BA1F00E94F70500910B03E0
:1013200010910C0320910D0330910E036C197D096F
:101330008E099F09061717072807390708F442C0C6
:101340008091BC0083FDD8CF85EC8093BC000E94C7
:10135000F7056B017C0180910903823009F44CC0D0
:101360008091E7028F3F09F469C08091E7028032E3
:1013700009F466C08091E702803309F463C084E019
:1013800026C080910B0390910C03A0910D03B091A6
:101390000E03892B8A2B8B2B09F483CF0E94F70530
:1013A00000910B0310910C0320910D0330910E035B
:1013B0006C197D098E099F09061717072807390739
:1013C00008F06FCF80910A030E94CE0785E010924B
:1013D000C0021092BF021092C202DF91CF911F9102
:1013E0000F91FF90EF90DF90CF9008959D91919392
:1013F0008F5F6DCF85EEA9CF80910B0390910C0389
:10140000A0910D03B0910E03892B8A2B8B2B09F42D
:10141000A2CF0E94F70500910B0310910C032091BD
:101420000D0330910E036C197D098E099F09061773
:1014300017072807390708F08ECFC4CF80E0C7CF41
:1014400082E0C5CF83E0C3CF0F931F93CF93DF9389
:10145000082F162FC4EDD3E08B810E94530589819C
:101460009A81DC01ED91FC910190F081E02D602FDB
:10147000099589819A81DC01ED91FC910190F081BF
:10148000E02D612F099589819A810E943D09888309
:10149000DF91CF911F910F910895FF920F931F93AA
:1014A000CF93DF93F82E162F072FC4EDD3E08B8157
:1014B0000E94530589819A81DC01ED91FC91019094
:1014C000F081E02D6F2D099589819A81DC01ED91E4
:1014D000FC910190F081E02D602F099589819A811E
:1014E000DC01ED91FC910190F081E02D612F0995D7
:1014F00089819A810E943D098883DF91CF911F9154
:101500000F91FF900895FF920F931F93CF93DF9356
:10151000C62F042FF22E132F0E9453056C2F8CEA36
:1015200093E00E940E09CF2DD12F0C0F1D2F111DFE
:10153000C017D10731F069918CEA93E00E940E093F
:10154000F7CF8CEA93E00E943D0991E0811190E091
:10155000892FDF91CF911F910F91FF900895CF9325
:10156000DF931F92CDB7DEB749839E012F5F3F4FB8
:1015700041E00E94830A0F90DF91CF91089590E09F
:1015800080E00895FC01808191818627918380838A
:1015900028E040815181CA019695879540FF04C09B
:1015A00031E0832730EA932791838083215089F7A4
:1015B00008958FE093E00C940107CF93DF93EC0143
:1015C0008FE093E00E94BF06892B91F08FE093E0BB
:1015D0000E949D06AA81BB81109791F3ED91FC9129
:1015E00011970190F081E02D682FCD010995E8CF8A
:1015F000DF91CF910895CB01DB01ED91FC9101903A
:10160000F081E02D0994CF93DF93FC018189811152
:1016100016C08481958142855385EC01AB81BC81E4
:1016200089859A858A0F9B1FA817B90741F0EA019F
:101630003991AE012D913217B9F381E0818BDF91A1
:10164000CF910895CF93DF93FC01118AC481D58196
:10165000AB81BC810284F385E02D89859A858E0F4C
:101660009F1FE817F90719F02D912193FACFDF9109
:10167000CF910895AF92BF92CF92DF92EF92FF92F7
:101680000F931F93CF93DF9300D000D0CDB7DEB779
:10169000FC01A085B185109709F499C08B017C01EC
:1016A000FB018081882359F1D70152969C9199239F
:1016B00009F48DC0803809F49CC0803C09F4D5C081
:1016C000803409F07DC0C7010E94220BD701189613
:1016D0008D919C9119971496ED91FC9121853285FD
:1016E00047815085240F351F43815481DC01ED91E2
:1016F000FC910680F781E02D00E060E43CC0F7013A
:10170000A480B580F50185819681FC012081FB01D3
:1017100043815481452B89F5222309F43EC0F5010C
:10172000C180D2808081853008F460C083E090E081
:101730009C012F5F3F4F8E010F5F1F4F70E060E0F5
:10174000A801F601E60FF71FB490F801B1928F01DE
:101750006F5F7F4F68177907A1F7640F751F80EFE0
:10176000FB018083ED91FC9111970680F781E02DBC
:1017700000E060E0CD01099523C04181528121E064
:10178000FC013191CF01FA016191AF01631320E0B7
:101790003111F6CF222309F4C2CFF5012385348518
:1017A00041815281ED91FC9111970680F781E02DE6
:1017B00001E060E0CD01099581E0D70152968C935C
:1017C0000E944E06F70164877587868797870F907A
:1017D0000F900F900F90DF91CF911F910F91FF907D
:1017E000EF90DF90CF90BF90AF90089582E090E0AF
:1017F0009FCFC7010E94030BF80183819481D70119
:101800001496ED91FC9115972185328582179307E7
:10181000E1F451962C91211118C0D80111964D91E7
:101820005C910380F481E02DD7011A966D917C9133
:101830008E0F9F1FE817F90741F0DA012D91AD01D6
:101840002193DB012D93BD01F5CFF70180859185B3
:10185000DC01ED91FC910680F781E02D00E030E0A5
:1018600020E050E040E060E886CFC7010E94030B13
:10187000F701818960EC811161ECD70118968D9197
:101880009C9119971496ED91FC91278130854381A5
:1018900054810184F285E02D4E0F5F1FDC01ED9134
:1018A000FC910680F781E02D00E065CFCF93DF93B8
:1018B000DC0118966D917C916115710569F0EC0160
:1018C0008E819F81DC01ED91FC910680F781E02DF6
:1018D0000995198618861A8ADF91CF91089508957F
:1018E0000895CF93DF93FC0180899189009711F4CB
:1018F0006535F1F5268537858217930758F1838979
:10190000811136C04485558581E090E082179307A8
:1019100040F4DA01A80FB91F7C91753511F00196DA
:10192000F5CF281B390B318B208B9C01D901A81BCB
:10193000B90B44855585C685D7852C173D0750F4CE
:10194000EA01C20FD31F7881A40FB51F7C932F5FCC
:101950003F4FECCFA485B585808991899C012F5F8D
:101960003F4F318B208BA80FB91F6C9381E0828B86
:10197000DF91CF91089504970C94710C1F93CF932E
:10198000DF93EC01162F88859985DC01ED91FC91A0
:101990000480F581E02D0995612FCE010A96DF9133
:1019A000CF911F910C94C20A8F929F92BF92CF92B7
:1019B000DF92EF92FF920F931F93CF93DF93FC017F
:1019C000A085B185109709F45AC06901152FB42E6E
:1019D000F62EEC018FEF9FEF938782874901F6E0A7
:1019E0008F0E911CED91FC9111970280F381E02DF7
:1019F000B401CD01099565E5CE010E94BE0C682DAC
:101A0000CE010E94BE0C692DCE010E94BE0C6F2D2E
:101A1000CE010E94BE0CEB2CF12ECE0CDF1CCE149E
:101A2000DF0471F0002349F0F7016491CE010E94B8
:101A3000BE0CBFEFEB1AFB0AF2CFD7016C91F6CFC9
:101A400088859985DC01ED91FC910480F581E02D7C
:101A50006A850995888599856B85DC01ED91FC91F6
:101A60000480F581E02DDF91CF911F910F91FF90C0
:101A7000EF90DF90CF90BF909F908F900994DF916F
:101A8000CF911F910F91FF90EF90DF90CF90BF907B
:101A90009F908F9008953F924F925F926F927F92A6
:101AA0008F929F92AF92BF92CF92DF92EF92FF926E
:101AB0000F931F93CF93DF9300D000D000D01F92DD
:101AC000CDB7DEB7FC01A085B185109709F4A4C09D
:101AD0008C01ED91FC9111970190F081E02DCD01E9
:101AE0000995D80152968C915297882309F494C095
:101AF00052961C92F12CE12C44244A94542C332409
:101B00003394F8018089918997012A5F3F4F8217AA
:101B1000930708F481C0248535854701FFEF8F1AAC
:101B20009F0AF901EE0DFF1D4081453509F072C095
:101B3000C280280D391DD9012C91DC2CC22E8E19A2
:101B40009F098C159D0508F465C0B6E0CB16D1043D
:101B500008F460C05F824E82570137016C0C7D1C17
:101B6000A614B70478F4D8011C96ED91FC91EA0D07
:101B7000FB1D6081CE0106960E94C20ABFEFAB1A20
:101B8000BB0AEECF8E819F81892B09F043C0F801FB
:101B900084859585FC01EE0DFF1D23812983F4E0EA
:101BA000EF0EF11CE80EF91EFB82EA8226E0C21A53
:101BB000D108DD82CC82D80153963C92539712967D
:101BC0008D919C91009751F0DC01ED91FC91019079
:101BD000F081E02DBE016F5F7F4F099590E080E0BE
:101BE000A301480F591FF801208931894217530773
:101BF00060F424853585420F531FDA014C91280F7C
:101C0000391FF90140830196EBCF918B808B138AAA
:101C1000912C812C740175CF27960FB6F894DEBFF6
:101C20000FBECDBFDF91CF911F910F91FF90EF902D
:101C3000DF90CF90BF90AF909F908F907F906F90EC
:101C40005F904F903F90089521E0FC018085918541
:101C5000892B09F420E0822F0895FC01138212825F
:101C600011861086089508950F931F93CF93DF93E5
:101C7000182FC4EDD3E08B810E94530589819A818E
:101C8000DC01ED91FC910190F081E02D612F09952F
:101C900089819A810E943D09888362E08B810E943C
:101CA000EF071092BE028093BD0289819A81DC0108
:101CB000ED91FC910284F385E02D099500E0182F49
:101CC00089819A81DC01ED91FC910284F385E02DFC
:101CD0000995802B912BDF91CF911F910F91089542
:101CE0001F93CF93DF93182FC4EDD3E08B810E9415
:101CF000530589819A81DC01ED91FC910190F0817D
:101D0000E02D612F099589819A810E943D09888380
:101D100061E08B810E94EF071092BE028093BD02AA
:101D200089819A81DC01ED91FC910284F385E02D9B
:101D30000995DF91CF911F910895CF93DF93EC0127
:101D400081E00E94700E84FB992790F9988383FBB1
:101D5000992790F99A8382FB992790F9998386FBBA
:101D6000992790F99B83881F8827881F8C83DF9190
:101D7000CF910895682F616080E00E94240A0E943C
:101D80004E067093DC036093DB0383E10E94700EC8
:101D90008770B9F48091D8039091D903892BA9F366
:101DA0000E944E062091DB033091DC03621B730B13
:101DB0008091D8039091D9038617970730F780E078
:101DC000089561E08BE00E94240A60E080E00E94B8
:101DD000240A81E00895CF93C82F61E00E94C605D0
:101DE000EC2FF0E0E15AF64FE491E33049F148F48A
:101DF000E130C9F0E230F1F060E08C2FCF910C942B
:101E00007A05E73049F1E83081F1E430A9F78091B3
:101E1000800080628093800085E090E090938B004A
:101E200080938A0005C084B5806884BD85E087BD45
:101E3000CF91089584B5806284BD85E088BDF8CFD8
:101E40008091800080688093800085E090E090938E
:101E5000890080938800ECCF8091B00080688093E7
:101E6000B00085E08093B300E3CF8091B000806242
:101E70008093B00085E08093B400DACF8F929F9278
:101E8000AF92BF92EF92FF920F931F93CF93DF9386
:101E90007C01EB0180E50E94700E8F5F880F90E05F
:101EA0009983888386E40E94700E082F10E00F5FEC
:101EB0001F4F1D830C83A881B0E020E03FE24AE37E
:101EC00050E00E949A216C507E4F8F4F9F4F38EE0A
:101ED000832E33E0932EA12CB12CA50194010E94F6
:101EE000AD21D8010E94A5216C507E4F8F4F9F4F8E
:101EF000A50194010E94AD212A873B874C875D870D
:101F000081E50E94340E8C01112702C0000F111FC1
:101F10009A95E2F70F5F1F4F1F830E83A881B0E0F1
:101F200020E03FE24AE350E00E949A216C507E4F4D
:101F30008F4F9F4FA50194010E94AD21D8010E94AF
:101F40009A216C507E4F8F4F9F4FA50194010E94A4
:101F5000AD212E873F87488B598B80E70E94700EFA
:101F60008F5F880F90E09B838A8381E70E94340E05
:101F70009C01992702C0880F991F3A95E2F70196B4
:101F800099878887F7012381222331F02E813F81B1
:101F9000821B930B99878887AA81B0E020E03FE2FB
:101FA0004AE350E00E949A216C507E4F8F4F9F4F22
:101FB00028EE822E23E0922EA12CB12CA5019401B3
:101FC0000E94AD21A885B9850E949A216C507E4F50
:101FD0008F4F9F4FA50194010E94AD212A8B3B8B0F
:101FE0004C8B5D8BDF91CF911F910F91FF90EF9004
:101FF000BF90AF909F908F9008952F923F924F92F5
:102000005F926F927F928F929F92AF92BF92CF9288
:10201000DF92EF92FF920F931F93CF93DF9300D045
:1020200000D0CDB7DEB7782E662E4C833A83298355
:102030000E944E066B017C01512C1B822C81222EAA
:10204000312C4801B12CA12C8C81581608F049C0C4
:10205000872D0E945305662D8CEA93E00E940E099D
:102060008CEA93E00E943D09872D0E945305B1013F
:10207000651971096132710514F060E270E0613236
:1020800008F060E2872D0E94EF07482E1092BE02F2
:102090008093BD028091BE024816E9F0011511053A
:1020A00079F48CEA93E00E94CE08E981FA819B8161
:1020B000E90FF11D97FDFA9580839F5F9B83EACF1F
:1020C0000E944E066C197D098E099F0968157905D5
:1020D0008A059B0530F38C81813208F080E2580E2E
:1020E000B3CF01151105C1F00E944E066C197D0990
:1020F0008E099F0930E020E060177107820793077F
:1021000058F02B81822F220F990B2C81281719064A
:1021100019F014F08FEF8B838B810F900F900F903D
:102120000F90DF91CF911F910F91FF90EF90DF9073
:10213000CF90BF90AF909F908F907F906F905F9067
:102140004F903F902F9008950F931F93CF93DF935D
:10215000C2EED3E008EE13E023EE33E041E06AE3A1
:1021600088810E94FD0F8981DF91CF911F910F918E
:1021700008950F931F93CF93DF93C2EED3E008EE41
:1021800013E023EE33E042E062E788810E94FD0F16
:1021900089819A81982789279827DF91CF911F916C
:1021A0000F910895BF92CF92DF92EF92FF920F931B
:1021B0001F93CF93DF931F92CDB7DEB7F82EE62E95
:1021C000C42EB22ED02E08EE13E09E012F5F3F4F9B
:1021D00041E00E94FD0F882371F18C2D8B19990B22
:1021E000AC014F5F5F4F81E090E002C0880F991F04
:1021F000BA94E2F70197042E01C0880F0A94EAF717
:102200000D2D01C0000F4A95EAF7482F409599819E
:1022100049238023482B49836E2D8F2D0E94AF0ABE
:102220000F90DF91CF911F910F91FF90EF90DF9072
:10223000CF90BF90089580E0F3CFCF92DF92EF92DE
:10224000FF920F931F93CF93DF931F92CDB7DEB70B
:10225000F82EE62EC42ED22E08EE13E09E012F5F3C
:102260003F4F41E00E94FD0F81E090E001C0880FE8
:10227000CA94EAF74981DD2081F0482B49836E2D0D
:102280008F2D0E94AF0A0F90DF91CF911F910F9178
:10229000FF90EF90DF90CF90089580954823EECF88
:1022A000CF92DF92EF92FF920F931F93CF93DF9322
:1022B0006C017B0184E190E00E942025EC011B82EF
:1022C0001A828FE091E0998388838DE191E09D836C
:1022D0008C83D7011F968D919C919F878E870E943A
:1022E00020259D878C87D6011296ED91FC91F98768
:1022F000E887CE01049693838283198A188A1A8A02
:102300001B8AF701018912890115110539F1D801DC
:1023100018968D919C911997892B21F012960D9109
:102320001C91F2CFF801D782C682D187C0871B8368
:102330000A83108A0E944E06D8011C966D937D93E5
:102340008D939C931F9752961C92DF91CF911F9172
:102350000F91FF90EF90DF90CF90089583E190E090
:102360000E9420258C0183E291E0F8019183808313
:10237000F582E48211861086D70119968D919C9181
:102380000E942025F80193878287C8010E94220BB2
:10239000D70151968D919C915297F8019383828336
:1023A00052961C930E935197BECF2F923F924F920D
:1023B0005F926F927F928F929F92AF92BF92CF92D5
:1023C000DF92EF92FF920F931F93CF93DF933C0125
:1023D0005B01242E522E302E6DE68091E2030E9486
:1023E000AF0A452D6EE68091E2030E94AF0A80E1BC
:1023F00090E00E9420256C01D0E0C0E0002329F08D
:1024000080E190E00E942025EC01F12CE12CC70135
:1024100040964A2C4E18A816B90610F080E1482EB6
:1024200080E091E0851991094816190619F014F019
:10243000452C4194332079F0DE0190E080E0930157
:102440002E0D3F1D841550F4F901E80FF91FE4919A
:10245000ED930196F7CFE301CE0DDF1D9E01442DD4
:102460006FE68091E2030E94830A842C912CC114B0
:10247000D104D1F1422D4F716DE68091E2030E94AB
:10248000AF0A452D6EE68091E2030E94AF0A08EE86
:1024900013E09601442D6FE68091E2030E94FD0F48
:1024A000A401B601CE010E944526892BE9F0C601A0
:1024B0000E94BC25332021F0CE010E94BC25312C86
:1024C000832DDF91CF911F910F91FF90EF90DF90BF
:1024D000CF90BF90AF909F908F907F906F905F90C4
:1024E0004F903F902F900895E80CF91CEA14FB04DC
:1024F000A8F4540C09F42394422D4F716DE6809199
:10250000E2030E94AF0A452D6EE68091E2030E942D
:10251000AF0A7DCFCE010E94BC25D2CFC6010E945A
:10252000BC253110F7CF33243394CACFFC0101907E
:102530000020E9F73197AF01481B590BBC018FE030
:1025400093E00C9461068F929F92AF92BF920F938B
:102550001F93CF93DF93CDB7DEB7A1970FB6F89453
:10256000DEBF0FBECDBF19A2423008F44AE08E0193
:102570000F5D1F4F842E912CB12CA12CA50194012D
:102580000E94AD21E62FB901CA01EA30F4F4E05D02
:10259000D801EE938D01232B242B252B79F790E086
:1025A00080E0109719F0CD010E949612A1960FB607
:1025B000F894DEBF0FBECDBFDF91CF911F910F9179
:1025C000BF90AF909F908F900895E95CE1CFCF933B
:1025D000DF930E949612EC018FE591E00E94961223
:1025E0008C0F9D1FDF91CF910895CF93DF930E94B1
:1025F0004E07EC018FE591E00E9496128C0F9D1F13
:10260000DF91CF91089585ED8093BC0080910B03FD
:1026100090910C03A0910D03B0910E030796A11D9C
:10262000B11D23E0B695A795979587952A95D1F783
:102630002091BC0024FD03C010920903089540912D
:102640000B0350910C0360910D0370910E03452B09
:10265000462B472B69F30097A105B10541F025E30F
:102660002A95F1F700000197A109B109E1CF809106
:102670000A030C94CE071F920F920FB60F921124EB
:102680002F933F938F939F93AF93BF938091B50206
:102690009091B602A091B702B091B8023091B40205
:1026A00023E0230F2D3758F50196A11DB11D20936E
:1026B000B4028093B5029093B602A093B702B09390
:1026C000B8028091B9029091BA02A091BB02B09178
:1026D000BC020196A11DB11D8093B9029093BA026C
:1026E000A093BB02B093BC02BF91AF919F918F9119
:1026F0003F912F910F900FBE0F901F90189526E8D5
:10270000230F0296A11DB11DD2CF1F920F920FB6BB
:102710000F9211242F933F934F935F936F937F9367
:102720008F939F93AF93BF93EF93FF93E091020139
:10273000F09103010995FF91EF91BF91AF919F91A6
:102740008F917F916F915F914F913F912F910F905A
:102750000FBE0F901F9018951F920F920FB60F92F9
:1027600011242F933F934F935F936F937F938F9396
:102770009F93AF93BF93EF93FF93E0910001F0918C
:1027800001010995FF91EF91BF91AF919F918F91B9
:102790007F916F915F914F913F912F910F900FBE5D
:1027A0000F901F9018951F920F920FB60F92112441
:1027B0002F933F934F935F936F937F938F939F9349
:1027C000AF93BF93EF93FF938FE093E00E94DF06F8
:1027D000FF91EF91BF91AF919F918F917F916F91F9
:1027E0005F914F913F912F910F900FBE0F901F90CF
:1027F00018951F920F920FB60F9211242F938F935B
:102800009F93EF93FF93E0911F03F091200380814A
:10281000E0912503F091260382FD1BC090818091F9
:1028200028038F5F8F7320912903821741F0E09175
:102830002803F0E0E15FFC4F958F80932803FF9120
:10284000EF919F918F912F910F900FBE0F901F903E
:1028500018958081F4CF1F920F920FB60F9211241A
:102860002F933F934F935F936F937F938F939F9398
:10287000AF93BF93EF93FF938091B900887F803629
:1028800009F44AC0F0F5883209F4A7C018F5803180
:1028900009F49BC0B8F4882309F4F9C0883009F41E
:1028A00094C0FF91EF91BF91AF919F918F917F91D4
:1028B0006F915F914F913F912F910F900FBE0F90AD
:1028C0001F901895883109F488C0803251F78093A1
:1028D000E70214C0803409F49DC040F48033B9F39A
:1028E0008833F9F68093E70285ECB0C0803509F4AF
:1028F00085C0883509F496C0883499F60E94031380
:10290000D0CF883909F48CC038F5883729F050F4D5
:10291000883611F0803729F683E0809309031092FE
:10292000510257C0883809F47BC0803919F08038CB
:1029300009F0B7CF80915102803208F071C0E09168
:10294000510281E08E0F809351028091BB00F0E034
:10295000EF5CFD4F80833DC0803B39F0E0F4803A6E
:1029600009F479C0883A09F09CCF84E08093090388
:102970001092300210922F02E0915402F091550211
:10298000099580912F0281110FC081E080932F0261
:1029900010920F0209C0803C09F4A6CF883C09F4CC
:1029A000A3CF883B09F07DCFE091300281E08E0F0C
:1029B00080933002F0E0E15FFD4F80818093BB00A7
:1029C0009091300280912F0229C08091E40280937F
:1029D000BB0085EC8093BC0064CF9091E6028091AF
:1029E000E502981758F5E091E60281E08E0F80939A
:1029F000E602F0E0ED53FD4F8081E9CFE091E60281
:102A000081E08E0F8093E6028091BB00F0E0ED53F1
:102A1000FD4F80839091E6028091E5029817C8F2FD
:102A200085E8D8CFE091E60281E08E0F8093E60240
:102A30008091BB00F0E0ED53FD4F80838091E80270
:102A400081115CCF81E08093E30284EA8093BC0033
:102A50001092090326CF85EC8093BC0010920903E5
:102A600080915102803230F4E0915102F0E0EF5C4D
:102A7000FD4F10826091510270E0E0915202F0919E
:102A8000530281E392E00995109251020ACF10920D
:102A9000E70234CF4F925F926F927F928F929F9214
:102AA000AF92BF92CF92DF92EF92FF920F931F935C
:102AB000CF93DF93CDB7DEB74C0127013801DC019E
:102AC0005F965C934E935E975D967C936E935C9756
:102AD00091963C932E939097DA961C92FC0112AA41
:102AE00013AA14AA15AA80E090E0AFE7B3E486AB7E
:102AF00097ABA0AFB1AF84E690E0A0E0B0E086A7CE
:102B000097A7A0ABB1AB118E108E20E030E0A901E9
:102B1000C801B7010E94C32287FD53C020E030E006
:102B2000A901C601B5010E94C32287FD4AC020E069
:102B300030E0A9016B897C898D899E890E94C3221E
:102B400087FD3FC081E090E0D4015B969C938E931B
:102B50005A97DB968C93DB97F40140825182628214
:102B600073821496AD92BD92CD92DC9217978B89A9
:102B70009C89AD89BE8980879187A287B387448667
:102B80005586668677862DEC3CEC4CEC5DE3C60101
:102B9000B5010E944F24F401608B718B828B938B63
:102BA0002DEC3CEC4CEC5DE36B897C898D899E8936
:102BB0000E94C822D40154966D937D938D939C936B
:102BC00057970E944E06F401C6A4D7A4E0A8F1A826
:102BD0006C197D098E099F0962A373A384A395A331
:102BE000DF91CF911F910F91FF90EF90DF90CF90E9
:102BF000BF90AF909F908F907F906F905F904F901D
:102C000008956F927F928F929F92AF92BF92CF92D0
:102C1000DF92EF92FF920F931F93CF93DF93EFE03A
:102C2000F3E01382128288EE93E0A0E0B0E08483A8
:102C30009583A683B7832FE331E03183208325EC8E
:102C400030E03587248724EC30E03787268720EC76
:102C500030E0318B208B21EC30E0338B228B22EC67
:102C600030E0358B248B26EC30E0378B268B118EB1
:102C7000128E138E148ECCEAD3E01B821A828C83C0
:102C80009D83AE83BF8381E591E0998388838DE343
:102C9000682E6F929CE4792E7F922CEC822E8F927C
:102CA0003DEC932E9F924DECA42E4CECB42E4CE4B4
:102CB000C42E4DE3D42EE12CF12C00E01FE32DE3D4
:102CC00034E041E454E065E474E089E494E00E9477
:102CD0004A156F927F928F929F9225EF33E049EFD2
:102CE00053E06DEF73E081E094E00E944A1588E6BE
:102CF0008093E203E4EDF3E0D283C18389E283832E
:102D0000158214821682E4ECF3E080E090E0A0E803
:102D1000BFE380839183A283B383148215821682DA
:102D200017821086118612861386148615861686DB
:102D30001786E8EBF3E0108211821282138214826C
:102D400015821682178210861186128613868DB719
:102D50009EB708960FB6F8949EBF0FBE8DBFDF9149
:102D6000CF911F910F91FF90EF90DF90CF90BF9088
:102D7000AF909F908F907F906F900895CF93DF9347
:102D8000CDB7DEB7E9970FB6F894DEBF0FBECDBF63
:102D9000789484B5826084BD84B5816084BD85B536
:102DA000826085BD85B5816085BD80916E00816042
:102DB00080936E00109281008091810082608093E8
:102DC00081008091810081608093810080918000EA
:102DD0008160809380008091B10084608093B10015
:102DE0008091B00081608093B00080917A0084600F
:102DF00080937A0080917A00826080937A0080913B
:102E00007A00816080937A0080917A008068809354
:102E10007A001092C10086E090E00E9420256C01AB
:102E2000DC0113961C921E92129789E291E0119692
:102E30009C938E938FE093E015969C938E931497BA
:102E400060E875E280E090E00E94E50487E190E0B0
:102E50000E9420257C01E7E0F9E08491E8E0F9E0B8
:102E60008F3F09F050C08491E9E0F9E0E491FE2F32
:102E7000E82FD7011A96FC93EE931997EAE0F9E050
:102E80008491EBE0F9E0E491FE2FE82F1896FC9393
:102E9000EE931797ECE0F9E02491CF01029631967A
:102EA000E491FE2FE22FD7011C96FC93EE931B9723
:102EB00012969C938E931197FC0184918C9387E5D5
:102EC00092E014969C938E93139719962D913C91B2
:102ED0001A9717968D919C911897820F931FFC015A
:102EE000E95AFD4F1E96FC93EE931D97108241E622
:102EF00051E016965C934E931597E7E5F2E081500A
:102F000088F01192FCCF90E0D7011A969C938E9393
:102F10001997E491F0E01896FC93EE931797E9E087
:102F2000F9E0BACF2A5F3F4FF701308B2787148A29
:102F3000138A168A158A128A118A84E090E00E9408
:102F4000202523E331E0DC0111963C932E93139668
:102F5000DC92CE921297B7010E945011F092B30208
:102F6000E092B20260E875E280E090E00E94E50441
:102F700082E691E00E94E71260E08EE00E94C605C2
:102F800083E0809304010E945D05BC01990F880BCA
:102F9000990B0E946B2320E030EC4FE754E40E9431
:102FA000C82224EA30E745ED50E40E944F246093A4
:102FB0005C0270935D0280935E0290935F028FE6E5
:102FC00091E00E949612C0905C02D0905D02E09069
:102FD0005E02F0905F02A7019601C701B6010E9450
:102FE0000625882309F4A9C18DE791E00E94961275
:102FF0008FE591E00E94961261E083E00E94C60591
:1030000061E089E00E94C60561E08AE00E94C60591
:1030100061E08BE00E94C6051092BE021092BD02D4
:103020001092C0021092BF020E94B0078EE596E097
:1030300090935502809354028FE596E0909353024B
:103040008093520288E18093B80089E891E00E9461
:10305000E71201E023E042E06BE68091E2030E9488
:10306000D21000E022E044E06BE18091E2030E9494
:10307000D21022E044E06CE18091E2030E94D21081
:1030800020E046E06BE68091E2030E941D1185EA94
:1030900091E00E94E71287EA91E00E94E71208EEB1
:1030A00013E09E012F5F3F4F41E065E78091E2030F
:1030B0000E94FD0F882339F089818E7790E09595E5
:1030C00087958093E3038091E303843309F0C7C1BC
:1030D00085ED98E00E94F51285EA91E00E94E712E2
:1030E00083EF98E00E94F51221E047E06BE68091C3
:1030F000E2030E941D116EE170E080E090E00E940A
:103100001C0620E046E06BE68091E2030E941D1160
:1031100040E76DE68091E2030E94AF0A46E06EE66A
:103120008091E2030E94AF0A40E06DE68091E203E5
:103130000E94AF0A4FE765E28091E2030E94AF0A66
:1031400020E045E06AE68091E2030E941D1148E616
:1031500065E28091E2030E94AF0A21E041E06AE665
:103160008091E2030E941D1164E170E080E090E034
:103170000E941C0603E023E042E06BE68091E2033C
:103180000E94D21042E168E38091E2030E94AF0AFC
:1031900044E069E18091E2030E94AF0A01E023E08C
:1031A00045E06AE18091E2030E94D21003E023E04F
:1031B00042E06AE18091E2030E94D21022E044E002
:1031C0006BE18091E2030E94D21001E020E040E038
:1031D00069E877E086E990E00E94D511811142C14B
:1031E00081E08093560281E298E00E944E074AE017
:1031F00061E070E080E090E00E94A3128FE198E02F
:103200000E94F51261E08DE00E94C60584EF91E016
:103210009093D9038093D80380EC0E94700E8E3E69
:1032200009F086C089E80E94700E682F616089E805
:103230000E94240A60E088E80E94240A61E080E895
:103240000E94240A61E08FEF0E94240A60E080E07F
:103250000E94240A81E90E94700E8093DD0361E0E0
:1032600080E00E94240A60E08FEF0E94240A60E060
:1032700080E80E94240A80E60E94700E682F626136
:1032800080E60E94240A60E270E084E40E944D0A15
:103290006FEF81E00E94240A61E080E80E94240A26
:1032A00061E08FEF0E94240A60E080E00E94240A1F
:1032B00066E08FEF0E94240A83E80E94700E682F58
:1032C000646083E80E94240A67E08FEF0E94240A6A
:1032D00061E081E80E94240A61E080E80E94240AFB
:1032E0006BE684E90E94240A60E083E80E94240AD5
:1032F0000E944E067093DC036093DB0383E80E9418
:10330000700E811138C18091D8039091D903892B17
:10331000A9F30E944E062091DB033091DC03621B6F
:10332000730B8091D8039091D9038617970730F7D4
:1033300085EC91E00E94E71294C446015701E8949D
:10334000B7F82FEF3FEF4FE75FE7C501B4010E94E9
:10335000062581110DC02FEF3FEF4FE75FE7C50155
:10336000B4010E94C32218161CF481E891E03ECEFD
:103370002FEF3FEF4FE75FE4C701B6010E94422401
:1033800018161CF485E891E031CE2FEF3FEF4FE7A0
:103390005FECC701B6010E94C32287FDF3CF20E096
:1033A00030E0A901C701B6010E94C32287FF09C00E
:1033B0006DE28FE093E00E940107F7FAF094F7F8CE
:1033C000F0942AE037ED43EA5BE3C701B6010E94BF
:1033D000E5214B015C010E943A236B017C010E94B4
:1033E00069239B01AC01C501B4010E94E4214B019A
:1033F0005C014AE0C701B6010E94A3126EE28FE0B1
:1034000093E00E94010720E030E040E251E4C50172
:10341000B4010E944F244B015C010E943A236B01CE
:10342000F12CE12C4AE0C701B6010E94A312C701AA
:10343000B6010E9469239B01AC01C501B4010E9441
:10344000E42120E030E040E251E40E944F240E9459
:103450003A2390E080E04AE00E94A312C9CD8BEBB2
:1034600098E038CE198281E08A8300E026E142E0CC
:1034700062E070E0CE0101960E94D51143E060E762
:103480008091E2030E94AF0A40E061E78091E2038D
:103490000E94AF0A20E040E060E08091E2030E94D9
:1034A0001D1142E06FE18091E2030E94AF0A4CE9F6
:1034B00061E28091E2030E94AF0A40E560E2809100
:1034C000E2030E94AF0A40E062E28091E2030E94C0
:1034D000AF0A21E046E06AE68091E2030E941D11F6
:1034E00021E043E06AE68091E2030E941D1120E0A2
:1034F00047E06AE68091E2030E941D118AE290E0B3
:103500009093F4038093F30321E042E06AE6809114
:10351000E2030E941D110E94A410109256028BEA31
:1035200098E00E94F51221E047E06AE68091E2030C
:103530000E941D118CE698E00E94F5128AE596E043
:1035400090930101809300018091690083608093D2
:103550006900E89A0E94A4108093B00282E498E087
:103560000E94F5128091F3039091F4039093AD02C1
:103570008093AC0247CE61E083E80E94240A82E98E
:103580000E94700E182F1F77D82EDD1CDD24DD1C45
:1035900060E081E80E94240A66E08FEF0E94240A1E
:1035A00083E80E94700E682F6B7F83E80E94240AD4
:1035B00061E08FEF0E94240A61E080E00E94240A0B
:1035C00060E08FEF0E94240A60E080E80E94240AF5
:1035D0008091D7030E9453058091D5039091D60323
:1035E000DC01ED91FC910190F081E02D60EB0995FB
:1035F0008091D5039091D6030E943D098093D40316
:1036000066E08091D7030E94EF071092BE0280937C
:10361000BD027E01B7E1EB0EF11C570107E001503E
:1036200079F08091D5039091D603DC01ED91FC9166
:103630000284F385E02D0995F50181935F01EFCFB9
:1036400061E08FEF0E94240A60E08FE40E94240A68
:103650006CE28EE40E94240A60E08FEF0E94240A4C
:1036600064EB86EB0E94240A0CE0D11001C000E05C
:1036700090E080E0E1E0F0E0482F469546954695E1
:1036800050E09701240F351FD9012C91682F6770E6
:10369000801710F0911332C04E0D5F1DDF0102C084
:1036A000AA0FBB1F6A95E2F7BD0160952623DA01D8
:1036B0002C938F5F803301F78091D7030E945305CD
:1036C0008091D5039091D603DC01ED91FC9101909E
:1036D000F081E02D60EB099517E08091D503909182
:1036E000D6031150A9F0F70161917F01DC01ED9142
:1036F000FC910190F081E02D0995EFCF30E002C000
:10370000359527956A95E2F720FFD3CF9F5FD1CFFC
:103710000E943D098093D40361E08FEF0E94240A48
:1037200060E080E00E94240A60E08FEF0E94240A9B
:1037300060E089E00E94240A60E080E10E94240A9F
:1037400060E081E10E94240A61E084E20E94240A90
:103750006FEF85E20E94240A60E085E70E94240A58
:1037600061E08FEF0E94240A6CE28EE40E94240A3A
:1037700060E088E40E94240A60E280E30E94240A58
:1037800060E08FEF0E94240A69E080E30E94240A2F
:1037900060E084E50E94240A64E081E30E94240A38
:1037A00063E082E30E94240A63E880E40E94240A22
:1037B00065E286E40E94240A60E080E60E94240A12
:1037C00060E087E20E94240A66E080E50E94240A05
:1037D00060E081E50E94240A66E982E50E94240AED
:1037E00068E086E50E94240A60E387E50E94240AD7
:1037F00060E081E60E94240A60E082E60E94240ADA
:1038000060E084E60E94240A60E085E60E94240AC3
:1038100060EA86E60E94240A61E08FEF0E94240A93
:1038200062E382E20E94240A64E187E40E94240A9F
:103830006FEF89E40E94240A60E08AE40E94240A6F
:1038400060E08FEF0E94240A6AE08AE70E94240A5F
:1038500060E08BE70E94240A61E288E70E94240A64
:1038600061E08FEF0E94240A64E383E20E94240A4D
:1038700060E082E40E94240A6FEF84E40E94240A3C
:1038800066E285E40E94240A65E086E40E94240A38
:1038900060E480E40E94240A66E08EE00E94240A2C
:1038A0006AE180E20E94240A60E483E40E94240A20
:1038B00060E08FEF0E94240A63E084E30E94240A00
:1038C00064E485E30E94240A61E08FEF0E94240AE9
:1038D00064E081E30E94240A69E08BE40E94240AE8
:1038E00065E08CE40E94240A64E08DE40E94240ACE
:1038F00060E08FEF0E94240A60E084E40E94240AC2
:1039000060E285E40E94240A68E087E40E94240AB9
:1039100068E288E40E94240A60E087E60E94240AA4
:1039200064E080E70E94240A61E081E70E94240AA3
:103930006EEF82E70E94240A60E086E70E94240A74
:1039400060E087E70E94240A61E08FEF0E94240A6A
:1039500061E08DE00E94240A60E08FEF0E94240A5B
:1039600061E080E80E94240A68EF81E00E94240A56
:1039700061E08FEF0E94240A61E08EE80E94240A31
:1039800061E080E00E94240A60E08FEF0E94240A38
:1039900060E080E80E94240A64E08AE00E94240A31
:1039A00084E80E94700E682F6F7E84E80E94240ACB
:1039B00061E08BE00E94240ACE014D960E949D0E8C
:1039C000BE016F5F7F4FCE014D960E943E0F8D8DE1
:1039D000882309F4FBC08B859C85AD85BE858C57FB
:1039E000924FAF4FBF4F2F8D222309F4F4C04B8568
:1039F0005C856D857E854E545D4F6F4F7F4F440FC4
:103A0000551F661F771F840F951FA61FB71F28A17C
:103A1000222361F04F85588969897A894C565D4F18
:103A20006F4F7F4F840F951FA61FB71F29A1222319
:103A300061F04B895C896D897E894A5D5D4F6F4F6E
:103A40007F4F840F951FA61FB71F8093DE039093AF
:103A5000DF03A093E003B093E10368EE81E00E94EE
:103A6000240AC090DE03D090DF03E090E003F090E2
:103A7000E103B0E2CB16BEE4DB06E104F10408F496
:103A8000D8C0CE014D960E949D0EBE016F5F7F4F44
:103A9000CE014D960E943E0F8D8D882309F4A8C05B
:103AA0008B859C85AD85BE858C57924FAF4FBF4FA0
:103AB0002F8D222309F4A1C04B855C856D857E8501
:103AC0004E545D4F6F4F7F4F440F551F661F771F3A
:103AD000840F951FA61FB71F18A1112361F04F85F2
:103AE000588969897A894C565D4F6F4F7F4F840F93
:103AF000951FA61FB71F29A1222309F49AC02C01E4
:103B00003D01E6E24E0EE2E05E1E611C711CC41433
:103B1000D504E604F70408F48CC0AB81B0E020E0E3
:103B20003FE24AE350E00E949A214B015C01F4EF2E
:103B30008F0EF1E09F1EA11CB11CA7019601241954
:103B4000350946095709A8EEB3E00E949A212B01D6
:103B50003C01C501B40120ED37E040E050E00E9497
:103B6000AD21420E531E641E751EC501B40128EE20
:103B700033E040E050E00E94AD21C301B2010E9459
:103B8000AD21112331F08F819885280F391F411DF8
:103B9000511D70E060E02115310541055105F1F13D
:103BA00089019A01015011092109310970E060E091
:103BB000D901C8018827892B8A2B8B2B59F136957F
:103BC0002795179507956F5F7F4FF2CF86E39BE0B0
:103BD000A0E0B0E008CF2E8D222309F418CF4B854A
:103BE0005C856D857E854C565D4F6F4F7F4F0BCF4B
:103BF00086E39BE0A0E0B0E05BCF2E8D222309F4AA
:103C00006BCF4B855C856D857E854C565D4F6F4FC8
:103C10007F4F5ECF762F6627602B712B81E70E9446
:103C20004D0AC092DE03D092DF03E092E003F092EF
:103C3000E10361E081E00E94240A80E40E94BA0E60
:103C4000882309F475CB62E081E00E94240A80E0B9
:103C50000E94BA0E882309F46BCB68EE81E00E94C3
:103C6000240A80E0282E80E0382EC090B202D09046
:103C7000B302D6015196ED90FC9010E0E114F104EE
:103C800009F444C0F7016085718561157105C1F1C2
:103C900086819781DC01ED91FC910480F581E02D16
:103CA0000995F70180859185DC01ED91FC910280F9
:103CB000F381E02D0995882301F10E944E06F7015A
:103CC00084849584A684B784681979098A099B0934
:103CD00061347F418105910598F00E944E06D7011D
:103CE0001C966D937D938D939C931F9752961C9277
:103CF000529750968C91882319F0C7010E94560C58
:103D0000F7018289180FE280F380B8CFD6011D96A3
:103D1000ED91FC911E9710835396ED90FC90E11469
:103D2000F10461F0D701ED91FC910190F081E02D5B
:103D3000C7010995F701E280F380F1CFD6015596CE
:103D4000ED90FC90E114F10461F0D701ED91FC914C
:103D50000280F381E02DC7010995F701E280F3802D
:103D6000F1CF1092B1020E94A410182F8093B002DC
:103D70000E94B9109093AF028093AE0214FD03C06D
:103D800081159440F9F421E042E06AE68091E20373
:103D90000E941D1183E00E94EB0E89E00E94EB0E51
:103DA0008AE00E94EB0E8BE00E94EB0E211431049E
:103DB00009F45BCF0E94CB06882309F456CF0E94FA
:103DC000000053CF11FFE6CFE090AE02F090AF02BB
:103DD000C090AC02D090AD02EC14FD0438F40E9407
:103DE000B9109093AF028093AE02EECFCC2009F4CD
:103DF00070C208EE13E02CE632E04C2D64E78091AF
:103E0000E2030E94FD0FEC18FD08F092AF02E09271
:103E1000AE0260907002709071027624672476245E
:103E20008090740290907502982489249824A09020
:103E30007802B0907902BA24AB24BA2460916C0263
:103E400070916D02762767277627072E000C880B66
:103E5000990B0E946B2320E030E040E858E30E9479
:103E60004F246B017C01C092C403D092C503E09241
:103E7000C603F092C703B301770C880B990B0E941D
:103E80006B2320E030E040E858E30E944F242B01F0
:103E90003C014092C8035092C9036092CA037092D9
:103EA000CB03B401990C880B990B0E946B2320E083
:103EB00030E040E858E30E944F246AA37BA38CA320
:103EC0009DA36093CC037093CD038093CE03909316
:103ED000CF03B501BB0C880B990B0E946B2320E02C
:103EE00030E040E858E30E944F246EA37FA388A7E8
:103EF00099A76093D0037093D1038093D2039093DA
:103F0000D3039B01AC01C301B2010E944F244B01BA
:103F10005C012AA13BA14CA15DA1C701B6010E9491
:103F20004F249B01AC01C501B4010E94E4219B0117
:103F3000AC010E94E5216AAB7BAB8CAB9DAB60937F
:103F4000B8037093B9038093BA039093BB03A301A2
:103F50009201C701B6010E944F244B015C012EA1C2
:103F60003FA148A559A56AA17BA18CA19DA10E9452
:103F70004F249B01AC01C501B4010E94E5219B01C6
:103F8000AC010E94E5216EA77FA788AB99AB609337
:103F9000BC037093BD038093BE039093BF03A7013E
:103FA0009601C701B6010E944F244B015C01A30199
:103FB0009201C301B2010E944F249B01AC01C501D3
:103FC000B4010E94E4214B015C012AA13BA14CA158
:103FD0005DA1CA01B9010E944F249B01AC01C5013A
:103FE000B4010E94E4214B015C012EA13FA148A530
:103FF00059A5CA01B9010E944F249B01AC01C5011A
:10400000B4010E94E5216AA77BA78CA79DA76093B6
:10401000C0037093C1038093C2039093C303A701AD
:104020009601C701B6010E94E5214B015C01A30185
:104030009201C301B2010E94E5216EAB7FAB88AF54
:1040400099AFA7019601C501B4010E944F246B01ED
:104050007C01A30192016EA97FA988AD99AD0E9450
:104060004F249B01AC01C701B6010E94E52120E06D
:1040700030E040E85FE30E94E4216B017C012AA16B
:104080003BA14CA15DA16EA97FA988AD99AD0E940D
:104090004F242B013C012EA13FA148A559A5C501E4
:1040A000B4010E944F249B01AC01C301B2010E94E4
:1040B000E421A70196010E9464226093600270933C
:1040C000610280936202909363022EA53FA548A9E6
:1040D00059A9CA01B9010E944F246B017C012AA58C
:1040E0003BA54CA55DA5CA01B9010E944F249B01C7
:1040F000AC01C701B6010E94E5210E94C2249B01C8
:10410000AC016AA97BA98CA99DA90E9464226B01BC
:104110007C01C0926402D0926502E0926602F09245
:1041200067022AA53BA54CA55DA56EA57FA588A91C
:1041300099A90E9464224B015C01809268029092CE
:104140006902A0926A02B0926B0220E030E0A901FD
:104150006AA57BA58CA59DA50E94C32287FF1AC0D6
:1041600020E030E0A901C701B6010E944224A70166
:10417000960118160CF0B0C06BED7FE089E490E476
:104180000E94E4216093640270936502809366024A
:10419000909367022FE832EC45EF5CE36091640294
:1041A0007091650280916602909167020E94E521FC
:1041B00020E030E044E353E40E944F242BED3FE045
:1041C00049E450E40E94C8226093FD037093FE030B
:1041D0008093FF03909300042AE037ED43E25CE311
:1041E000C501B4010E94E42120E030E044E353E43F
:1041F0000E944F242BED3FE049E450E40E94C82286
:104200006093450470934604809347049093480458
:104210000E945D05BC01990F880B990B0E946B23CE
:1042200020E030EC4FE754E40E94C82224EA30E753
:1042300045ED50E40E944F2460935C0270935D0250
:1042400080935E0290935F0261E080E80E94240AFE
:1042500061E08FEF0E94240A60E080E00E94240A5F
:104260006091DD0381E90E94240A61E080E00E9400
:10427000240A60E08FEF0E94240A60E080E80E9438
:10428000240A61E080E00E94240A0E944E06709396
:10429000DC036093DB0380E00E94700E80FF21C08E
:1042A0008091D8039091D903892BA9F30E944E06DF
:1042B0002091DB033091DC03621B730B8091D803E8
:1042C0009091D9038617970730F781E08093DA033E
:1042D00061CD10926C0297CD6BED7FE089E490EC9C
:1042E0004FCF0E944E067093DC036093DB0383E1A3
:1042F0000E94700E8770B1F48091D8039091D90319
:10430000892BA9F30E944E062091DB033091DC0338
:10431000621B730B8091D8039091D903861797077E
:1043200030F7D3CF8EE10E94340E61E08BE00E9423
:10433000240A30CD0E94CF21A59F900DB49F900DEF
:10434000A49F800D911D11240895B7FF0C949A210C
:104350000E949A21821B930B0895A1E21A2EAA1B98
:10436000BB1BFD010DC0AA1FBB1FEE1FFF1FA21725
:10437000B307E407F50720F0A21BB30BE40BF50B22
:10438000661F771F881F991F1A9469F760957095AB
:10439000809590959B01AC01BD01CF010895A29F2E
:1043A000B001B39FC001A39F700D811D1124911D09
:1043B000B29F700D811D1124911D0895EE0FFF1FF6
:1043C0000590F491E02D09945058BB27AA270E942C
:1043D000FC210C9408240E94FA2338F00E94012446
:1043E00020F039F49F3F19F426F40C94D0230EF4F6
:1043F000E095E7FB0C94CA23E92F0E94192458F397
:10440000BA17620773078407950720F079F4A6F5B9
:104410000C943B240EF4E0950B2EBA2FA02D0B012B
:10442000B90190010C01CA01A0011124FF27591BF9
:1044300099F0593F50F4503E68F11A16F040A22FFF
:10444000232F342F4427585FF3CF46953795279570
:10445000A795F0405395C9F77EF41F16BA0B620B6F
:10446000730B840BBAF09150A1F0FF0FBB1F661FB6
:10447000771F881FC2F70EC0BA0F621F731F841FF9
:1044800048F4879577956795B795F7959E3F08F01F
:10449000B0CF9395880F08F09927EE0F97958795E1
:1044A00008950E94FA2360F080E891E009F49EEFFD
:1044B0000E94012428F040E851E071F45EEF0CC046
:1044C0000C94D0230C943B24E92FE0780E9419240B
:1044D00040F3092E052AB1F3261737074807590775
:1044E00038F00E2E07F8E02569F0E025E0640AC0F8
:1044F000EF6307F8009407FADB01B9019D01DC01C5
:10450000CA01AD01EF930E94DF220E9408240E949D
:1045100094225F91552339F02BED3FE049E450FDA3
:1045200049EC0C94E5210895DF93DD27B92FBF777F
:1045300040E85FE31616170648075B0718F4D92F03
:104540000E9447249F938F937F936F930E9402252D
:10455000E8E6F0E00E94D3230E9408242F913F91C7
:104560004F915F910E946224DD2351F09058A2EA9E
:104570002AED3FE049EC5FE3D0785D270E94FC2103
:10458000DF910C9408240E94A62308F481E008958A
:104590000E94DC220C9408240E94012458F00E94FE
:1045A000FA2340F029F45F3F29F00C94CA235111FB
:1045B0000C943C240C94D0230E94192468F3992372
:1045C000B1F3552391F3951B550BBB27AA2762170F
:1045D0007307840738F09F5F5F4F220F331F441F1C
:1045E000AA1FA9F335D00E2E3AF0E0E832D0915050
:1045F0005040E695001CCAF72BD0FE2F29D0660F3D
:10460000771F881FBB1F261737074807AB07B0E87F
:1046100009F0BB0B802DBF01FF2793585F4F3AF085
:104620009E3F510578F00C94CA230C943C245F3FC4
:10463000E4F3983ED4F3869577956795B795F7950B
:104640009F5FC9F7880F911D9695879597F90895F3
:10465000E1E0660F771F881FBB1F6217730784078F
:10466000BA0720F0621B730B840BBA0BEE1F88F79E
:10467000E09508950E94212488F09F5798F0B92F63
:104680009927B751B0F0E1F0660F771F881F991F87
:104690001AF0BA95C9F714C0B13091F00E943B24CA
:1046A000B1E008950C943B24672F782F8827B85FDA
:1046B00039F0B93FCCF3869577956795B395D9F7DF
:1046C0003EF490958095709561957F4F8F4F9F4FE9
:1046D0000895E89409C097FB3EF4909580957095F5
:1046E00061957F4F8F4F9F4F9923A9F0F92F96E93E
:1046F000BB279395F695879577956795B795F111B3
:10470000F8CFFAF4BB0F11F460FF1BC06F5F7F4F4F
:104710008F4F9F4F16C0882311F096E911C0772361
:1047200021F09EE8872F762F05C0662371F096E86A
:10473000862F70E060E02AF09A95660F771F881F39
:10474000DAF7880F9695879597F90895990F0008DD
:10475000550FAA0BE0E8FEEF16161706E807F90753
:10476000C0F012161306E407F50798F0621B730BEE
:10477000840B950B39F40A2661F0232B242B252B6F
:1047800021F408950A2609F4A140A6958FEF811D12
:10479000811D089597F99F6780E870E060E00895B3
:1047A0009FEF80EC0895DF93CF931F930F93FF92B9
:1047B000EF92DF927B018C01689406C0DA2EEF0144
:1047C0000E946224FE01E894A591259135914591BE
:1047D0005591A6F3EF010E94FC21FE019701A8016B
:1047E000DA9469F7DF90EF90FF900F911F91CF91CE
:1047F000DF91089500240A94161617061806090674
:10480000089500240A941216130614060506089546
:10481000092E0394000C11F4882352F0BB0F40F4CE
:10482000BF2B11F460FF04C06F5F7F4F8F4F9F4F0E
:10483000089557FD9058440F551F59F05F3F71F090
:104840004795880F97FB991F61F09F3F79F08795F7
:104850000895121613061406551FF2CF4695F1DF80
:1048600008C0161617061806991FF1CF8695710510
:10487000610508940895E894BB2766277727CB0144
:1048800097F908950E94A62308F48FEF08959B01DD
:10489000AC0160E070E080E89FE30C94C8220E94C5
:1048A00062240C9408240E94FA2338F00E94012408
:1048B00020F0952311F00C94CA230C94D0231124DA
:1048C0000C943C240E94192470F3959FC1F3950F1A
:1048D00050E0551F629FF001729FBB27F00DB11D84
:1048E000639FAA27F00DB11DAA1F649F6627B00D14
:1048F000A11D661F829F2227B00DA11D621F739FFD
:10490000B00DA11D621F839FA00D611D221F749F0A
:104910003327A00D611D231F849F600D211D822F51
:10492000762F6A2F11249F5750409AF0F1F0882378
:104930004AF0EE0FFF1FBB1F661F771F881F9150A5
:104940005040A9F79E3F510580F00C94CA230C9467
:104950003C245F3FE4F3983ED4F3869577956795C2
:10496000B795F795E7959F5FC1F7FE2B880F911DCF
:104970009695879597F9089519F416F40C94D02319
:104980000C940B250E942124B8F39923C9F3B6F3A4
:104990009F57550B87FF0E9419250024A0E640EA87
:1049A000900180585695979528F4805C660F771F84
:1049B000881F20F026173707480730F4621B730B57
:1049C000840B202931294A2BA6951794079420257A
:1049D00031254A2758F7660F771F881F20F02617C2
:1049E0003707480730F4620B730B840B200D311D21
:1049F000411DA09581F7B901842F9158880F969594
:104A0000879508959B01AC010C944F240E94A62326
:104A1000880B990B08959F3F31F0915020F48795B2
:104A200077956795B795880F911D9695879597F916
:104A3000089591505040660F771F881FD2F7089550
:104A40000F931F93CF93DF938230910510F482E090
:104A500090E0E0918704F091880430E020E0B0E03D
:104A6000A0E0309799F42115310509F44AC0281BBC
:104A7000390B24303105D8F58A819B816115710588
:104A800089F1FB0193838283FE0111C04081518132
:104A90000281138148175907E0F04817590799F424
:104AA000109761F012960C93129713961C933296FE
:104AB000CF01DF91CF911F910F910895009387044B
:104AC00010938804F4CF2115310551F04217530794
:104AD00038F0A901DB019A01BD01DF01F801C1CF66
:104AE000EF01F9CF9093880480938704CDCFFE0126
:104AF000E20FF31F81939193225031093983288368
:104B0000D7CF2091850430918604232B41F4209146
:104B10000701309108013093860420938504209189
:104B20000501309106012115310541F42DB73EB73D
:104B30004091090150910A01241B350BE091850435
:104B4000F0918604E217F307A0F42E1B3F0B281701
:104B5000390778F0AC014E5F5F4F2417350748F0F6
:104B60004E0F5F1F50938604409385048193919369
:104B70009FCFF0E0E0E09CCFCF93DF930097E9F088
:104B8000FC01329713821282A0918704B0918804AD
:104B9000ED0130E020E01097A1F420813181820FF7
:104BA000931F20918504309186042817390709F056
:104BB00061C0F0938604E0938504DF91CF9108955E
:104BC000EA01CE17DF07E8F54A815B819E014115B6
:104BD0005105B1F7E901FB83EA8349915991C40F6B
:104BE000D51FEC17FD0761F4808191810296840F37
:104BF000951FE90199838883828193819B838A83AE
:104C0000F0E0E0E012968D919C9113970097B9F532
:104C10002D913C911197CD010296820F931F209107
:104C20008504309186042817390739F6309751F5F5
:104C30001092880410928704B0938604A093850490
:104C4000BCCFD383C28340815181840F951FC81785
:104C5000D90761F44E5F5F4F88819981480F591FD2
:104C6000518340838A819B819383828321153105FF
:104C700009F0B0CFF0938804E09387049ECFFD0144
:104C8000DC01C0CF13821282D7CFFB01DC0104C04C
:104C90008D910190801921F441505040C8F7881B34
:084CA000990B0895F894FFCF71
:104CA8006006600601000089048000000000004BD7
:104CB8000D240E2D0ED40C710CFCFF0000BB0C0053
:104CC8000000003A0B00000000DD0A330ED90A008C
:104CD8000000005011700CFB0A6F0C00000000016E
:104CE8000761068E066907BF069D06B1060000002B
:104CF800000E09E108BF0ABE087305CE08BF080DFB
:104D08000A00494E495449414C495A494E470042C4
:104D1800617474657279206C6576656C006E616E7D
:104D280000696E66006F766600496E697469616C29
:104D3800697A696E672049324320646576696365DC
:104D4800732E2E2E00200054657374696E672064DC
:104D5800657669636520636F6E6E656374696F6EEF
:104D6800732E2E2E004661696C656420746F206472
:104D7800657465637420616E6420696E6974696125
:0E4D88006C697A652073656E736F722100008E
:00000001FF
