:100000000C9469040C94EF0F0C94C80F0C94910499
:100010000C9491040C9491040C9491040C9491040C
:100020000C9491040C9491040C9491040C949104FC
:100030000C9491040C9491040C9491040C949104EC
:100040000C947E0F0C9491040C943C100C9416109C
:100050000C9491040C9491040C9491040C949104CC
:100060000C946E100C949104084AD73B3BCE016E61
:1000700084BCBFFDC12F3D6C74319ABD56833DDAFF
:100080003D00C77F11BED9E4BB4C3E916BAAAABE0E
:10009000000000803F00FB00003E000B0036000126
:1000A00000020003000000650054FFEF0000FA802A
:1000B000000B12820001000200000000000000009E
:1000C00000000000000000280000FFFF4581FFFF46
:1000D000FA7200000000000003E8000000010001C7
:1000E0007FFFFFFE8001001B0000000000000000F9
:1000F000000000000000004000004000000002CBB3
:1001000047A2200000002000000000000000400086
:1001100000006000000041FF000000000B2A00000A
:10012000165500002182FD872650FD800000001F2B
:100130000000000580000000000000010000000237
:10014000000000030000400000000000046F0002F7
:10015000653200005EC040000000000000000000AA
:10016000000000000000FB8C6F5DFD5D08D9007C85
:10017000733B006C12CC3200139D3200D0D632009B
:100180000800400001F4FFE6807902000000000052
:10019000D0D600002710FB00000040000000000047
:1001A000000000000000000000010000000000004E
:1001B0000100010000000000FA36FFBC308E00058F
:1001C000FBF0FFD95BC8FFD09ABE000010A9FFF476
:1001D0001EB200CEBBF700000001000000040002C8
:1001E00000020200000CFFC280000001800000CF6E
:1001F000800040000000000000000000000000003F
:1002000006000000001400000000000000000000D4
:1002100000000000000000000000000000000000DE
:100220000000000000000923A135000000000000CC
:1002300000000000000000000000033F68B67935B0
:1002400028BCC67ED16C8000FFFF4000000000008B
:10025000B26A000000000000000000000000000082
:100260003FF000000030000000000000000000002F
:10027000000000000000000000000000000000007E
:100280000000000040000000254D002F706D0000B0
:1002900005AE000C02D00000000000650054FFEF26
:1002A0000000000000000000010000440001000503
:1002B0008BC1000001000000000000650000005438
:1002C0000000FFEF00000000000000000000000040
:1002D000000000000000000000000000000000001E
:1002E000000000000000000000000000000000000E
:1002F00000000000000000000001000000020000FB
:1003000000000000000000000000000000000000ED
:1003100000000000000000000000000000000000DD
:10032000000000000000001B0000000000000000B2
:1003300000000000000000000000000000000000BD
:1003400000000000000000000000000000000000AD
:10035000000000000000001B000000000000000082
:10036000000000000000000000000000000000008D
:10037000000000000000000000000000000000007D
:10038000000000000000000000000000000000006D
:10039000000000000000D8DCBAA2F1DEB2B8B4A8B8
:1003A0008191F74A907F916AF3F9DBA8F9B0BAA07E
:1003B00080F2CE81F3C2F1C1F2C3F3CCA2B280F1DC
:1003C000C6D880BAA7DFDFDFF2A7C3CBC5B6F087F8
:1003D000A2942448703C95406834589B78A2F183DD
:1003E000922D557DD8B1B4B8A1D09180F270F37040
:1003F000F27C80A8F101B09887D943D886C988BA21
:10040000A1F20EB89780F1A9DFDFDFAADFDFDFF20C
:10041000AA4CCD6CA90CC92C97979797F1A989265E
:100420004666B0B4BA80ACDEF2CAF1B28C02A9B6AC
:100430009800890E161EB8A9B4992C547CB08AA8CD
:1004400096365676F1B9AFB4B083C0B8A89711B15B
:100450008F98B9AFF0240844106418F1A329557D92
:10046000AF83B593AFF0002850F1A3869F61A6DA61
:10047000DEDFD9FAA38696DB31A6D9F8DFBAA68FDC
:10048000C2C5C7B28CC1B8A2DFDFDFA3DFDFDFD810
:10049000D8F1B8A8B286B4980D355DB8AA98B087DF
:1004A0002D353DB2B6BAAF8C96198F9FA70E161E8A
:1004B000B49AB8AA872C547CB9A3DEDFDFA3B1803D
:1004C000F2C4CDC9F1B8A9B499830D355D89B9A33A
:1004D0002D557DB593A30E161EA92C547CB8B4B02F
:1004E000F19783A81184A50998A383F0DA2408441E
:1004F000106418D8F1A529557DA58595021A2E3AC4
:10050000565A4048F9F3A3D9F8F0988324084410C8
:1005100064189782A8F111F098A224084410641876
:10052000DAF3DED883A59401D9A302F1A2C3C5C72B
:10053000D8F18492A24DDA2AD84869D92AD86855C8
:10054000DA32D85071D932D8705DDA3AD85879D9C0
:100550003AD87893A34DDA2AD84869D92AD8685569
:10056000DA32D85071D932D8705DDA3AD85879D9A0
:100570003AD878A88A9AF02850789EF38818F19F84
:100580001D98A8D908D8C89F129EF315A8DA121092
:10059000D8F1AFC8978734B5B994A421F3D922D83C
:1005A000F22DF3D92AD8F235F3D932D881A460607C
:1005B00061D961D86C6869D969D8747071D971D8FA
:1005C000B1A384193D5DA3831A3E5E931030811060
:1005D00011B8B0AF8F94F2DA3ED8B49AA88729DA6E
:1005E000F8D8879A35DAF8D8879A3DDAF8D8B1B9C9
:1005F000A49885022E56A581000C14A397B08AF109
:100600002DD928D84DD948D86DD968D8B1840DDAFC
:100610000ED8A32983DA2C0ED8A3844983DA2C4C74
:100620000ED8B8B0A88A9AF520AADADFD8A840AACE
:10063000D0DADED8A860AADAD0DFD8F19786A83160
:100640009B069907AB9728889BF00C201440B8B004
:10065000B4A88C9CF0042851791D301438B282ABB8
:10066000D0982C505078789BF11AB0F08A9CA82929
:1006700051798B2951798A2470598B2058718A4479
:1006800069388B3940688A6448318B304960A58865
:10069000200971584468113964493019F1AC002CB3
:1006A000547CF08CA804285078F1889726A8599893
:1006B000AC8C02264666F0899CA829517924705991
:1006C000446938644831A98809205970AB11384011
:1006D00069A8193148608CA83C415C207C00F187F6
:1006E000981986A86E767EA999882D557D9EB9A306
:1006F0008A228A6E8A568A5E9FB183062646660ED5
:100700002E4E6E9DB8AD002C547CF2B18CB499B9CC
:10071000A32D557D8191AC38AD3AB58391AC2DD9DF
:1007200028D84DD948D86DD968D88C9DAE29D90420
:10073000AED851D904AED879D904D881F39DAD0093
:100740008DAE1981ADD901D8F2AEDA26D88E9129B5
:1007500083A7D9ADADADADF32AD8D8F1B0AC8991AE
:100760003E5E76F3AC2E2EF1B18C5A9CAC2C282830
:10077000289CAC3018A8988128343C9724A72834AA
:100780003C9C24F2B089AC912C4C6C8A9B2DD9D81E
:10079000D851D9D8D879D9D8D8F19E88A331DAD808
:1007A000D8912DD928D84DD948D86DD968D8B183DA
:1007B00093353D8025DAD8D88569DAD8D8B49381C5
:1007C000A328343CF3AB8BF8A391B609B4D9ABDEC4
:1007D000FAB0879CB9A3DDF1202830389AF128308F
:1007E000389DF1A3A3A3A3F2A3B49080F2A3A3A383
:1007F000A3A3A3A3A3A3A3B2A3A3A3A3A3A3B087C9
:10080000B599F128303898F1A3A3A3A397A3A3A384
:10081000A3F39BA330DCB9A7F1262626FED8FFFF61
:10082000000004005A000B0D0081002F0E0C021175
:100830004D6F746F722053706565640042822F1291
:100840000D0A021A428243120D0A021A8100470E53
:1008500005021150697463680042822F240D0A0258
:100860001A81003320050211526F6C6C00428243E2
:10087000240D0A021A8100482004021159617700F0
:1008800000000000240027002A00000000002500CE
:1008900028002B00040404040404040402020202DD
:1008A0000202030303030303010204081020408033
:1008B00001020408102001020408102000000008B2
:1008C0000002010000030407000000000000000017
:1008D0008D1111241FBECFEFD8E0DEBFCDBF11E0D8
:1008E000A0E0B1E0EAE9FDE302C005900D92AC366C
:1008F000B107D9F724E0ACE6B1E001C01D92A03009
:10090000B207E1F714E0C9E6D4E004C02197FE0184
:100910000E94501AC836D107C9F70E943B120C94A6
:10092000CB1E0C940000CF92DF92EF92FF926B01EE
:100930007C01E091A402F091A50282E08083C114C1
:1009400081EED806E104F104A1F060E079E08DE3E6
:1009500090E0A70196010E942E1A21503109410909
:1009600051095695479537952795211580E1380708
:10097000A8F0E091A402F091A502108260E874E86A
:100980008EE190E0A70196010E942E1A21503109B4
:10099000410951095695479537952795E091A00251
:1009A000F091A1023083E091A202F091A302208392
:1009B0001092AC02E091A802F091A90286E0808337
:1009C000E091A602F091A702808180618083E0918E
:1009D000A602F091A702808188608083E091A60240
:1009E000F091A702808180688083E091A602F09157
:1009F000A70280818F7D8083FF90EF90DF90CF9062
:100A000008958091040120E4829FC0011124809305
:100A10007C0080917A00806480937A0080917A00D3
:100A200086FDFCCF809178009091790008958091A7
:100A3000430290914202891B990B089590E0FC01BA
:100A4000E454F74F2491FC01E855F74F3491FC0131
:100A5000EC56F74FE491EE23C9F0222339F023300E
:100A600001F1A8F4213019F1223029F1F0E0EE0F64
:100A7000FF1FE657F74FA591B4918FB7F894EC910B
:100A8000611126C030953E233C938FBF08952730D7
:100A9000A9F02830C9F0243049F7809180008F7D7B
:100AA00003C0809180008F7780938000DFCF84B572
:100AB0008F7784BDDBCF84B58F7DFBCF8091B00075
:100AC0008F778093B000D2CF8091B0008F7DF9CF27
:100AD0003E2BDACFCF93DF9390E0FC01E855F74F40
:100AE00024918C56974FFC0184918823D1F090E09B
:100AF000880F991FFC01E058F74FA591B491FC01B4
:100B0000E657F74FC591D49161110EC09FB7F89485
:100B10008C91E22FE0958E238C932881E223E88349
:100B20009FBFDF91CF9108958FB7F894EC91E22B9E
:100B3000EC938FBFF6CF1F93CF93DF93182FEB016A
:100B400061E00E946A05209739F460E0812FDF910F
:100B5000CF911F910C941E05CF3FD10511F461E098
:100B6000F5CFE12FF0E0E454F74FE491E33031F1B9
:100B700040F4E130B1F0E230E1F0C038D1057CF76B
:100B8000E4CFE73029F1E83059F1E430B1F7809152
:100B90008000806280938000D0938B00C0938A0095
:100BA00004C084B5806884BDC7BDDF91CF911F911B
:100BB000089584B5806284BDC8BDF7CF8091800060
:100BC000806880938000D0938900C0938800EDCF27
:100BD0008091B00080688093B000C093B300E5CFEF
:100BE0008091B00080628093B000C093B400DDCFEC
:100BF0003FB7F89480911E0290911F02A0912002AD
:100C0000B091210226B5A89B05C02F3F19F001968F
:100C1000A11DB11D3FBFBA2FA92F982F8827BC0156
:100C2000CD01620F711D811D911D42E0660F771F7E
:100C3000881F991F4A95D1F708958F929F92AF927E
:100C4000BF92CF92DF92EF92FF924B015C010E9424
:100C5000F8056B017C010E94F8056C197D098E096D
:100C60009F09683E734081059105A8F321E0821A2F
:100C70009108A108B10888EEC80E83E0D81EE11CD7
:100C8000F11C81149104A104B10429F7FF90EF90A5
:100C9000DF90CF90BF90AF909F908F9008952FB727
:100CA000F89460911A0270911B0280911C0290913D
:100CB0001D022FBF089581E08093160208950895C4
:100CC00008950895AF92BF92CF92DF92EF92FF9274
:100CD0000F931F93CF93DF936C017B018B01040F64
:100CE000151FEB015E01AE18BF08C017D10759F000
:100CF0006991D601ED91FC910190F081E02DC60142
:100D00000995892B79F7C501DF91CF911F910F913B
:100D1000FF90EF90DF90CF90BF90AF900895FC01CF
:100D2000538D448D252F30E0842F90E0821B930B50
:100D3000541710F0CF96089501970895FC01918DF6
:100D4000828D981761F0A28DAE0FBF2FB11D5D96F9
:100D50008C91928D9F5F9F73928F90E008958FEF9B
:100D60009FEF0895FC01918D828D981731F0828D4F
:100D7000E80FF11D858D90E008958FEF9FEF0895A6
:100D8000FC01918D228D892F90E0805C9F4F821B0A
:100D900091098F739927089584E992E00E94C00613
:100DA00021E0892B09F420E0822F089580E090E073
:100DB000892B29F00E94CC0681110C940000089523
:100DC000FC01A48DA80FB92FB11DA35ABF4F2C91C0
:100DD000848D90E001968F739927848FA689B789B7
:100DE0002C93A089B1898C91837080648C93938DAE
:100DF000848D981306C00288F389E02D80818F7D51
:100E000080830895EF92FF920F931F93CF93DF9308
:100E1000EC0181E0888F9B8D8C8D98131AC0E88936
:100E2000F989808185FF15C09FB7F894EE89FF8905
:100E30006083E889F98980818370806480839FBFA3
:100E400081E090E0DF91CF911F910F91FF90EF90A3
:100E50000895F62E0B8D10E00F5F1F4F0F731127B3
:100E6000E02E8C8D8E110CC00FB607FCFACFE889EE
:100E7000F989808185FFF5CFCE010E94E006F1CF90
:100E8000EB8DEC0FFD2FF11DE35AFF4FF0829FB762
:100E9000F8940B8FEA89FB8980818062CFCFCF9352
:100EA000DF93EC01888D8823B9F0AA89BB89E88992
:100EB000F9898C9185FD03C0808186FD0DC00FB638
:100EC00007FCF7CF8C9185FFF2CF808185FFEDCFB6
:100ED000CE010E94E006E9CFDF91CF9108952091E5
:100EE0008D01260F3327331F21323105ECF4209179
:100EF0006A02FC0190E080E0243069F082E008950D
:100F0000A0918D012191AC0143595E4FA40FB52FE3
:100F1000B11D2C930196861798F380918D01680F6F
:100F200060938D0180E0089581E0089510926A0237
:100F300081E0809369021092440261E082E10E94A4
:100F40001E0561E083E10E941E05E9EBF0E080816F
:100F50008E7F808380818D7F808388E48093B8003A
:100F600085E48093BC000895CF93DF9391E0909344
:100F70006C018823B9F0C091B800D091BA0080917B
:100F8000BC008A7B8093BC0060E082E10E941E0569
:100F900060E083E10E941E050E949607D093BA008C
:100FA000C093B800DF91CF9108958F929F92AF9236
:100FB000BF92CF92DF92EF92FF920F931F93CF9346
:100FC000DF93D0919302D13208F0D7C0182FC0918F
:100FD00092020E94F8056B017C0180916A028111E6
:100FE0006BC082E080936A02109369028FEF809356
:100FF000680210926702D0936602A2E7B2E0E6E4CC
:10100000F2E080E0D81391C0109245028091450231
:10101000CC0FC82BC093450280914402813009F067
:1010200088C0109244020E94F8056B017C018091F7
:1010300045028093BB0080916C0290916D02A0915B
:101040006E02B0916F02892B8A2B8B2BA1F00E942C
:10105000F80500916C0210916D0220916E023091A2
:101060006F026C197D098E099F090617170728075B
:10107000390708F442C08091BC0083FDD8CF85ECCD
:101080008093BC000E94F8056B017C0180916A028C
:10109000823009F450C0809168028F3F09F46FC01C
:1010A00080916802803209F46CC0809168028033BC
:1010B00009F469C084E026C080916C0290916D02B1
:1010C000A0916E02B0916F02892B8A2B8B2B09F4B1
:1010D00084CF0E94F80580906C0290906D02A090E1
:1010E0006E02B0906F026C197D098E099F098616F9
:1010F0009706A806B90608F070CF80916B020E948F
:10110000B40785E01092710210929302109270025F
:10111000DF91CF911F910F91FF90EF90DF90CF90D3
:10112000BF90AF909F908F9008959D9191938F5F06
:1011300069CF85EEA5CF80916C0290916D02A09150
:101140006E02B0916F02892B8A2B8B2B09F49ECFF4
:101150000E94F80500916C0210916D0220916E02C0
:1011600030916F026C197D098E099F0906171707C8
:101170002807390708F08ACFC0CF81E0C3CF80E0CD
:10118000C1CF82E0BFCF83E0BDCF0895E09142029E
:1011900080914302E81730F4F0E0EE5DFD4F80816E
:1011A00090E008958FEF9FEF089590914202809113
:1011B00043022FEF3FEF981748F4E92FF0E0EE5D80
:1011C000FD4F208130E09F5F90934202C901089556
:1011D000CF92DF92EF92FF920F931F93CF93DF9303
:1011E0007C01CB018A0120917002222389F0EB015E
:1011F0006B01C40ED51ECC15DD0569F06991D701D0
:10120000ED91FC910190F081E02DC7010995F3CF9C
:10121000642F0E946F07C801DF91CF911F910F913A
:10122000FF90EF90DF90CF900895CF93DF931F92C0
:10123000CDB7DEB76983209170022223F9F02091A7
:101240009302203258F021E030E0FC013383228306
:1012500090E080E00F90DF91CF910895809171022E
:10126000E82FF0E0EE58FD4F998190838F5F8093D7
:1012700071028093930281E090E0ECCF61E0CE01B7
:1012800001960E946F07F7CFFF920F931F93CF93A2
:10129000DF93042FF22E132F91E09093700280932E
:1012A0009202109271021092930281E393E00E94E5
:1012B0001509CF2DD12F0C0F1D2F111DC017D107D0
:1012C00031F0699181E393E00E941509F7CF81E045
:1012D0000E94D50791E0811190E0892FDF91CF9195
:1012E0001F910F91FF900895CF93DF931F92CDB779
:1012F000DEB749839E012F5F3F4F41E00E944409C2
:101300000F90DF91CF91089590E080E00895FC0167
:101310008081918186279183808328E0408151815B
:10132000CA019695879540FF04C031E0832730EAD3
:10133000932791838083215089F7089584E992E06F
:101340000E94C006089584E992E00E949E060895D6
:1013500084E992E00C9402078F929F92AF92BF9221
:10136000CF92DF92EF92FF920F931F93CF93DF9371
:10137000EC01AE88BF88CA88DB888FEF9FEF998F1A
:10138000888FD601A60FB71F7D016A157B0540F532
:10139000AD014F5F5F4F9B012F5F3F4F8C918535B4
:1013A000E1F4C501861B970B9F8B8E8B8B010A1B6B
:1013B0001B0B6896C701800F911F8A159B0590F43F
:1013C000F70161914F01CE010E948709F7018081E9
:1013D000F60181936F017401EDCFDA01B901D4CF29
:1013E0001F8A1E8ADF91CF911F910F91FF90EF907E
:1013F000DF90CF90BF90AF909F908F9008950F9304
:101400001F93CF93C62F8A01DC01ED91FC910084DC
:10141000F185E02D09956C2FC801CF911F910F9197
:101420000C9487098F929F92AF92BF92CF92DF92D6
:10143000EF92FF920F931F93CF93DF9300D0CDB71E
:10144000DEB77C01862E942E152F59018FEF9FEF6A
:101450009A838983690186E0C80ED11CD701ED917A
:10146000FC910680F781E02DB601C7010995AE0118
:101470004F5F5F4F65E5C7010E94FF09AE014F5FF7
:101480005F4F6C2DC7010E94FF09AE014F5F5F4F98
:101490006D2DC7010E94FF09AE014F5F5F4F682DA0
:1014A000C7010E94FF09C92CD12EAC0CBD1CAC1485
:1014B000BD0489F0002361F0F6016491AE014F5F35
:1014C0005F4FC7010E94FF09BFEFCB1ADB0AEFCFC6
:1014D000D6016C91F3CFD701ED91FC910084F18599
:1014E000E02D6981C70109956A81D701ED91FC91D1
:1014F0000084F185E02DC70109950F900F90DF91D1
:10150000CF911F910F91FF90EF90DF90CF90BF9000
:10151000AF909F908F900895EF92FF920F931F933B
:10152000CF93DF9300D000D0CDB7DEB77C01DC01D4
:101530005296ED91FC915397818190E09C01265049
:1015400031096381603409F477C020F46623B1F077
:1015500080E067C0603809F47CC0603CC9F75196F0
:101560008C91811161ECF70121853285458156818D
:1015700083859485480F591F00E02BC017964D9125
:101580005C91DA018C91232B41F5882381F1F701DD
:1015900003811481828163E070E0853010F462E0A1
:1015A00070E09B012F5F3F4FDE01119690E080E0DD
:1015B000AD01F801E80FF91FE491ED93019686174C
:1015C0009707B9F7840F951F60EFDC016C9300E07B
:1015D00060E0C7010E94120A1AC0349681E09D9112
:1015E0002191291380E09111FACF882381F2F7012C
:1015F000258536854381548101E060E0C7010E9462
:10160000120AD7011F96ED91FC9181E080830E9420
:101610004F06D7015A966D937D938D939C935D975A
:1016200081E00F900F900F900F90DF91CF911F915D
:101630000F91FF90EF900895F701118A238534856B
:1016400081859285280F391F4581568100E060E42D
:10165000C0CF1B964D915C911C9742175307A9F47C
:1016600051962C915197211110C0AF014C5F5F4FE3
:1016700015960D90BC91A02D01978530910529F00C
:10168000FA012191AF012D93F7CF00E030E020E087
:1016900050E040E060E89DCF0895089581E008950E
:1016A0004F925F926F927F928F929F92AF92BF9272
:1016B000CF92DF92EF92FF920F931F93CF93DF931E
:1016C000CDB7DEB74C0127013801DC015F965C9392
:1016D0004E935E975D967C936E935C9791963C9348
:1016E0002E939097DA961C92FC0112AA13AA14AAC0
:1016F00015AA80E090E0AFE7B3E486AB97ABA0AF6C
:10170000B1AF84E690E0A0E0B0E086A797A7A0ABD9
:10171000B1AB118E108E20E030E0A901C801B701F5
:101720000E94351B87FD53C020E030E0A901C601AF
:10173000B5010E94351B87FD4AC020E030E0A901B9
:101740006B897C898D899E890E94351B87FD3FC0EE
:1017500081E090E0D4015B969C938E935A97DB9640
:101760008C93DB97F40140825182628273821496DB
:10177000AD92BD92CD92DC9217978B899C89AD89F1
:10178000BE8980879187A287B387448655866686FF
:1017900077862DEC3CEC4CEC5DE3C601B5010E9474
:1017A000C81CF401608B718B828B938B2DEC3CEC0D
:1017B0004CEC5DE36B897C898D899E890E943A1B84
:1017C000D40154966D937D938D939C9357970E946B
:1017D0004F06F401C6A4D7A4E0A8F1A86C197D09AE
:1017E0008E099F0962A373A384A395A3DF91CF9170
:1017F0001F910F91FF90EF90DF90CF90BF90AF902F
:101800009F908F907F906F905F904F9008952F9250
:101810003F924F925F926F927F928F929F92AF9280
:10182000BF92CF92DF92EF92FF920F931F93CF93CD
:10183000DF93CDB7DEB72A970FB6F894DEBF0FBEA1
:10184000CDBFE82ED62EF42E3A83298318010E94AC
:101850004F064B015C01CE2CCC0C00E01A8611E047
:101860002F2D30E03C832B83C101B0E0A0E08D83BD
:101870009E83AF83B8870F1508F013C110937002D1
:10188000E092920210927102109293026D2D81E308
:1018900093E00E94150981E00E94D5071093700221
:1018A00010927102109293020E94F8052B013C01E4
:1018B00080916A02811175C08B819C81801B910986
:1018C0008132910514F080E290E08987813210F036
:1018D00090E2998710936A0210936902AFEFA09388
:1018E0006802109267028985815080936602109386
:1018F0004502809145028C298093450280914402E3
:10190000813009F091C0109244020E94F8052B0129
:101910003C01809145028093BB0080916C029091C4
:101920006D02A0916E02B0916F02892B8A2B8B2BD6
:10193000A1F00E94F80520916C0230916D02409157
:101940006E0250916F02641975098609970926176E
:1019500037074807590708F445C08091BC0083FD4C
:10196000D8CFB5ECB093BC000E94F8052B013C0128
:1019700080916A02813009F45BC0809167023985E9
:10198000831718F4409167024987E6E4F2E0A2E287
:10199000B2E080E05985851751F191919D938F5F59
:1019A000F9CF80916C0290916D02A0916E02B0917E
:1019B0006F02892B8A2B8B2B09F47ACF0E94F805B2
:1019C00020916C0230916D0240916E0250916F0235
:1019D00064197509860997092617370748075907B3
:1019E00008F066CF80916B020E94B40719861092AE
:1019F000420289858093430280914202998598171B
:101A000009F448C021143104A9F581E393E00E9450
:101A1000D508E981FA81AA85EA0FF11DA7FDFA959B
:101A20008083AF5FAA87E8CF25EE2093BC009CCFD0
:101A300080916C0290916D02A0916E02B0916F0244
:101A4000892B8A2B8B2B09F493CF0E94F8052091C8
:101A50006C0230916D0240916E0250916F026419D8
:101A6000750986099709261737074807590708F0A7
:101A70007FCFB8CF0E944F06681979098A099B0960
:101A80002D813E814F815885621773078407950722
:101A900008F4BBCF8F2D30E23F1508F480E2080F29
:101AA000EACE21143104D1F00E944F06AB01BC01F3
:101AB000481959096A097B09C101B0E0A0E048173B
:101AC00059076A077B0750F04A85842F440F990B0A
:101AD000F816190619F014F05FEF5A878A852A96CE
:101AE0000FB6F894DEBF0FBECDBFDF91CF911F912F
:101AF0000F91FF90EF90DF90CF90BF90AF909F90AD
:101B00008F907F906F905F904F903F902F900895AF
:101B10000F931F93CF93DF93C9E5D3E008EE13E053
:101B20002AE533E041E06AE388810E94070C89815D
:101B3000DF91CF911F910F9108950F931F93CF9332
:101B4000DF93C9E5D3E008EE13E02AE533E042E095
:101B500062E788810E94070C89819A8198278927EA
:101B60009827DF91CF911F910F910895BF92CF9247
:101B7000DF92EF92FF920F931F93CF93DF931F9209
:101B8000CDB7DEB7F82EE62EC42EB22ED02E08EE3C
:101B900013E09E012F5F3F4F41E00E94070C882316
:101BA00071F18C2D8B19990BAC014F5F5F4F81E068
:101BB00090E002C0880F991FBA94E2F70197042EB3
:101BC00001C0880F0A94EAF70D2D01C0000F4A9555
:101BD000EAF7482F4095998149238023482B498370
:101BE0006E2D8F2D0E9474090F90DF91CF911F9160
:101BF0000F91FF90EF90DF90CF90BF90089580E01D
:101C0000F3CFCF92DF92EF92FF920F931F93CF9378
:101C1000DF931F92CDB7DEB7F82EE62EC42ED22E5C
:101C200008EE13E09E012F5F3F4F41E00E94070C3A
:101C300081E090E001C0880FCA94EAF74981DD2075
:101C400081F0482B49836E2D8F2D0E9474090F90CF
:101C5000DF91CF911F910F91FF90EF90DF90CF9088
:101C6000089580954823EECF2F923F924F925F9236
:101C70006F927F928F929F92AF92BF92CF92DF929C
:101C8000EF92FF920F931F93CF93DF933C015B0181
:101C9000242E522E302E6DE6809159030E94740935
:101CA000452D6EE6809159030E94740980E190E011
:101CB0000E94991D6C01D0E0C0E0002329F080E172
:101CC00090E00E94991DEC01F12CE12CC701409697
:101CD0004A2C4E18A816B90610F080E1482E80E074
:101CE00091E0851991094816190619F014F0452C50
:101CF0004194332079F0DE0190E080E093012E0DD5
:101D00003F1D841550F4F901E80FF91FE491ED939C
:101D10000196F7CFE301CE0DDF1D9E01442D6FE646
:101D2000809159030E944409842C912CC114D10440
:101D3000D1F1422D4F716DE6809159030E947409D3
:101D4000452D6EE6809159030E94740908EE13E058
:101D50009601442D6FE6809159030E94070CA4015F
:101D6000B601CE010E94BE1E892BE9F0C6010E9479
:101D7000351E332021F0CE010E94351E312C832DDB
:101D8000DF91CF911F910F91FF90EF90DF90CF9057
:101D9000BF90AF909F908F907F906F905F904F908B
:101DA0003F902F900895E80CF91CEA14FB04A8F466
:101DB000540C09F42394422D4F716DE68091590320
:101DC0000E947409452D6EE6809159030E947409A2
:101DD0007DCFCE010E94351ED2CFC6010E94351E96
:101DE0003110F7CF33243394CACFFC010190002087
:101DF000E9F73197AF01481B590BBC0184E992E028
:101E00000C9462068F929F92AF92BF920F931F9392
:101E1000CF93DF93CDB7DEB7A1970FB6F894DEBFAF
:101E20000FBECDBF19A2423008F44AE08E010F5D0B
:101E30001F4F842E912CB12CA12CA50194010E943E
:101E40002E1AE62FB901CA01EA30F4F4E05DD80198
:101E5000EE938D01232B242B252B79F790E080E046
:101E6000109719F0CD010E94F50EA1960FB6F894C7
:101E7000DEBF0FBECDBFDF91CF911F910F91BF90FD
:101E8000AF909F908F900895E95CE1CF85ED8093AE
:101E9000BC0080916C0290916D02A0916E02B09195
:101EA0006F020796A11DB11D23E0B695A7959795E2
:101EB00087952A95D1F72091BC0024FD03C010928C
:101EC0006A02089540916C0250916D0260916E0219
:101ED00070916F02452B462B472B69F30097A105A4
:101EE000B10541F025E32A95F1F700000197A1091A
:101EF000B109E1CF80916B020C94B4071F920F924D
:101F00000FB60F9211242F933F938F939F93AF930C
:101F1000BF9380911A0290911B02A0911C02B09174
:101F20001D023091190223E0230F2D3758F5019639
:101F3000A11DB11D2093190280931A0290931B02D8
:101F4000A0931C02B0931D0280911E0290911F026B
:101F5000A0912002B09121020196A11DB11D809394
:101F60001E0290931F02A0932002B0932102BF9102
:101F7000AF919F918F913F912F910F900FBE0F9036
:101F80001F90189526E8230F0296A11DB11DD2CFF0
:101F90001F920F920FB60F9211242F933F934F93DE
:101FA0005F936F937F938F939F93AF93BF93EF93C1
:101FB000FF93E0910201F09103010995FF91EF91E8
:101FC000BF91AF919F918F917F916F915F914F9151
:101FD0003F912F910F900FBE0F901F9018951F9259
:101FE0000F920FB60F9211242F933F934F935F934D
:101FF0006F937F938F939F93AF93BF93EF93FF93D1
:10200000E0910001F09101010995FF91EF91BF91DD
:10201000AF919F918F917F916F915F914F913F9180
:102020002F910F900FBE0F901F9018951F920F9237
:102030000FB60F9211242F933F934F935F936F939B
:102040007F938F939F93AF93BF93EF93FF9384E915
:1020500092E00E94E006FF91EF91BF91AF919F91B6
:102060008F917F916F915F914F913F912F910F9041
:102070000FBE0F901F9018951F920F920FB60F92E0
:1020800011242F938F939F93EF93FF93E091A402DA
:10209000F091A5028081E091AA02F091AB0282FD4D
:1020A0001BC090818091AD028F5F8F732091AE0233
:1020B000821741F0E091AD02F0E0EC56FD4F958FB4
:1020C0008093AD02FF91EF919F918F912F910F908F
:1020D0000FBE0F901F9018958081F4CF1F920F9222
:1020E0000FB60F9211242F933F934F935F936F93EB
:1020F0007F938F939F93AF93BF93EF93FF938091C1
:10210000B900887F803609F44AC0F0F5883209F4B6
:10211000A7C018F5803109F49BC0B8F4882309F4EE
:10212000F9C0883009F494C0FF91EF91BF91AF914D
:102130009F918F917F916F915F914F913F912F91DF
:102140000F900FBE0F901F901895883109F488C02A
:10215000803251F78093680214C0803409F49DC026
:1021600040F48033B9F38833F9F68093680285EC44
:10217000B0C0803509F485C0883509F496C088342C
:1021800099F60E94460FD0CF883909F48CC038F5F3
:10219000883729F050F4883611F0803729F683E02B
:1021A00080936A021092AF0157C0883809F47BC04F
:1021B000803919F0803809F0B7CF8091AF018032B3
:1021C00008F071C0E091AF0181E08E0F8093AF0104
:1021D0008091BB00F0E0E157FE4F80833DC0803B23
:1021E00039F0E0F4803A09F479C0883A09F09CCFDC
:1021F00084E080936A0210928E0110928D01E0912A
:10220000B201F091B301099580918D0181110FC048
:1022100081E080938D0110926D0109C0803C09F42A
:10222000A6CF883C09F4A3CF883B09F07DCFE0918D
:102230008E0181E08E0F80938E01F0E0E359FE4F16
:1022400080818093BB0090918E0180918D0129C087
:10225000809145028093BB0085EC8093BC0064CFE5
:102260009091670280916602981758F5E091670295
:1022700081E08E0F80936702F0E0EA5BFD4F808182
:10228000E9CFE091670281E08E0F80936702809131
:10229000BB00F0E0EA5BFD4F808390916702809184
:1022A00066029817C8F285E8D8CFE091670281E00E
:1022B0008E0F809367028091BB00F0E0EA5BFD4FD8
:1022C00080838091690281115CCF81E08093440218
:1022D00084EA8093BC0010926A0226CF85EC80933A
:1022E000BC0010926A028091AF01803230F4E0911C
:1022F000AF01F0E0E157FE4F10826091AF0170E056
:10230000E091B001F091B1018FE891E00995109250
:10231000AF010ACF1092680234CF8F929F92AF9292
:10232000BF92CF92DF92EF92FF920F931F93CF93C2
:10233000DF93E4E9F2E01382128288EE93E0A0E0FA
:10234000B0E084839583A683B78321E231E03183B3
:10235000208325EC30E03587248724EC30E0378774
:10236000268720EC30E0318B208B21EC30E0338B62
:10237000228B22EC30E0358B248B26EC30E0378B3F
:10238000268B118E128E138E148EE1E3F3E01382EE
:10239000128284839583A683B78383E391E091833C
:1023A00080838DE3882E8F929CE4992E9F92DCECA3
:1023B000DF93CDECCF932DECA22E2CECB22E2CE49F
:1023C000C22E2DE3D22EE12CF12C00E01FE324EBF2
:1023D00033E048EB53E06CEB73E080EC93E00E9459
:1023E000500B8F929F92DF93CF932CE633E040E720
:1023F00053E064E773E088E793E00E94500B88E6BF
:1024000080935903E9E4F3E080E090E0A0E8BFE3C3
:1024100080839183A283B3831482158216821782EC
:1024200010861186128613861486158616861786E0
:10243000EDE3F3E01082118212821382148215827E
:102440001682178210861186128613868DB79EB764
:1024500008960FB6F8949EBF0FBE8DBFDF91CF9147
:102460001F910F91FF90EF90DF90CF90BF90AF90B2
:102470009F908F900895CF93DF93CDB7DEB76A9783
:102480000FB6F894DEBF0FBECDBF789484B58260DE
:1024900084BD84B5816084BD85B5826085BD85B508
:1024A000816085BD80916E00816080936E00109286
:1024B0008100809181008260809381008091810001
:1024C0008160809381008091800081608093800092
:1024D0008091B10084608093B1008091B0008160F0
:1024E0008093B00080917A00846080937A0080911C
:1024F0007A00826080937A0080917A008160809374
:102500007A0080917A00806880937A001092C100EE
:1025100081E290E00E94991D7C018FE091E0D7015B
:1025200011969C938E9384E992E090969C938E935F
:102530005F9760E875E280E090E00E949304EFE12D
:10254000F8E08491E0E2F8E08F3F09F05FC0849109
:10255000E1E2F8E0E491FE2FE82FD7011C96FC930E
:10256000EE931B97E2E2F8E08491E3E2F8E0E49175
:10257000FE2FE82F1A96FC93EE931997E4E2F8E009
:102580002491CF0102963196E491FE2FE22FD701DC
:102590001E96FC93EE931D9714969C938E9313971F
:1025A000FC01849112968C93129786EB91E016961B
:1025B0009C938E9315971B968D919C911C971996C1
:1025C0000D911C911A97080F191FF801EA54FE4F3C
:1025D0006F015096FC93EE931F97108220E531E037
:1025E00018963C932E931797069655969C938E9328
:1025F00054970E94991DD70153969C938E9352979E
:10260000E6EBF1E0015088F01192FCCF90E0D701A9
:102610001C969C938E931B97E491F0E01A96FC9382
:10262000EE931997E1E2F8E0ABCFF701178A168A2B
:102630008FEF9FEF918F808FD6011C9281E0818B6D
:102640000E944F06F701628F738F848F958F0190E0
:10265000F081E02D0190F081E02DC7010995D701AF
:102660005E968C93F0921802E092170260E875E291
:1026700080E090E00E94930481E491E00E94F50ED6
:102680008EE491E00E94F50E60E08EE00E946A0503
:1026900083E0809304010E940105BC01990F880B1F
:1026A000990B0E94E41B20E030EC4FE754E40E94B9
:1026B0003A1B24EA30E745ED50E40E94C81C6093C1
:1026C000BD017093BE018093BF019093C00181E56D
:1026D00091E00E94F50EC090BD01D090BE01E09047
:1026E000BF01F090C001A7019601C701B6010E9489
:1026F0007F1D882309F483C08FE591E00E94F50EC9
:102700008EE491E00E94F50E10927403109275030E
:1027100010927603109277031092BC031092BD03BF
:102720001092BE031092BF0310926C0310926D03BF
:1027300010926E0310926F031092B4031092B503BF
:102740001092B6031092B703C12CD12C30EAE32EBD
:1027500031ECF32EC092F203D092F303E092F40333
:10276000F092F503412C512C40EA642E41E4742E82
:102770004092F6035092F7036092F8037092F903C7
:102780008091FA03882309F4ECC00091DE031091D4
:10279000DF03F80180809180A280B380A3019201C1
:1027A000C501B4010E94BB1C18160CF0BAC0D801B8
:1027B0004D925D926D927C9213978090E60390907B
:1027C000E703A090E803B090E903C090F603D0902F
:1027D000F703E090F803F090F903A7019601C50113
:1027E000B4010E94BB1C18160CF0ABC0C092E603EB
:1027F000D092E703E092E803F092E903B2C0460109
:102800005701E894B7F82FEF3FEF4FE75FE7C501B7
:10281000B4010E947F1D81110DC02FEF3FEF4FE7E4
:102820005FE7C501B4010E94351B18161CF483E64E
:1028300091E064CF2FEF3FEF4FE75FE4C701B601B0
:102840000E94BB1C18161CF487E691E057CF2FEFAF
:102850003FEF4FE75FECC701B6010E94351B87FDD4
:10286000F3CF20E030E0A901C701B6010E94351B7B
:1028700087FF09C06DE284E992E00E940207F7FA3F
:10288000F094F7F8F0942AE037ED43EA5BE3C701F0
:10289000B6010E94571A4B015C010E94B31B6B01E9
:1028A0007C010E94E21B9B01AC01C501B4010E94A6
:1028B000561A4B015C014AE0C701B6010E94020FA3
:1028C0006EE284E992E00E94020720E030E040E2FC
:1028D00051E4C501B4010E94C81C4B015C010E9477
:1028E000B31B6B01F12CE12C4AE0C701B6010E9439
:1028F000020FC701B6010E94E21B9B01AC01C5019A
:10290000B4010E94561A20E030E040E251E40E94F7
:10291000C81C0E94B31B90E080E04AE00E94020FB6
:10292000EFCE20E030E040EA51ECC501B4010E9456
:10293000351B87FF42CFF801C082D182E282F38249
:102940003CCFC090F203D090F303E090F403F090FA
:10295000F503A7019601C501B4010E94351B87FD4F
:1029600045CFC12CD12C90EAE92E91ECF92EC092E2
:10297000AA03D092AB03E092AC03F092AD03412CDA
:10298000512C20EA622E21E4722E4092AE03509226
:10299000AF036092B0037092B1038091B2038823B9
:1029A00009F458C00091960310919703D8018D90B7
:1029B0009D90AD90BC90A3019201C501B4010E940D
:1029C000BB1C181634F5F801408251826282738272
:1029D00080909E0390909F03A090A003B090A103CD
:1029E000C090AE03D090AF03E090B003F090B1037D
:1029F000A7019601C501B4010E94BB1C1816D4F4AE
:102A0000C0929E03D0929F03E092A003F092A10394
:102A100021C020E030E040EA51ECC501B4010E9441
:102A2000351B87FFD5CFD801CD92DD92ED92FC9278
:102A30001397CECFC090AA03D090AB03E090AC0325
:102A4000F090AD03A7019601C501B4010E94351BAA
:102A500087FDD6CF61E083E00E946A0561E089E0EE
:102A60000E946A0561E08AE00E946A0561E08BE0ED
:102A70000E946A0510924202109243021092710263
:102A8000109293020E9496078FE596E09093B3010F
:102A90008093B20180E696E09093B1018093B001FB
:102AA00088E18093B80001E023E042E06BE680918A
:102AB00059030E94B60D00E022E044E06BE18091F2
:102AC00059030E94B60D22E044E06CE18091590365
:102AD0000E94B60D20E046E06BE6809159030E940B
:102AE000010E21E047E06BE6809159030E94010E40
:102AF0006EE170E080E090E00E941D0620E046E07C
:102B00006BE6809159030E94010E40E76DE68091CB
:102B100059030E94740946E06EE6809159030E94B1
:102B2000740940E06DE6809159030E9474094FE7F3
:102B300065E2809159030E94740920E045E06AE64D
:102B4000809159030E94010E48E665E28091590385
:102B50000E94740921E041E06AE6809159030E94D5
:102B6000010E64E170E080E090E00E941D0603E049
:102B700023E042E06BE6809159030E94B60D42E1EA
:102B800068E3809159030E94740944E069E18091EF
:102B900059030E94740901E023E045E06AE1809155
:102BA00059030E94B60D03E023E042E06AE1809100
:102BB00059030E94B60D22E044E06BE18091590375
:102BC0000E94B60D01E020E040E069E877E086E988
:102BD00090E00E94340E882309F47AC0198281E0C3
:102BE0008A8300E026E142E062E070E0CE010196D7
:102BF0000E94340E43E060E7809159030E947409FB
:102C000040E061E7809159030E94740920E040E0B0
:102C100060E0809159030E94010E42E06FE18091D3
:102C200059030E9474094CE961E2809159030E94A2
:102C3000740940E560E2809159030E94740940E004
:102C400062E2809159030E94740921E046E06AE63D
:102C5000809159030E94010E21E043E06AE68091D1
:102C600059030E94010E20E047E06AE68091590373
:102C70000E94010E8AE290E090936B0380936A03B6
:102C800021E042E06AE6809159030E94010E0E9411
:102C9000880D21E047E06AE6809159030E94010E09
:102CA0008BE596E09093010180930001809169008B
:102CB000836080936900E89A0E94880D80931502D2
:102CC00080916A0390916B0390931202809311029A
:102CD00061E08DE00E946A0522242A94322CE09063
:102CE0001702F0901802F701868D882309F4C5C0F9
:102CF0000190F081E02D0280F381E02DC70109955C
:102D00004701F8E18F0E911CD701ED91FC910484ED
:102D1000F585E02DC7010995882309F484C0D70102
:102D2000ED91FC910284F385E02DC7010995F7012F
:102D3000268937892115310511F4853529F7D70101
:102D40005296ED91FC915397A9014F5F5F4F5796B3
:102D50005C934E935697E20FF31F8083682FC40154
:102D60000E948709F7012689378984899589821706
:102D7000930728F461E070E0C7010E94AC09D70115
:102D800056968D919C9157978630910508F4BCCF4B
:102D90005296ED91FC915397A180B28054962D915B
:102DA0003C912A153B0530F3B6E0AB16B10410F3A5
:102DB0008A159B05A1F4F701808D918D892BD1F6A1
:102DC000C7010E948C0A8823A9F2D70157961C924A
:102DD0001E92569759963C922E92589795CFA816C8
:102DE000B90608F091CF2FEF3FEF3A8329836F01A7
:102DF0003F016A0C7B1CC614D70441F0D6016D91CB
:102E00006D01CE0101960E948709F5CF89819A81D3
:102E1000892B09F0AFCFC7010E948C0AB501882326
:102E200009F4A8CFA9CF0E944F06F701028D138D98
:102E3000248D358D601B710B820B930B69387341A8
:102E400081059105D0F0D70157961C921E92569796
:102E500059963C922E9258971F96ED91FC9150975F
:102E60001082E1E05196EC930E944F06D7015A96EA
:102E70006D937D938D939C935D97109216020E94A3
:102E8000880D182F809315020E949D0D90931402B7
:102E90008093130214FD03C08115944011F521E0C5
:102EA00042E06AE6809159030E94010E8091B401CC
:102EB0009091B5010196813D27E092070CF0CBC2BD
:102EC0009093B5018093B40180E090E0892B09F4E0
:102ED00006CF0E94CC06882309F401CF0E9400008F
:102EE000FECE11FFE3CFE0901302F0901402C090E9
:102EF0001102D0901202EC14FD0438F40E949D0DD2
:102F00009093140280931302EECFCC2009F49BC25D
:102F100008EE13E021ED31E04C2D64E78091590378
:102F20000E94070CEC18FD08F0921402E0921302C4
:102F3000A090D501B090D601BA24AB24BA24C09099
:102F4000D901D090DA01DC24CD24DC24E090DD012D
:102F5000F090DE01FE24EF24FE246091D1017091F7
:102F6000D201762767277627072E000C880B990B4E
:102F70000E94E41B20E030E040E858E30E94C81CB7
:102F80002B013C014092490350924A0360924B034B
:102F900070924C03B501BB0C880B990B0E94E41B8B
:102FA00020E030E040E858E30E94C81C4B015C017F
:102FB00080924D0390924E03A0924F03B092500323
:102FC000B601DD0C880B990B0E94E41B20E030E079
:102FD00040E858E30E94C81C6B837C838D839E83EA
:102FE000609351037093520380935303909354035F
:102FF000B701FF0C880B990B0E94E41B20E030E026
:1030000040E858E30E94C81C6F83788789879A87B5
:10301000609355037093560380935703909358031E
:103020009B01AC01C501B4010E94C81C6B017C016D
:103030002B813C814D815E81C301B2010E94C81C7D
:103040009B01AC01C701B6010E94561A9B01AC015D
:103050000E94571A6B8B7C8B8D8B9E8B60933D03EC
:1030600070933E0380933F0390934003A501940126
:10307000C301B2010E94C81C6B017C012F813885FD
:1030800049855A856B817C818D819E810E94C81CF7
:103090009B01AC01C701B6010E94571A9B01AC010C
:1030A0000E94571A6F87788B898B9A8B60934103A4
:1030B000709342038093430390934403A3019201CE
:1030C000C301B2010E94C81C6B017C01A5019401DF
:1030D000C501B4010E94C81C9B01AC01C701B60127
:1030E0000E94561A6B017C012B813C814D815E81CF
:1030F000CA01B9010E94C81C9B01AC01C701B601FD
:103100000E94561A6B017C012F81388549855A85AA
:10311000CA01B9010E94C81C9B01AC01C701B601DC
:103120000E94571A6B877C878D879E876093450323
:10313000709346038093470390934803A301920141
:10314000C301B2010E94571A6B017C01A5019401D1
:10315000C501B4010E94571A6F8B788F898F9A8F9F
:10316000A3019201C701B6010E94C81C2B013C01BA
:10317000A50194016F89788D898D9A8D0E94C81C54
:103180009B01AC01C301B2010E94571A20E030E05C
:1031900040E85FE30E94561A2B013C012B813C81E1
:1031A0004D815E816F89788D898D9A8D0E94C81CB2
:1031B0004B015C012F81388549855A85C701B601CD
:1031C0000E94C81C9B01AC01C501B4010E94561AA3
:1031D000A30192010E94D61A2B013C014092C50125
:1031E0005092C6016092C7017092C8012F8538893C
:1031F00049895A89CA01B9010E94C81C6B017C0126
:103200002B853C854D855E85CA01B9010E94C81C8D
:103210009B01AC01C701B6010E94571A0E943B1DD9
:103220009B01AC016B897C898D899E890E94D61A8D
:103230006B017C01C092C901D092CA01E092CB011E
:10324000F092CC012B853C854D855E856F85788914
:1032500089899A890E94D61A4B015C018092CD011E
:103260009092CE01A092CF01B092D00120E030E048
:10327000A9016B857C858D859E850E94351B87FF06
:103280001AC020E030E0A901C701B6010E94BB1CB2
:10329000A701960118160CF0D9C06BED7FE089E408
:1032A00090E40E94561A6093C9017093CA018093FA
:1032B000CB019093CC012DEC3CEC4CE05FE3C301DF
:1032C000B2010E94571A20E030E044E353E40E9428
:1032D000C81C2BED3FE049E450E40E943A1B2B014F
:1032E0003C014092C1015092C2016092C3017092B0
:1032F000C4012FE832EC45EF5CE36091C9017091A5
:10330000CA018091CB019091CC010E94571A20E014
:1033100030E044E353E40E94C81C2BED3FE049E455
:1033200050E40E943A1B609374037093750380937A
:103330007603909377032AE037ED43E25CE3C5011F
:10334000B4010E94561A20E030E044E353E40E94A6
:10335000C81C2BED3FE049E450E40E943A1B609307
:10336000BC037093BD038093BE039093BF030E9480
:103370000105BC01990F880B990B0E94E41B20E00A
:1033800030EC4FE754E40E943A1B24EA30E745ED65
:1033900050E40E94C81C6093BD017093BE018093ED
:1033A000BF019093C001E090BB01F090BC01E0929E
:1033B000B6016091740370917503809176039091CA
:1033C00077030E94AC1B6093B7016091BC037091BE
:1033D000BD038091BE039091BF030E94AC1B60931C
:1033E000B801C301B2010E94AC1B6093B901B701DF
:1033F00083E00E949B05B70189E00E949B05B7010D
:103400008AE00E949B05B7018BE00E949B0580919A
:10341000B4019091B501803D974039F4FFEFEF1A68
:10342000FF0AF092BC01E092BB018091BB01909138
:10343000BC01C3970CF43ACD81E090E09093BC01BD
:103440008093BB0133CD1092D1016CCD6BED7FE049
:1034500089E490EC26CF81E090E032CDA1E21A2EF3
:10346000AA1BBB1BFD010DC0AA1FBB1FEE1FFF1F28
:10347000A217B307E407F50720F0A21BB30BE40B78
:10348000F50B661F771F881F991F1A9469F76095BF
:103490007095809590959B01AC01BD01CF01089579
:1034A000EE0FFF1F0590F491E02D09945058BB27B3
:1034B000AA270E946E1A0C94811C0E94731C38F07B
:1034C0000E947A1C20F039F49F3F19F426F40C94E2
:1034D000491C0EF4E095E7FB0C94431CE92F0E9475
:1034E000921C58F3BA17620773078407950720F0F8
:1034F00079F4A6F50C94B41C0EF4E0950B2EBA2FBB
:10350000A02D0B01B90190010C01CA01A0011124E9
:10351000FF27591B99F0593F50F4503E68F11A1695
:10352000F040A22F232F342F4427585FF3CF469526
:1035300037952795A795F0405395C9F77EF41F1648
:10354000BA0B620B730B840BBAF09150A1F0FF0F12
:10355000BB1F661F771F881FC2F70EC0BA0F621FFE
:10356000731F841F48F4879577956795B795F795EE
:103570009E3F08F0B0CF9395880F08F09927EE0F83
:103580009795879508950E94731C60F080E891E0FC
:1035900009F49EEF0E947A1C28F040E851E071F493
:1035A0005EEF0CC00C94491C0C94B41CE92FE0781D
:1035B0000E94921C40F3092E052AB1F32617370703
:1035C0004807590738F00E2E07F8E02569F0E02586
:1035D000E0640AC0EF6307F8009407FADB01B90161
:1035E0009D01DC01CA01AD01EF930E94511B0E94B5
:1035F000811C0E94061B5F91552339F02BED3FE0A3
:1036000049E450FD49EC0C94571A0895DF93DD27E7
:10361000B92FBF7740E85FE31616170648075B0728
:1036200018F4D92F0E94C01C9F938F937F936F93A0
:103630000E947B1DE8E6F0E00E944C1C0E94811C69
:103640002F913F914F915F910E94DB1CDD2351F040
:103650009058A2EA2AED3FE049EC5FE3D0785D277D
:103660000E946E1ADF910C94811C0E941F1C08F4AA
:1036700081E008950E944E1B0C94811C0E947A1CCC
:1036800058F00E94731C40F029F45F3F29F00C941D
:10369000431C51110C94B51C0C94491C0E94921CA3
:1036A00068F39923B1F3552391F3951B550BBB2771
:1036B000AA2762177307840738F09F5F5F4F220FB6
:1036C000331F441FAA1FA9F335D00E2E3AF0E0E8AD
:1036D00032D091505040E695001CCAF72BD0FE2FF7
:1036E00029D0660F771F881FBB1F2617370748078B
:1036F000AB07B0E809F0BB0B802DBF01FF27935843
:103700005F4F3AF09E3F510578F00C94431C0C94A7
:10371000B51C5F3FE4F3983ED4F3869577956795A3
:10372000B795F7959F5FC9F7880F911D9695879577
:1037300097F90895E1E0660F771F881FBB1F621796
:1037400073078407BA0720F0621B730B840BBA0B54
:10375000EE1F88F7E09508950E94B31B6894B1119D
:103760000C94B51C08950E949A1C88F09F5798F0FD
:10377000B92F9927B751B0F0E1F0660F771F881F76
:10378000991F1AF0BA95C9F714C0B13091F00E9490
:10379000B41CB1E008950C94B41C672F782F8827CF
:1037A000B85F39F0B93FCCF3869577956795B395B7
:1037B000D9F73EF490958095709561957F4F8F4F26
:1037C0009F4F0895E89409C097FB3EF4909580952B
:1037D000709561957F4F8F4F9F4F9923A9F0F92FD7
:1037E00096E9BB279395F695879577956795B79555
:1037F000F111F8CFFAF4BB0F11F460FF1BC06F5F3B
:103800007F4F8F4F9F4F16C0882311F096E911C04C
:10381000772321F09EE8872F762F05C0662371F06D
:1038200096E8862F70E060E02AF09A95660F771F81
:10383000881FDAF7880F9695879597F90895990F5D
:103840000008550FAA0BE0E8FEEF16161706E8076A
:10385000F907C0F012161306E407F50798F0621B8B
:10386000730B840B950B39F40A2661F0232B242B60
:10387000252B21F408950A2609F4A140A6958FEF7F
:10388000811D811D089597F99F6780E870E060E0D1
:1038900008959FEF80EC0895DF93CF931F930F93CC
:1038A000FF92EF92DF927B018C01689406C0DA2EC2
:1038B000EF010E94DB1CFE01E894A5912591359152
:1038C00045915591A6F3EF010E946E1AFE019701F2
:1038D000A801DA9469F7DF90EF90FF900F911F91A4
:1038E000CF91DF91089500240A9416161706180642
:1038F0000906089500240A941216130614060506F4
:103900000895092E0394000C11F4882352F0BB0F84
:1039100040F4BF2B11F460FF04C06F5F7F4F8F4FE7
:103920009F4F089557FD9058440F551F59F05F3F22
:1039300071F04795880F97FB991F61F09F3F79F0D1
:1039400087950895121613061406551FF2CF469553
:10395000F1DF08C0161617061806991FF1CF8695D5
:103960007105610508940895E894BB2766277727B9
:10397000CB0197F908950E941F1C08F48FEF08955A
:103980009B01AC0160E070E080E89FE30C943A1B7F
:103990000E94DB1C0C94811C0E94731C38F00E9456
:1039A0007A1C20F0952311F00C94431C0C94491CB4
:1039B00011240C94B51C0E94921C70F3959FC1F3C6
:1039C000950F50E0551F629FF001729FBB27F00DCD
:1039D000B11D639FAA27F00DB11DAA1F649F662722
:1039E000B00DA11D661F829F2227B00DA11D621F71
:1039F000739FB00DA11D621F839FA00D611D221F2B
:103A0000749F3327A00D611D231F849F600D211D0E
:103A1000822F762F6A2F11249F5750409AF0F1F091
:103A200088234AF0EE0FFF1FBB1F661F771F881FFA
:103A300091505040A9F79E3F510580F00C94431CD3
:103A40000C94B51C5F3FE4F3983ED4F386957795CC
:103A50006795B795F795E7959F5FC1F7FE2B880FA0
:103A6000911D9695879597F9089519F416F40C947D
:103A7000491C0C94841D0E949A1CB8F39923C9F325
:103A8000B6F39F57550B87FF0E94921D0024A0E6B6
:103A900040EA900180585695979528F4805C660F0F
:103AA000771F881F20F026173707480730F4621B5E
:103AB000730B840B202931294A2BA6951794079460
:103AC000202531254A2758F7660F771F881F20F0D9
:103AD00026173707480730F4620B730B840B200D51
:103AE000311D411DA09581F7B901842F9158880F90
:103AF0009695879508959B01AC010C94C81C0E9473
:103B00001F1C880B990B08959F3F31F0915020F4B2
:103B1000879577956795B795880F911D96958795A9
:103B200097F9089591505040660F771F881FD2F77C
:103B300008950F931F93CF93DF938230910510F474
:103B400082E090E0E091FE03F091FF0330E020E09E
:103B5000B0E0A0E0309799F42115310509F44AC08E
:103B6000281B390B24303105D8F58A819B816115DA
:103B7000710589F1FB0193838283FE0111C04081AD
:103B800051810281138148175907E0F048175907FE
:103B900099F4109761F012960C93129713961C9358
:103BA0003296CF01DF91CF911F910F91089500932D
:103BB000FE031093FF03F4CF2115310551F0421796
:103BC000530738F0A901DB019A01BD01DF01F801BB
:103BD000C1CFEF01F9CF9093FF038093FE03CDCFC8
:103BE000FE01E20FF31F8193919322503109398333
:103BF0002883D7CF2091FC033091FD03232B41F480
:103C000020910701309108013093FD032093FC03BC
:103C100020910501309106012115310541F42DB7A0
:103C20003EB74091090150910A01241B350BE091E8
:103C3000FC03F091FD03E217F307A0F42E1B3F0BEA
:103C40002817390778F0AC014E5F5F4F241735070E
:103C500048F04E0F5F1F5093FD034093FC03819388
:103C600091939FCFF0E0E0E09CCFCF93DF9300975C
:103C7000E9F0FC01329713821282A091FE03B09109
:103C8000FF03ED0130E020E01097A1F420813181A5
:103C9000820F931F2091FC033091FD0328173907F1
:103CA00009F061C0F093FD03E093FC03DF91CF9135
:103CB0000895EA01CE17DF07E8F54A815B819E018E
:103CC00041155105B1F7E901FB83EA834991599107
:103CD000C40FD51FEC17FD0761F480819181029616
:103CE000840F951FE90199838883828193819B8347
:103CF0008A83F0E0E0E012968D919C9113970097F3
:103D0000B9F52D913C911197CD010296820F931F29
:103D10002091FC033091FD032817390739F63097BD
:103D200051F51092FF031092FE03B093FD03A09390
:103D3000FC03BCCFD383C28340815181840F951F84
:103D4000C817D90761F44E5F5F4F88819981480F8A
:103D5000591F518340838A819B81938382832115DC
:103D6000310509F0B0CFF093FF03E093FE039ECF3F
:103D7000FD01DC01C0CF13821282D7CFFB01DC0131
:103D800004C08D910190801921F441505040C8F732
:0A3D9000881B990B0895F894FFCFEB
:103D9A006106610601000000048000000000004E78
:103DAA000B4D0B4D0B4C0BA809A3099E09000000F3
:103DBA0000020762068F064F07C0069E06B206007B
:103DCA000000001509E8088409C5081705D508C6C2
:103DDA0008494E495449414C495A494E47000D0A2F
:103DEA000042617474657279206C6576656C006E48
:0C3DFA00616E00696E66006F7666000066
:00000001FF
