:100000000C94AD040C9415100C94EE0F0C94D504C4
:100010000C94D5040C94D5040C94D5040C94D504FC
:100020000C94D5040C94D5040C94D5040C94D504EC
:100030000C94D5040C94D5040C94D5040C94D504DC
:100040000C94A40F0C94D5040C9462100C943C10E6
:100050000C94D5040C94D5040C94D5040C94D504BC
:100060000C9494100C94D504084AD73B3BCE016EF7
:1000700084BCBFFDC12F3D6C74319ABD56833DDAFF
:100080003D00C77F11BED9E4BB4C3E916BAAAABE0E
:10009000000000803F00FB00003E000B0036000126
:1000A00000020003000000650054FFEF0000FA802A
:1000B000000B12820001000200000000000000009E
:1000C00000000000000000280000FFFF4581FFFF46
:1000D000FA7200000000000003E8000000010001C7
:1000E0007FFFFFFE8001001B0000000000000000F9
:1000F000000000000000004000004000000002CBB3
:1001000047A2200000002000000000000000400086
:1001100000006000000041FF000000000B2A00000A
:10012000165500002182FD872650FD800000001F2B
:100130000000000580000000000000010000000237
:10014000000000030000400000000000046F0002F7
:10015000653200005EC040000000000000000000AA
:10016000000000000000FB8C6F5DFD5D08D9007C85
:10017000733B006C12CC3200139D3200D0D632009B
:100180000800400001F4FFE6807902000000000052
:10019000D0D600002710FB00000040000000000047
:1001A000000000000000000000010000000000004E
:1001B0000100010000000000FA36FFBC308E00058F
:1001C000FBF0FFD95BC8FFD09ABE000010A9FFF476
:1001D0001EB200CEBBF700000001000000040002C8
:1001E00000020200000CFFC280000001800000CF6E
:1001F000800040000000000000000000000000003F
:1002000006000000001400000000000000000000D4
:1002100000000000000000000000000000000000DE
:100220000000000000000923A135000000000000CC
:1002300000000000000000000000033F68B67935B0
:1002400028BCC67ED16C8000FFFF4000000000008B
:10025000B26A000000000000000000000000000082
:100260003FF000000030000000000000000000002F
:10027000000000000000000000000000000000007E
:100280000000000040000000254D002F706D0000B0
:1002900005AE000C02D00000000000650054FFEF26
:1002A0000000000000000000010000440001000503
:1002B0008BC1000001000000000000650000005438
:1002C0000000FFEF00000000000000000000000040
:1002D000000000000000000000000000000000001E
:1002E000000000000000000000000000000000000E
:1002F00000000000000000000001000000020000FB
:1003000000000000000000000000000000000000ED
:1003100000000000000000000000000000000000DD
:10032000000000000000001B0000000000000000B2
:1003300000000000000000000000000000000000BD
:1003400000000000000000000000000000000000AD
:10035000000000000000001B000000000000000082
:10036000000000000000000000000000000000008D
:10037000000000000000000000000000000000007D
:10038000000000000000000000000000000000006D
:10039000000000000000D8DCBAA2F1DEB2B8B4A8B8
:1003A0008191F74A907F916AF3F9DBA8F9B0BAA07E
:1003B00080F2CE81F3C2F1C1F2C3F3CCA2B280F1DC
:1003C000C6D880BAA7DFDFDFF2A7C3CBC5B6F087F8
:1003D000A2942448703C95406834589B78A2F183DD
:1003E000922D557DD8B1B4B8A1D09180F270F37040
:1003F000F27C80A8F101B09887D943D886C988BA21
:10040000A1F20EB89780F1A9DFDFDFAADFDFDFF20C
:10041000AA4CCD6CA90CC92C97979797F1A989265E
:100420004666B0B4BA80ACDEF2CAF1B28C02A9B6AC
:100430009800890E161EB8A9B4992C547CB08AA8CD
:1004400096365676F1B9AFB4B083C0B8A89711B15B
:100450008F98B9AFF0240844106418F1A329557D92
:10046000AF83B593AFF0002850F1A3869F61A6DA61
:10047000DEDFD9FAA38696DB31A6D9F8DFBAA68FDC
:10048000C2C5C7B28CC1B8A2DFDFDFA3DFDFDFD810
:10049000D8F1B8A8B286B4980D355DB8AA98B087DF
:1004A0002D353DB2B6BAAF8C96198F9FA70E161E8A
:1004B000B49AB8AA872C547CB9A3DEDFDFA3B1803D
:1004C000F2C4CDC9F1B8A9B499830D355D89B9A33A
:1004D0002D557DB593A30E161EA92C547CB8B4B02F
:1004E000F19783A81184A50998A383F0DA2408441E
:1004F000106418D8F1A529557DA58595021A2E3AC4
:10050000565A4048F9F3A3D9F8F0988324084410C8
:1005100064189782A8F111F098A224084410641876
:10052000DAF3DED883A59401D9A302F1A2C3C5C72B
:10053000D8F18492A24DDA2AD84869D92AD86855C8
:10054000DA32D85071D932D8705DDA3AD85879D9C0
:100550003AD87893A34DDA2AD84869D92AD8685569
:10056000DA32D85071D932D8705DDA3AD85879D9A0
:100570003AD878A88A9AF02850789EF38818F19F84
:100580001D98A8D908D8C89F129EF315A8DA121092
:10059000D8F1AFC8978734B5B994A421F3D922D83C
:1005A000F22DF3D92AD8F235F3D932D881A460607C
:1005B00061D961D86C6869D969D8747071D971D8FA
:1005C000B1A384193D5DA3831A3E5E931030811060
:1005D00011B8B0AF8F94F2DA3ED8B49AA88729DA6E
:1005E000F8D8879A35DAF8D8879A3DDAF8D8B1B9C9
:1005F000A49885022E56A581000C14A397B08AF109
:100600002DD928D84DD948D86DD968D8B1840DDAFC
:100610000ED8A32983DA2C0ED8A3844983DA2C4C74
:100620000ED8B8B0A88A9AF520AADADFD8A840AACE
:10063000D0DADED8A860AADAD0DFD8F19786A83160
:100640009B069907AB9728889BF00C201440B8B004
:10065000B4A88C9CF0042851791D301438B282ABB8
:10066000D0982C505078789BF11AB0F08A9CA82929
:1006700051798B2951798A2470598B2058718A4479
:1006800069388B3940688A6448318B304960A58865
:10069000200971584468113964493019F1AC002CB3
:1006A000547CF08CA804285078F1889726A8599893
:1006B000AC8C02264666F0899CA829517924705991
:1006C000446938644831A98809205970AB11384011
:1006D00069A8193148608CA83C415C207C00F187F6
:1006E000981986A86E767EA999882D557D9EB9A306
:1006F0008A228A6E8A568A5E9FB183062646660ED5
:100700002E4E6E9DB8AD002C547CF2B18CB499B9CC
:10071000A32D557D8191AC38AD3AB58391AC2DD9DF
:1007200028D84DD948D86DD968D88C9DAE29D90420
:10073000AED851D904AED879D904D881F39DAD0093
:100740008DAE1981ADD901D8F2AEDA26D88E9129B5
:1007500083A7D9ADADADADF32AD8D8F1B0AC8991AE
:100760003E5E76F3AC2E2EF1B18C5A9CAC2C282830
:10077000289CAC3018A8988128343C9724A72834AA
:100780003C9C24F2B089AC912C4C6C8A9B2DD9D81E
:10079000D851D9D8D879D9D8D8F19E88A331DAD808
:1007A000D8912DD928D84DD948D86DD968D8B183DA
:1007B00093353D8025DAD8D88569DAD8D8B49381C5
:1007C000A328343CF3AB8BF8A391B609B4D9ABDEC4
:1007D000FAB0879CB9A3DDF1202830389AF128308F
:1007E000389DF1A3A3A3A3F2A3B49080F2A3A3A383
:1007F000A3A3A3A3A3A3A3B2A3A3A3A3A3A3B087C9
:10080000B599F128303898F1A3A3A3A397A3A3A384
:10081000A3F39BA330DCB9A7F1262626FED8FF2937
:1008200000444D5020496E697469616C697A617445
:10083000696F6E206661696C65642028636F64650A
:100840002000444D50207265616479212057616910
:1008500074696E6720666F722066697273742069AE
:100860006E746572727570742E2E2E00456E616204
:100870006C696E6720696E7465727275707420643D
:100880006574656374696F6E202841726475696E62
:100890006F2065787465726E616C20696E74657224
:1008A000727570742030292E2E2E00456E61626C98
:1008B000696E6720444D502E2E2E004D5055363017
:1008C000353020636F6E6E656374696F6E2066618C
:1008D000696C6564004D50553630353020636F6E5D
:1008E0006E656374696F6E20737563636573736699
:1008F000756C00496E697469616C697A696E67200C
:10090000444D502E2E2E0000000000240027002A07
:100910000000000000250028002B0004040404044B
:10092000040404020202020202030303030303019C
:100930000204081020408001020408102001020473
:100940000810200000000800020100000304070056
:1009500000000000000000006A1211241FBECFEF4B
:10096000D8E0DEBFCDBF11E0A0E0B1E0E8EBF2E4FB
:1009700002C005900D92AE3BB107D9F724E0AEEB73
:10098000B1E001C01D92A635B207E1F714E0CDEA4F
:10099000D4E004C02197FE010E94E61CCC3AD107A6
:1009A000C9F70E9427130C945A210C94000091E07F
:1009B00090938F0280938E0210928D0210928C027F
:1009C00008958091040120E4829FC0011124809346
:1009D0007C0080917A00806480937A0080917A0014
:1009E00086FDFCCF809178009091790008958091E8
:1009F0008A0290918B02891B990B089590E0FC016B
:100A0000ED5BF64F2491FC01E15DF64F3491FC0162
:100A1000E55EF64FE491EE23C9F0222339F023304E
:100A200001F1A8F4213019F1223029F1F0E0EE0FA4
:100A3000FF1FEF5EF64FA591B4918FB7F894EC913C
:100A4000611126C030953E233C938FBF0895273017
:100A5000A9F02830C9F0243049F7809180008F7DBB
:100A600003C0809180008F7780938000DFCF84B5B2
:100A70008F7784BDDBCF84B58F7DFBCF8091B000B5
:100A80008F778093B000D2CF8091B0008F7DF9CF67
:100A90003E2BDACFCF93DF9390E0FC01E15DF64F80
:100AA0002491855E964FFC0184918823D1F090E0DB
:100AB000880F991FFC01E95FF64FA591B491FC01E5
:100AC000EF5EF64FC591D49161110EC09FB7F894B7
:100AD0008C91E22FE0958E238C932881E223E8838A
:100AE0009FBFDF91CF9108958FB7F894EC91E22BDF
:100AF000EC938FBFF6CF3FB7F89480918602909128
:100B00008702A0918802B091890226B5A89B05C0F2
:100B10002F3F19F00196A11DB11D3FBFBA2FA92F7C
:100B2000982F8827BC01CD01620F711D811D911D79
:100B300042E0660F771F881F991F4A95D1F70895E5
:100B40008F929F92AF92BF92CF92DF92EF92FF92DD
:100B50004B015C010E947B056B017C010E947B05BF
:100B60006C197D098E099F09683E734081059105C6
:100B7000A8F321E0821A9108A108B10888EEC80EF6
:100B800083E0D81EE11CF11C81149104A104B1047E
:100B900029F7FF90EF90DF90CF90BF90AF909F909C
:100BA0008F9008952FB7F89460918202709183021C
:100BB00080918402909185022FBF089581E08093F7
:100BC00080020895089508950895AF92BF92CF923C
:100BD000DF92EF92FF920F931F93CF93DF936C01FD
:100BE0007B018B01040F151FEB015E01AE18BF08DE
:100BF000C017D10759F06991D601ED91FC91019090
:100C0000F081E02DC6010995892B79F7C501DF91A7
:100C1000CF911F910F91FF90EF90DF90CF90BF90F9
:100C2000AF900895FC01538D448D252F30E0842F23
:100C300090E0821B930B541710F0CF960895019704
:100C40000895FC01918D828D981761F0A28DAE0FF1
:100C5000BF2FB11D5D968C91928D9F5F9F73928F78
:100C600090E008958FEF9FEF0895FC01918D828DA4
:100C7000981731F0828DE80FF11D858D90E0089571
:100C80008FEF9FEF0895FC01918D228D892F90E0C9
:100C9000805C9F4F821B91098F73992708958CED7B
:100CA00092E00E94430621E0892B09F420E0822F84
:100CB000089580E090E0892B29F00E944F06811171
:100CC0000C9400000895FC01A48DA80FB92FB11D4C
:100CD000A35ABF4F2C91848D90E001968F73992772
:100CE000848FA689B7892C93A089B1898C91837050
:100CF00080648C93938D848D981306C00288F38949
:100D0000E02D80818F7D80830895EF92FF920F9375
:100D10001F93CF93DF93EC0181E0888F9B8D8C8DA7
:100D200098131AC0E889F989808185FF15C09FB79B
:100D3000F894EE89FF896083E889F989808183705E
:100D4000806480839FBF81E090E0DF91CF911F910D
:100D50000F91FF90EF900895F62E0B8D10E00F5F2E
:100D60001F4F0F731127E02E8C8D8E110CC00FB604
:100D700007FCFACFE889F989808185FFF5CFCE019C
:100D80000E946306F1CFEB8DEC0FFD2FF11DE35AAE
:100D9000FF4FF0829FB7F8940B8FEA89FB8980811F
:100DA0008062CFCF0F931F93CF93DF938C01D0E05E
:100DB000C0E0F801EC0FFD1F6491662341F08CED5B
:100DC00092E00E948506892B11F02196F2CFCE0188
:100DD000DF91CF911F910F910895CF93DF93EC0195
:100DE000888D8823B9F0AA89BB89E889F9898C9113
:100DF00085FD03C0808186FD0DC00FB607FCF7CFCF
:100E00008C9185FFF2CF808185FFEDCFCE010E94CE
:100E10006306E9CFDF91CF9108952091FF01260F5E
:100E20003327331F21323105ECF42091D602FC0127
:100E300090E080E0243069F082E00895A091FF0105
:100E40002191AC0141525E4FA40FB52FB11D2C93DF
:100E50000196861798F38091FF01680F6093FF0158
:100E600080E0089581E008951092D60281E0809399
:100E7000B5021092B00261E082E10E94FE0461E0DE
:100E800083E10E94FE04E9EBF0E080818E7F8083A5
:100E900080818D7F808388E48093B80085E480938F
:100EA000BC000895CF93DF9391E09093DE018823F7
:100EB000B9F0C091B800D091BA008091BC008A7B93
:100EC0008093BC0060E082E10E94FE0460E083E168
:100ED0000E94FE040E943407D093BA00C093B80069
:100EE000DF91CF910895CF92DF92EF92FF920F930F
:100EF0001F93CF93DF93D82FC62F613208F098C08D
:100F00000E947B056B017C018091D60281116BC030
:100F100081E08093D6028093B5029FEF9093B40254
:100F20001092B3029C0F9093B2028093B102809111
:100F3000B102DD0FD82BD093B1028091B002813085
:100F400009F078C01092B0020E947B056B017C0111
:100F50008091B1028093BB008091D8029091D90218
:100F6000A091DA02B091DB02892B8A2B8B2BA1F0A6
:100F70000E947B050091D8021091D9022091DA02DB
:100F80003091DB026C197D098E099F09061717073E
:100F90002807390708F448C08091BC0083FDD8CFEA
:100FA00085EC8093BC000E947B056B017C018091E5
:100FB000D602813009F440C08091B3028C1710F43E
:100FC000C091B302E0E9F2E0A6EBB2E080E08C135E
:100FD00055C08C2FDF91CF911F910F91FF90EF9013
:100FE000DF90CF9008958091D8029091D902A0917E
:100FF000DA02B091DB02892B8A2B8B2B09F484CF88
:101000000E947B050091D8021091D9022091DA024A
:101010003091DB026C197D098E099F0906171707AD
:101020002807390708F070CF8091D7020E94520735
:10103000C0E0CFCF85EEB5CF8091D8029091D90294
:10104000A091DA02B091DB02892B8A2B8B2B09F459
:10105000AECF0E947B050091D8021091D902209159
:10106000DA023091DB026C197D098E099F0906179F
:1010700017072807390708F09ACFD6CF91919D938B
:101080008F5FA5CF0895E0918B0280918A02E817C7
:1010900030F4F0E0EA54FD4F808190E008958FEF46
:1010A0009FEF089590918B0280918A022FEF3FEF7E
:1010B000981748F4E92FF0E0EA54FD4F208130E022
:1010C0009F5F90938B02C9010895CF92DF92EF92B8
:1010D000FF920F931F93CF93DF937C01CB018A0183
:1010E00020918F02222389F0EB016B01C40ED51EE3
:1010F000CC15DD0569F06991D701ED91FC91019066
:10110000F081E02DC7010995F3CF642F0E940D07F0
:10111000C801DF91CF911F910F91FF90EF90DF9069
:10112000CF900895CF93DF931F92CDB7DEB7698339
:1011300020918F022223F9F020918C02203258F066
:1011400021E030E0FC013383228390E080E00F90C7
:10115000DF91CF91089580918D02E82FF0E0E25465
:10116000FE4F998190838F5F80938D0280938C02D4
:1011700081E090E0ECCF61E0CE0101960E940D0786
:10118000F7CFCF92DF92EF92FF920F931F93CF93FF
:10119000DF93D0918C0281E0D13208F09CC0C091E5
:1011A0008E020E947B056B017C018091D602811129
:1011B0006CC082E08093D60281E08093B5028FEF0D
:1011C0008093B4021092B302D093B202AEEBB1E0BE
:1011D000E0E9F2E080E0D8138DC01092B102809176
:1011E000B102CC0FC82BC093B1028091B002813004
:1011F00009F084C01092B0020E947B056B017C0153
:101200008091B1028093BB008091D8029091D90265
:10121000A091DA02B091DB02892B8A2B8B2BA1F0F3
:101220000E947B050091D8021091D9022091DA0228
:101230003091DB026C197D098E099F09061717078B
:101240002807390708F442C08091BC0083FDD8CF3D
:1012500085EC8093BC000E947B056B017C01809132
:10126000D602823009F44CC08091B4028F3F09F459
:1012700069C08091B402803209F466C08091B402E2
:10128000803309F463C084E026C08091D802909135
:10129000D902A091DA02B091DB02892B8A2B8B2B29
:1012A00009F483CF0E947B050091D8021091D902E6
:1012B0002091DA023091DB026C197D098E099F09B9
:1012C000061717072807390708F06FCF8091D70254
:1012D0000E94520785E010928D0210928C021092AB
:1012E0008F02DF91CF911F910F91FF90EF90DF90D0
:1012F000CF9008959D9191938F5F6DCF85EEA9CF8B
:101300008091D8029091D902A091DA02B091DB02CB
:10131000892B8A2B8B2B09F4A2CF0E947B0500918D
:10132000D8021091D9022091DA023091DB026C19B7
:101330007D098E099F09061717072807390708F046
:101340008ECFC4CF80E0C7CF82E0C5CF83E0C3CFCC
:101350000F931F93CF93DF93082F162FC1EAD3E08B
:101360008B810E94D70489819A81DC01ED91FC91E7
:101370000190F081E02D602F099589819A81DC012F
:10138000ED91FC910190F081E02D612F099589810B
:101390009A810E94C1088883DF91CF911F910F919C
:1013A0000895FF920F931F93CF93DF93F82E162F7C
:1013B000072FC1EAD3E08B810E94D70489819A81EB
:1013C000DC01ED91FC910190F081E02D6F2D0995EC
:1013D00089819A81DC01ED91FC910190F081E02DF1
:1013E000602F099589819A81DC01ED91FC91019032
:1013F000F081E02D612F099589819A810E94C108B1
:101400008883DF91CF911F910F91FF900895FF92F4
:101410000F931F93CF93DF93C62F042FF22E132F1A
:101420000E94D7046C2F89E793E00E949208CF2D89
:10143000D12F0C0F1D2F111DC017D10731F069914D
:1014400089E793E00E949208F7CF89E793E00E9432
:10145000C10891E0811190E0892FDF91CF911F9118
:101460000F91FF900895CF93DF931F92CDB7DEB712
:1014700049839E012F5F3F4F41E00E94070A0F9072
:10148000DF91CF91089590E080E008950F931F932E
:10149000CF93DF93182FC1EAD3E08B810E94D7044A
:1014A00089819A81DC01ED91FC910190F081E02D20
:1014B000612F099589819A810E94C108888362E021
:1014C0008B810E94730710928B0280938A0289811C
:1014D0009A81DC01ED91FC910284F385E02D099560
:1014E00000E0182F89819A81DC01ED91FC91028442
:1014F000F385E02D0995802B912BDF91CF911F91E2
:101500000F9108951F93CF93DF93182FC1EAD3E073
:101510008B810E94D70489819A81DC01ED91FC9135
:101520000190F081E02D612F099589819A810E94B7
:10153000C108888361E08B810E94730710928B023F
:1015400080938A0289819A81DC01ED91FC91028469
:10155000F385E02D0995DF91CF911F910895CF93E9
:10156000DF93EC0181E00E94820A84FB992790F9C5
:10157000988383FB992790F99A8382FB992790F9A6
:10158000998386FB992790F99B83881F8827881F5A
:101590008C83DF91CF910895682F616080E00E9475
:1015A000A8090E94D2057093A9036093A80383E160
:1015B0000E94820A8770B9F48091A5039091A603D6
:1015C000892BA9F30E94D2052091A8033091A90389
:1015D000621B730B8091A5039091A6038617970752
:1015E00030F780E0089561E08BE00E94A80960E098
:1015F00080E00E94A80981E00895CF93C82F61E0A0
:101600000E944A05EC2FF0E0ED5BF64FE491E330E9
:1016100049F148F4E130C9F0E230F1F060E08C2F9C
:10162000CF910C94FE04E73049F1E83081F1E430C9
:10163000A9F78091800080628093800085E090E02F
:1016400090938B0080938A0005C084B5806884BD28
:1016500085E087BDCF91089584B5806284BD85E023
:1016600088BDF8CF8091800080688093800085E0FD
:1016700090E09093890080938800ECCF8091B00037
:1016800080688093B00085E08093B300E3CF8091C1
:10169000B00080628093B00085E08093B400DACF20
:1016A0008F929F92AF92BF92EF92FF920F931F93F0
:1016B000CF93DF937C01EB0180E50E94820A8F5F6C
:1016C000880F90E09983888386E40E94820A082F1D
:1016D00010E00F5F1F4F1D830C83A881B0E020E056
:1016E0003FE24AE350E00E94A21C6C507E4F8F4FB5
:1016F0009F4F38EE832E33E0932EA12CB12CA50101
:1017000094010E94B51CD8010E94AD1C6C507E4F04
:101710008F4F9F4FA50194010E94B51C2A873B87DC
:101720004C875D8781E50E94460A8C01112702C023
:10173000000F111F9A95E2F70F5F1F4F1F830E8353
:10174000A881B0E020E03FE24AE350E00E94A21C02
:101750006C507E4F8F4F9F4FA50194010E94B51C86
:10176000D8010E94A21C6C507E4F8F4F9F4FA50145
:1017700094010E94B51C2E873F87488B598B80E7C8
:101780000E94820A8F5F880F90E09B838A8381E7A3
:101790000E94460A9C01992702C0880F991F3A951A
:1017A000E2F7019699878887F7012381222331F098
:1017B0002E813F81821B930B99878887AA81B0E095
:1017C00020E03FE24AE350E00E94A21C6C507E4FB2
:1017D0008F4F9F4F28EE822E23E0922EA12CB12C0A
:1017E000A50194010E94B51CA885B9850E94A21C80
:1017F0006C507E4F8F4F9F4FA50194010E94B51CE6
:101800002A8B3B8B4C8B5D8BDF91CF911F910F917E
:10181000FF90EF90BF90AF909F908F9008952F9280
:101820003F924F925F926F927F928F929F92AF9270
:10183000BF92CF92DF92EF92FF920F931F93CF93BD
:10184000DF9300D000D0CDB7DEB7782E662E4C8364
:101850003A8329830E94D2056B017C01512C1B82A3
:101860002C81222E312C4801B12CA12C8C815816B0
:1018700008F049C0872D0E94D704662D89E793E0C0
:101880000E94920889E793E00E94C108872D0E9478
:10189000D704B101651971096132710514F060E274
:1018A00070E0613208F060E2872D0E947307482ED5
:1018B00010928B0280938A0280918B024816E9F085
:1018C0000115110579F489E793E00E945208E98136
:1018D000FA819B81E90FF11D97FDFA9580839F5F47
:1018E0009B83EACF0E94D2056C197D098E099F095E
:1018F000681579058A059B0530F38C81813208F0E3
:1019000080E2580EB3CF01151105C1F00E94D20537
:101910006C197D098E099F0930E020E0601771077E
:101920008207930758F02B81822F220F990B2C816D
:101930002817190619F014F08FEF8B838B810F9005
:101940000F900F900F90DF91CF911F910F91FF900B
:10195000EF90DF90CF90BF90AF909F908F907F904F
:101960006F905F904F903F902F900895CF92DF92AD
:10197000EF92FF920F931F93CF93DF931F92CDB7F8
:10198000DEB7F82EE62EC42ED22E08EE13E09E010E
:101990002F5F3F4F41E00E940F0C81E090E001C0BB
:1019A000880FCA94EAF74981DD2081F0482B4983EA
:1019B0006E2D8F2D0E94330A0F90DF91CF911F91D2
:1019C0000F91FF90EF90DF90CF900895809548237E
:1019D000EECF0F931F93CF93DF93CFEAD3E008EEC0
:1019E00013E020EB33E041E06AE388810E940F0CB2
:1019F0008981DF91CF911F910F9108950F931F93CC
:101A0000CF93DF93CFEAD3E008EE13E020EB33E08F
:101A100042E062E788810E940F0C89819A819827B1
:101A200089279827DF91CF911F910F910895BF9239
:101A3000CF92DF92EF92FF920F931F93CF93DF939A
:101A40001F92CDB7DEB7F82EE62EC42EB22ED02EC2
:101A500008EE13E09E012F5F3F4F41E00E940F0C04
:101A6000882371F18C2D8B19990BAC014F5F5F4F5F
:101A700081E090E002C0880F991FBA94E2F70197C5
:101A8000042E01C0880F0A94EAF70D2D01C0000F43
:101A90004A95EAF7482F4095998149238023482B9E
:101AA00049836E2D8F2D0E94330A0F90DF91CF91C5
:101AB0001F910F91FF90EF90DF90CF90BF9008950E
:101AC00080E0F3CF2F923F924F925F926F927F927E
:101AD0008F929F92AF92BF92CF92DF92EF92FF923E
:101AE0000F931F93CF93DF933C015B01242E522E63
:101AF000302E6DE68091AF030E94330A452D6EE6CD
:101B00008091AF030E94330A80E190E00E94282078
:101B10006C01D0E0C0E0002329F080E190E00E9459
:101B20002820EC01F12CE12CC70140964A2C4E18DC
:101B3000A816B90610F080E1482E80E091E08519E2
:101B400091094816190619F014F0452C41943320D8
:101B500079F0DE0190E080E093012E0D3F1D8415A9
:101B600050F4F901E80FF91FE491ED930196F7CFD6
:101B7000E301CE0DDF1D9E01442D6FE68091AF0382
:101B80000E94070A842C912CC114D104D1F1422D5A
:101B90004F716DE68091AF030E94330A452D6EE6CA
:101BA0008091AF030E94330A08EE13E09601442DA2
:101BB0006FE68091AF030E940F0CA401B601CE0125
:101BC0000E944D21892BE9F0C6010E94C4203320D8
:101BD00021F0CE010E94C420312C832DDF91CF91C2
:101BE0001F910F91FF90EF90DF90CF90BF90AF903B
:101BF0009F908F907F906F905F904F903F902F902D
:101C00000895E80CF91CEA14FB04A8F4540C09F438
:101C10002394422D4F716DE68091AF030E94330AE9
:101C2000452D6EE68091AF030E94330A7DCFCE0131
:101C30000E94C420D2CFC6010E94C4203110F7CF29
:101C400033243394CACFFC0101900020E9F7319787
:101C5000AF01481B590BBC018CED92E00C94E505DB
:101C60008F929F92AF92BF920F931F93CF93DF9368
:101C7000CDB7DEB7A1970FB6F894DEBF0FBECDBFCC
:101C800019A2423008F44AE08E010F5D1F4F842EE6
:101C9000912CB12CA12CA50194010E94B51CE62F1A
:101CA000B901CA01EA30F4F4E05DD801EE938D0188
:101CB000232B242B252B79F790E080E0109719F047
:101CC000CD010E94230EA1960FB6F894DEBF0FBE81
:101CD000CDBFDF91CF911F910F91BF90AF909F909B
:101CE0008F900895E95CE1CF4F925F926F927F925F
:101CF0008F929F92AF92BF92CF92DF92EF92FF921C
:101D00000F931F93CF936B017C01742EAC019B0149
:101D10000E940E20882399F08FE291E0CF911F91CD
:101D20000F91FF90EF90DF90CF90BF90AF909F907A
:101D30008F907F906F905F904F900C94230E460190
:101D40005701E894B7F82FEF3FEF4FE75FE7C50182
:101D5000B4010E940E2081110DC02FEF3FEF4FE71D
:101D60005FE7C501B4010E94CB1D18161CF483E384
:101D700091E0D4CF2FEF3FEF4FE75FE4C701B6010B
:101D80000E944A1F18161CF487E391E0C7CF2FEF7B
:101D90003FEF4FE75FECC701B6010E94CB1D87FD07
:101DA000F3CF20E030E0A901C701B6010E94CB1DAE
:101DB00010E000E087FF0AC06DE28CED92E00E9427
:101DC00085068C01F7FAF094F7F8F094C0E060E033
:101DD00070E080E09FE37C1641F020E030E040E2DC
:101DE00051E40E94D01DCF5FF6CFA70196010E945B
:101DF000ED1C2B013C010E94421E4B015C014AE09C
:101E00000E94300E7C01E00EF11ECC23C1F1C50111
:101E1000B4010E94711E9B01AC01C301B2010E947A
:101E2000EC1C4B015C016EE28CED92E00E94850699
:101E3000E80EF91EC15018F120E030E040E251E414
:101E4000C501B4010E94571F2B013C010E94421E94
:101E50004B01B12CA12C4AE0C501B4010E94300E07
:101E6000E80EF91EC501B4010E94711E9B01AC0170
:101E7000C301B2010E94EC1C4B015C01DBCFC70126
:101E8000CF911F910F91FF90EF90DF90CF90BF9077
:101E9000AF909F908F907F906F905F904F9008953C
:101EA000CF93DF930E94230EEC018BE391E00E941D
:101EB000230E8C0F9D1FDF91CF910895CF93DF9359
:101EC0000E94D206EC018BE391E00E94230E8C0F5E
:101ED0009D1FDF91CF91089585ED8093BC00809187
:101EE000D8029091D902A091DA02B091DB02079654
:101EF000A11DB11D23E0B695A795979587952A95C5
:101F0000D1F72091BC0024FD03C01092D6020895A1
:101F10004091D8025091D9026091DA027091DB02AF
:101F2000452B462B472B69F30097A105B10541F0DE
:101F300025E32A95F1F700000197A109B109E1CF46
:101F40008091D7020C9452071F920F920FB60F92F6
:101F500011242F933F938F939F93AF93BF938091BF
:101F6000820290918302A0918402B0918502309107
:101F7000810223E0230F2D3758F50196A11DB11DD5
:101F8000209381028093820290938302A093840223
:101F9000B09385028091860290918702A091880279
:101FA000B09189020196A11DB11D80938602909384
:101FB0008702A0938802B0938902BF91AF919F914D
:101FC0008F913F912F910F900FBE0F901F901895FA
:101FD00026E8230F0296A11DB11DD2CF1F920F92AA
:101FE0000FB60F9211242F933F934F935F936F93EC
:101FF0007F938F939F93AF93BF93EF93FF93E09162
:102000000201F09103010995FF91EF91BF91AF910A
:102010009F918F917F916F915F914F913F912F9100
:102020000F900FBE0F901F9018951F920F920FB632
:102030000F9211242F933F934F935F936F937F934E
:102040008F939F93AF93BF93EF93FF93E091000122
:10205000F09101010995FF91EF91BF91AF919F918F
:102060008F917F916F915F914F913F912F910F9041
:102070000FBE0F901F9018951F920F920FB60F92E0
:1020800011242F933F934F935F936F937F938F937D
:102090009F93AF93BF93EF93FF938CED92E00E94D9
:1020A0006306FF91EF91BF91AF919F918F917F91C7
:1020B0006F915F914F913F912F910F900FBE0F90B5
:1020C0001F9018951F920F920FB60F9211242F9305
:1020D0008F939F93EF93FF93E091EC02F091ED02C9
:1020E0008081E091F202F091F30282FD1BC09081A9
:1020F0008091F5028F5F8F732091F602821741F075
:10210000E091F502F0E0E452FD4F958F8093F502E7
:10211000FF91EF919F918F912F910F900FBE0F9094
:102120001F9018958081F4CF1F920F920FB60F92D7
:1021300011242F933F934F935F936F937F938F93CC
:102140009F93AF93BF93EF93FF938091B900887FE4
:10215000803609F44AC0F0F5883209F4A7C018F5B2
:10216000803109F49BC0B8F4882309F4F9C08830A1
:1021700009F494C0FF91EF91BF91AF919F918F911E
:102180007F916F915F914F913F912F910F900FBE73
:102190000F901F901895883109F488C0803251F74C
:1021A0008093B40214C0803409F49DC040F480339D
:1021B000B9F38833F9F68093B40285ECB0C080356A
:1021C00009F485C0883509F496C0883499F60E94D0
:1021D0006C0FD0CF883909F48CC038F5883729F0D6
:1021E00050F4883611F0803729F683E08093D602C8
:1021F0001092210257C0883809F47BC0803919F049
:10220000803809F0B7CF80912102803208F071C088
:10221000E091210281E08E0F809321028091BB002A
:10222000F0E0EF5FFD4F80833DC0803B39F0E0F48C
:10223000803A09F479C0883A09F09CCF84E0809311
:10224000D602109200021092FF01E0912402F09158
:10225000250209958091FF0181110FC081E08093D3
:10226000FF011092DF0109C0803C09F4A6CF883C31
:1022700009F4A3CF883B09F07DCFE091000281E013
:102280008E0F80930002F0E0E152FE4F8081809338
:10229000BB00909100028091FF0129C08091B102A2
:1022A0008093BB0085EC8093BC0064CF9091B30217
:1022B0008091B202981758F5E091B30281E08E0F39
:1022C0008093B302F0E0E057FD4F8081E9CFE091C9
:1022D000B30281E08E0F8093B3028091BB00F0E0E7
:1022E000E057FD4F80839091B3028091B20298171E
:1022F000C8F285E8D8CFE091B30281E08E0F8093D9
:10230000B3028091BB00F0E0E057FD4F80838091E5
:10231000B50281115CCF81E08093B00284EA8093A2
:10232000BC001092D60226CF85EC8093BC001092A0
:10233000D60280912102803230F4E0912102F0E057
:10234000EF5FFD4F10826091210270E0E091220268
:10235000F091230281E092E00995109221020ACFC8
:102360001092B40234CF4F925F926F927F928F920D
:102370009F92AF92BF92CF92DF92EF92FF920F9314
:102380001F93CF93DF93CDB7DEB74C012701380100
:10239000DC015F965C934E935E975D967C936E93A3
:1023A0005C9791963C932E939097DA961C92FC0141
:1023B00012AA13AA14AA15AA80E090E0AFE7B3E42A
:1023C00086AB97ABA0AFB1AF84E690E0A0E0B0E001
:1023D00086A797A7A0ABB1AB118E108E20E030E09E
:1023E000A901C801B7010E94CB1D87FD53C020E0A1
:1023F00030E0A901C601B5010E94CB1D87FD4AC08E
:1024000020E030E0A9016B897C898D899E890E943A
:10241000CB1D87FD3FC081E090E0D4015B969C938B
:102420008E935A97DB968C93DB97F401408251820E
:10243000628273821496AD92BD92CD92DC92179710
:102440008B899C89AD89BE8980879187A287B38754
:1024500044865586668677862DEC3CEC4CEC5DE335
:10246000C601B5010E94571FF401608B718B828BEE
:10247000938B2DEC3CEC4CEC5DE36B897C898D8976
:102480009E890E94D01DD40154966D937D938D93A7
:102490009C9357970E94D205F401C6A4D7A4E0A844
:1024A000F1A86C197D098E099F0962A373A384A307
:1024B00095A3DF91CF911F910F91FF90EF90DF9047
:1024C000CF90BF90AF909F908F907F906F905F90D4
:1024D0004F9008956F927F928F929F92AF92BF928A
:1024E000CF92DF92EF92FF920F931F93CF93DF93E0
:1024F000ECEDF2E01382128288EE93E0A0E0B0E00F
:1025000084839583A683B7832FE031E031832083D2
:1025100025EC30E03587248724EC30E037872687A8
:1025200020EC30E0318B208B21EC30E0338B228BA0
:1025300022EC30E0358B248B26EC30E0378B268B79
:10254000118E128E138E148EC9E7D3E01B821A826D
:102550008C839D83AE83BF8381E291E099838883DE
:102560008DE3682E6F929CE4792E7F922CEC822E64
:102570008F923DEC932E9F924DECA42E4CECB42EFA
:102580004CE4C42E4DE3D42EE12CF12C00E01FE3EB
:102590002AE034E04EE054E062E174E086E194E049
:1025A0000E94B3116F927F928F929F9222EC33E040
:1025B00046EC53E06AEC73E08EEC93E00E94B311BA
:1025C00088E68093AF03E1EAF3E0D283C18389E236
:1025D0008383158214821682E1E9F3E080E090E0C3
:1025E000A0E8BFE380839183A283B3831482158222
:1025F0001682178210861186128613861486158617
:1026000016861786E5E8F3E01082118212821382A3
:1026100014821582168217821086118612861386FE
:102620008DB79EB708960FB6F8949EBF0FBE8DBFAC
:10263000DF91CF911F910F91FF90EF90DF90CF909E
:10264000BF90AF909F908F907F906F900895CF93A1
:10265000DF93CDB7DEB7E9970FB6F894DEBF0FBEB4
:10266000CDBF789484B5826084BD84B5816084BD1B
:1026700085B5826085BD85B5816085BD80916E0020
:10268000816080936E001092810080918100826051
:10269000809381008091810081608093810080918E
:1026A00080008160809380008091B100846080937D
:1026B000B1008091B00081608093B00080917A0079
:1026C000846080937A0080917A00826080937A009F
:1026D00080917A00816080937A0080917A0080688E
:1026E00080937A001092C100E091EC02F091ED022B
:1026F00082E08083E091E802F091E9021082E091AB
:10270000EA02F091EB028FEC80831092F402E091E8
:10271000F002F091F10286E08083E091EE02F09108
:10272000EF02808180618083E091EE02F091EF0200
:10273000808188608083E091EE02F091EF028081D9
:1027400080688083E091EE02F091EF0280818F7DBE
:1027500080838EE391E00E94500F60E08EE00E9443
:102760004A0583E0809304010E94E104BC01990FB3
:10277000880B990B0E94731E20E030EC4FE754E465
:102780000E94D01D24EA30E745ED50E40E94571F17
:1027900060932702709328028093290290932A0263
:1027A0008BE491E00E94230E609127027091280231
:1027B0008091290290912A0242E00E94740E8BE3DC
:1027C00091E00E94230E61E083E00E944A0561E0EF
:1027D00089E00E944A0561E08AE00E944A0561E0C2
:1027E0008BE00E944A0510928B0210928A0210928E
:1027F0008D0210928C020E94340782EE95E0909335
:1028000025028093240283EE95E090932302809327
:10281000220288E18093B80089E591E00E94500F80
:1028200001E023E042E06BE68091AF030E94170DC8
:1028300000E022E044E06BE18091AF030E94170DBD
:1028400022E044E06CE18091AF030E94170D20E08C
:1028500046E06BE68091AF030E94B60C85E791E0FD
:102860000E94500F87E791E00E94500F08EE13E09E
:102870009E012F5F3F4F41E065E78091AF030E94CB
:102880000F0C882339F089818E7790E09595879594
:102890008093B0038091B003843309F035C185ED96
:1028A00098E00E945E0F85E791E00E94500F83EF51
:1028B00098E00E945E0F21E047E06BE68091AF0355
:1028C0000E94B60C6EE170E080E090E00E94A005EE
:1028D00020E046E06BE68091AF030E94B60C40E733
:1028E0006DE68091AF030E94330A46E06EE6809168
:1028F000AF030E94330A40E06DE68091AF030E946F
:10290000330A4FE765E28091AF030E94330A20E06B
:1029100045E06AE68091AF030E94B60C48E665E2A6
:102920008091AF030E94330A21E041E06AE6809182
:10293000AF030E94B60C64E170E080E090E00E947A
:10294000A00503E023E042E06BE68091AF030E9424
:10295000170D42E168E38091AF030E94330A44E01F
:1029600069E18091AF030E94330A01E023E045E072
:102970006AE18091AF030E94170D03E023E042E07B
:102980006AE18091AF030E94170D22E044E06BE101
:102990008091AF030E94170D01E020E040E069E85C
:1029A00077E086E990E00E94620D8111B0C081E07D
:1029B0008093260281E298E00E94D2064AE061E01C
:1029C00070E080E090E00E94300E8FE198E00E947D
:1029D0005E0F61E08DE00E944A0584EF91E09093E4
:1029E000A6038093A50380EC0E94820A8E3E09F024
:1029F00086C089E80E94820A682F616089E80E9487
:102A0000A80960E088E80E94A80961E080E80E94C7
:102A1000A80961E08FEF0E94A80960E080E00E94B1
:102A2000A80981E90E94820A8093AA0361E080E0FC
:102A30000E94A80960E08FEF0E94A80960E080E88A
:102A40000E94A80980E60E94820A682F626180E6DF
:102A50000E94A80960E270E084E40E94D1096FEF4F
:102A600081E00E94A80961E080E80E94A80961E075
:102A70008FEF0E94A80960E080E00E94A80966E04C
:102A80008FEF0E94A80983E80E94820A682F646081
:102A900083E80E94A80967E08FEF0E94A80961E01F
:102AA00081E80E94A80961E080E80E94A8096BE61D
:102AB00084E90E94A80960E083E80E94A8090E94B6
:102AC000D2057093A9036093A80383E80E94820A49
:102AD0008111A6C08091A5039091A603892BA9F32B
:102AE0000E94D2052091A8033091A903621B730BA9
:102AF0008091A5039091A6038617970730F785E983
:102B000091E00E94500F02C48BEB98E0CACE19826C
:102B100081E08A8300E026E142E062E070E0CE01DD
:102B200001960E94620D43E060E78091AF030E942E
:102B3000330A40E061E78091AF030E94330A20E04E
:102B400040E060E08091AF030E94B60C42E06FE18C
:102B50008091AF030E94330A4CE961E28091AF0398
:102B60000E94330A40E560E28091AF030E94330A7D
:102B700040E062E28091AF030E94330A21E046E028
:102B80006AE68091AF030E94B60C21E043E06AE65A
:102B90008091AF030E94B60C20E047E06AE6809186
:102BA000AF030E94B60C8AE290E09093C103809339
:102BB000C00321E042E06AE68091AF030E94B60CB8
:102BC0000E94E90C109226028BEA98E00E945E0FA8
:102BD00021E047E06AE68091AF030E94B60C8CE6E4
:102BE00098E00E945E0F8EED95E090930101809336
:102BF000000180916900836080936900E89A0E94D7
:102C0000E90C80937B0282E498E00E945E0F809141
:102C1000C0039091C1039093780280937702D9CE3C
:102C200061E083E80E94A80982E90E94820A182FC5
:102C30001F77D82EDD1CDD24DD1C60E081E80E94BA
:102C4000A80966E08FEF0E94A80983E80E94820A23
:102C5000682F6B7F83E80E94A80961E08FEF0E94D4
:102C6000A80961E080E00E94A80960E08FEF0E945F
:102C7000A80960E080E80E94A8098091A4030E944E
:102C8000D7048091A2039091A303DC01ED91FC9104
:102C90000190F081E02D60EB09958091A203909165
:102CA000A3030E94C1088093A10366E08091A4035E
:102CB0000E94730710928B0280938A027E01B7E113
:102CC000EB0EF11C570107E0015079F08091A2034F
:102CD0009091A303DC01ED91FC910284F385E02D3A
:102CE0000995F50181935F01EFCF61E08FEF0E94BD
:102CF000A80960E08FE40E94A8096CE28EE40E94BB
:102D0000A80960E08FEF0E94A80964EB86EB0E949F
:102D1000A8090CE0D11001C000E090E080E0E1E003
:102D2000F0E0482F46954695469550E09701240FD0
:102D3000351FD9012C91682F6770801710F0191377
:102D400032C04E0D5F1DDF0102C0AA0FBB1F6A9586
:102D5000E2F7BD0160952623DA012C938F5F803363
:102D600001F78091A4030E94D7048091A20390915F
:102D7000A303DC01ED91FC910190F081E02D60EB6B
:102D8000099517E08091A2039091A3031150A9F037
:102D9000F70161917F01DC01ED91FC910190F081DF
:102DA000E02D0995EFCF30E002C0359527956A9563
:102DB000E2F720FFD3CF9F5FD1CF0E94C10880935D
:102DC000A10361E08FEF0E94A80960E080E00E940B
:102DD000A80960E08FEF0E94A80960E089E00E94E6
:102DE000A80960E080E10E94A80960E081E10E94FA
:102DF000A80961E084E20E94A8096FEF85E20E94C1
:102E0000A80960E085E70E94A80961E08FEF0E94B1
:102E1000A8096CE28EE40E94A80960E088E40E94A0
:102E2000A80960E280E30E94A80960E08FEF0E9499
:102E3000A80969E080E30E94A80960E084E50E9497
:102E4000A80964E081E30E94A80963E082E30E948C
:102E5000A80963E880E40E94A80965E286E40E946C
:102E6000A80960E080E60E94A80960E087E20E946D
:102E7000A80966E080E50E94A80960E081E50E945B
:102E8000A80966E982E50E94A80968E086E50E9433
:102E9000A80960E387E50E94A80960E081E60E9436
:102EA000A80960E082E60E94A80960E084E60E942A
:102EB000A80960E085E60E94A80960EA86E60E940B
:102EC000A80961E08FEF0E94A80962E382E20E94F4
:102ED000A80964E187E40E94A8096FEF89E40E94D1
:102EE000A80960E08AE40E94A80960E08FEF0E94D0
:102EF000A8096AE08AE70E94A80960E08BE70E94BF
:102F0000A80961E288E70E94A80961E08FEF0E94AA
:102F1000A80964E383E20E94A80960E082E40E94B9
:102F2000A8096FEF84E40E94A80966E285E40E9484
:102F3000A80965E086E40E94A80960E480E40E9494
:102F4000A80966E08EE00E94A8096AE180E20E947A
:102F5000A80960E483E40E94A80960E08FEF0E9462
:102F6000A80963E084E30E94A80964E485E30E9461
:102F7000A80961E08FEF0E94A80964E081E30E9444
:102F8000A80969E08BE40E94A80965E08CE40E942E
:102F9000A80964E08DE40E94A80960E08FEF0E9418
:102FA000A80960E084E40E94A80960E285E40E9428
:102FB000A80968E087E40E94A80968E288E40E9402
:102FC000A80960E087E60E94A80964E080E70E9403
:102FD000A80961E081E70E94A8096EEF82E70E94DC
:102FE000A80960E086E70E94A80960E087E70E94E0
:102FF000A80961E08FEF0E94A80961E08DE00E94BE
:10300000A80960E08FEF0E94A80961E080E80E94B3
:10301000A80968EF81E00E94A80961E08FEF0E9493
:10302000A80961E08EE80E94A80961E080E00E94A2
:10303000A80960E08FEF0E94A80960E080E80E9484
:10304000A80964E08AE00E94A80984E80E94820A34
:10305000682F6F7E84E80E94A80961E08BE00E94DF
:10306000A809CE014D960E94AF0ABE016F5F7F4F47
:10307000CE014D960E94500B8D8D882309F4FBC024
:103080008B859C85AD85BE858C57924FAF4FBF4FCA
:103090002F8D222309F4F4C04B855C856D857E85D8
:1030A0004E545D4F6F4F7F4F440F551F661F771F64
:1030B000840F951FA61FB71F28A1222361F04F85FB
:1030C000588969897A894C565D4F6F4F7F4F840FBD
:1030D000951FA61FB71F29A1222361F04B895C8988
:1030E0006D897E894A5D5D4F6F4F7F4F840F951FBD
:1030F000A61FB71F8093AB039093AC03A093AD03BF
:10310000B093AE0368EE81E00E94A809C090AB03C3
:10311000D090AC03E090AD03F090AE03B0E2CB16DC
:10312000BEE4DB06E104F10408F4D8C0CE014D96FC
:103130000E94AF0ABE016F5F7F4FCE014D960E9485
:10314000500B8D8D882309F4A8C08B859C85AD8597
:10315000BE858C57924FAF4FBF4F2F8D222309F45E
:10316000A1C04B855C856D857E854E545D4F6F4F4C
:103170007F4F440F551F661F771F840F951FA61F93
:10318000B71F18A1112361F04F85588969897A8981
:103190004C565D4F6F4F7F4F840F951FA61FB71F73
:1031A00029A1222309F49AC02C013D01E6E24E0E2A
:1031B000E2E05E1E611C711CC414D504E604F70431
:1031C00008F48CC0AB81B0E020E03FE24AE350E07D
:1031D0000E94A21C4B015C01F4EF8F0EF1E09F1ED8
:1031E000A11CB11CA70196012419350946095709EC
:1031F000A8EEB3E00E94A21C2B013C01C501B40162
:1032000020ED37E040E050E00E94B51C420E531E16
:10321000641E751EC501B40128EE33E040E050E0A5
:103220000E94B51CC301B2010E94B51C112331F0EC
:103230008F819885280F391F411D511D70E060E076
:103240002115310541055105F1F189019A0101501E
:1032500011092109310970E060E0D901C80188270E
:10326000892B8A2B8B2B59F1369527951795079526
:103270006F5F7F4FF2CF86E39BE0A0E0B0E008CF26
:103280002E8D222309F418CF4B855C856D857E85B4
:103290004C565D4F6F4F7F4F0BCF86E39BE0A0E016
:1032A000B0E05BCF2E8D222309F46BCF4B855C857C
:1032B0006D857E854C565D4F6F4F7F4F5ECF762F6D
:1032C0006627602B712B81E70E94D109C092AB0366
:1032D000D092AC03E092AD03F092AE0361E081E0E6
:1032E0000E94A80980E40E94CC0A882309F407CC34
:1032F00062E081E00E94A80980E00E94CC0A882355
:1033000009F4FDCB68EE81E00E94A80980E0282E38
:1033100080E0382E109280020E94E90C182F8093D2
:103320007B020E94FE0C90937A028093790214FD36
:1033300003C08115944081F521E042E06AE6809166
:10334000AF030E94B60C80918002882379F06091CF
:103350007C0270917D0280917E0290917F0242E01A
:103360000E94740E8BE391E00E94230E83E00E9482
:10337000FD0A89E00E94FD0A8AE00E94FD0A8BE0B6
:103380000E94FD0A2114310429F20E944F0688236D
:1033900009F20E940000BECF11FFD5CFE090790264
:1033A000F0907A02C0907702D0907802EC14FD047D
:1033B00038F40E94FE0C90937A0280937902EECF4B
:1033C000CC2009F48EC208EE13E027E332E04C2D46
:1033D00064E78091AF030E940F0CEC18FD08F09297
:1033E0007A02E092790260903B0270903C0276246F
:1033F0006724762480903F0290904002982489248C
:103400009824A0904302B0904402BA24AB24BA247A
:103410006091370270913802762767277627072E4A
:10342000000C880B990B0E94731E20E030E040E8EE
:1034300058E30E94571F6B017C01C0929103D09208
:103440009203E0929303F0929403B301770C880BFC
:10345000990B0E94731E20E030E040E858E30E9480
:10346000571F2B013C0140929503509296036092A6
:10347000970370929803B401990C880B990B0E94E2
:10348000731E20E030E040E858E30E94571F6AA313
:103490007BA38CA39DA36093990370939A0380935D
:1034A0009B0390939C03B501BB0C880B990B0E9466
:1034B000731E20E030E040E858E30E94571F6EA3DF
:1034C0007FA388A799A760939D0370939E03809321
:1034D0009F039093A0039B01AC01C301B2010E9422
:1034E000571F4B015C012AA13BA14CA15DA1C70163
:1034F000B6010E94571F9B01AC01C501B4010E9497
:10350000EC1C9B01AC010E94ED1C6AAB7BAB8CAB4D
:103510009DAB60938503709386038093870390939C
:103520008803A3019201C701B6010E94571F4B01F6
:103530005C012EA13FA148A559A56AA17BA18CA140
:103540009DA10E94571F9B01AC01C501B4010E94BF
:10355000ED1C9B01AC010E94ED1C6EA77FA788AB00
:1035600099AB6093890370938A0380938B03909344
:103570008C03A7019601C701B6010E94571F4B019A
:103580005C01A3019201C301B2010E94571F9B017C
:10359000AC01C501B4010E94EC1C4B015C012AA1E5
:1035A0003BA14CA15DA1CA01B9010E94571F9B011B
:1035B000AC01C501B4010E94EC1C4B015C012EA1C1
:1035C0003FA148A559A5CA01B9010E94571F9B01F7
:1035D000AC01C501B4010E94ED1C6AA77BA78CA7B2
:1035E0009DA760938D0370938E0380938F039093B8
:1035F0009003A7019601C701B6010E94ED1C4B0183
:103600005C01A3019201C301B2010E94ED1C6EABEB
:103610007FAB88AF99AFA7019601C501B4010E94A5
:10362000571F6B017C01A30192016EA97FA988AD90
:1036300099AD0E94571F9B01AC01C701B6010E94C2
:10364000ED1C20E030E040E85FE30E94EC1C6B01E1
:103650007C012AA13BA14CA15DA16EA97FA988ADE7
:1036600099AD0E94571F2B013C012EA13FA148A5F7
:1036700059A5C501B4010E94571F9B01AC01C301AC
:10368000B2010E94EC1CA70196010E946C1D2B0147
:103690003C0140922B0250922C0260922D027092BB
:1036A0002E022EA53FA548A959A9CA01B9010E9419
:1036B000571F6B017C012AA53BA54CA55DA5CA013E
:1036C000B9010E94571F9B01AC01C701B6010E94BE
:1036D000ED1C0E94CA1F9B01AC016AA97BA98CA9A1
:1036E0009DA90E946C1D6B017C01C0922F02D0929B
:1036F0003002E0923102F09232022AA53BA54CA59D
:103700005DA56EA57FA588A999A90E946C1D4B0196
:103710005C018092330290923402A0923502B09202
:10372000360220E030E0A9016AA57BA58CA59DA505
:103730000E94CB1D87FF1AC020E030E0A901C7011D
:10374000B6010E944A1FA701960118160CF0CCC0C2
:103750006BED7FE089E490E40E94EC1C60932F0203
:103760007093300280933102909332022DEC3CEC46
:103770004CE05FE3C301B2010E94ED1C20E030E0A9
:1037800044E353E40E94571F2BED3FE049E450E42B
:103790000E94D01D60937C0270937D0280937E0214
:1037A00090937F022FE832EC45EF5CE360912F02AB
:1037B0007091300280913102909132020E94ED1C92
:1037C00020E030E044E353E40E94571F2BED3FE03C
:1037D00049E450E40E94D01D6093CA037093CB0368
:1037E0008093CC039093CD032AE037ED43E25CE372
:1037F000C501B4010E94EC1C20E030E044E353E436
:103800000E94571F2BED3FE049E450E40E94D01D79
:10381000609312047093130480931404909315041E
:103820000E94E104BC01990F880B990B0E94731E42
:1038300020E030EC4FE754E40E94D01D24EA30E74A
:1038400045ED50E40E94571F6093270270932802B1
:103850008093290290932A0261E080E80E94A809DF
:1038600061E08FEF0E94A80960E080E00E94A80953
:103870006091AA0381E90E94A80961E080E00E94AA
:10388000A80960E08FEF0E94A80960E080E80E942C
:10389000A80961E080E00E94A8090E94D205709307
:1038A000A9036093A80380E00E94820A80FF21C0E0
:1038B0008091A5039091A603892BA9F30E94D205BC
:1038C0002091A8033091A903621B730B8091A5037B
:1038D0009091A6038617970730F781E08093A7039E
:1038E00032CD1092370279CD6BED7FE089E490EC18
:1038F00033CF0E94D2057093A9036093A80383E19C
:103900000E94820A8770B1F48091A5039091A6036A
:10391000892BA9F30E94D2052091A8033091A90315
:10392000621B730B8091A5039091A60386179707DE
:1039300030F7D3CF8EE10E94460A61E08BE00E940F
:10394000A80901CD0E94D71CA59F900DB49F900D92
:10395000A49F800D911D11240895B7FF0C94A21C03
:103960000E94A21C821B930B0895A1E21A2EAA1B8F
:10397000BB1BFD010DC0AA1FBB1FEE1FFF1FA2171F
:10398000B307E407F50720F0A21BB30BE40BF50B1C
:10399000661F771F881F991F1A9469F760957095A5
:1039A000809590959B01AC01BD01CF010895A29F28
:1039B000B001B39FC001A39F700D811D1124911D03
:1039C000B29F700D811D1124911D0895EE0FFF1FF0
:1039D0000590F491E02D09945058BB27AA270E9426
:1039E000041D0C94101F0E94021F38F00E94091F32
:1039F00020F039F49F3F19F426F40C94D81E0EF4ED
:103A0000E095E7FB0C94D21EE92F0E94211F58F38A
:103A1000BA17620773078407950720F079F4A6F5B3
:103A20000C94431F0EF4E0950B2EBA2FA02D0B0122
:103A3000B90190010C01CA01A0011124FF27591BF3
:103A400099F0593F50F4503E68F11A16F040A22FF9
:103A5000232F342F4427585FF3CF4695379527956A
:103A6000A795F0405395C9F77EF41F16BA0B620B69
:103A7000730B840BBAF09150A1F0FF0FBB1F661FB0
:103A8000771F881FC2F70EC0BA0F621F731F841FF3
:103A900048F4879577956795B795F7959E3F08F019
:103AA000B0CF9395880F08F09927EE0F97958795DB
:103AB00008950E94021F60F080E891E009F49EEFF3
:103AC0000E94091F28F040E851E071F45EEF0CC03D
:103AD0000C94D81E0C94431FE92FE0780E94211FFC
:103AE00040F3092E052AB1F326173707480759076F
:103AF00038F00E2E07F8E02569F0E025E0640AC0F2
:103B0000EF6307F8009407FADB01B9019D01DC01BE
:103B1000CA01AD01EF930E94E71D0E94101F0E9491
:103B20009C1D5F91552339F02BED3FE049E450FD9A
:103B300049EC0C94ED1C0895DF93DD27B92FBF7776
:103B400040E85FE31616170648075B0718F4D92FFD
:103B50000E944F1F9F938F937F936F930E940A2021
:103B6000E8E6F0E00E94DB1E0E94101F2F913F91BB
:103B70004F915F910E946A1FDD2351F09058A2EA95
:103B80002AED3FE049EC5FE3D0785D270E94041DF9
:103B9000DF910C94101F0E94AE1E08F481E008957E
:103BA0000E94E41D0C94101F0E94091F58F00E94EF
:103BB000021F40F029F45F3F29F00C94D21E5111EE
:103BC0000C94441F0C94D81E0E94211F68F3992363
:103BD000B1F3552391F3951B550BBB27AA27621709
:103BE0007307840738F09F5F5F4F220F331F441F16
:103BF000AA1FA9F335D00E2E3AF0E0E832D091504A
:103C00005040E695001CCAF72BD0FE2F29D0660F36
:103C1000771F881FBB1F261737074807AB07B0E879
:103C200009F0BB0B802DBF01FF2793585F4F3AF07F
:103C30009E3F510578F00C94D21E0C94441F5F3FB8
:103C4000E4F3983ED4F3869577956795B795F79505
:103C50009F5FC9F7880F911D9695879597F90895ED
:103C6000E1E0660F771F881FBB1F62177307840789
:103C7000BA0720F0621B730B840BBA0BEE1F88F798
:103C8000E09508950E94291F88F09F5798F0B92F5A
:103C90009927B751B0F0E1F0660F771F881F991F81
:103CA0001AF0BA95C9F714C0B13091F00E94431FC1
:103CB000B1E008950C94431F672F782F8827B85FD1
:103CC00039F0B93FCCF3869577956795B395D9F7D9
:103CD0003EF490958095709561957F4F8F4F9F4FE3
:103CE0000895E89409C097FB3EF4909580957095EF
:103CF00061957F4F8F4F9F4F9923A9F0F92F96E938
:103D0000BB279395F695879577956795B795F111AC
:103D1000F8CFFAF4BB0F11F460FF1BC06F5F7F4F49
:103D20008F4F9F4F16C0882311F096E911C077235B
:103D300021F09EE8872F762F05C0662371F096E864
:103D4000862F70E060E02AF09A95660F771F881F33
:103D5000DAF7880F9695879597F90895990F0008D7
:103D6000550FAA0BE0E8FEEF16161706E807F9074D
:103D7000C0F012161306E407F50798F0621B730BE8
:103D8000840B950B39F40A2661F0232B242B252B69
:103D900021F408950A2609F4A140A6958FEF811D0C
:103DA000811D089597F99F6780E870E060E00895AD
:103DB0009FEF80EC0895DF93CF931F930F93FF92B3
:103DC000EF92DF927B018C01689406C0DA2EEF013E
:103DD0000E946A1FFE01E894A591259135914591B5
:103DE0005591A6F3EF010E94041DFE019701A80161
:103DF000DA9469F7DF90EF90FF900F911F91CF91C8
:103E0000DF91089500240A9416161706180609066D
:103E1000089500240A941216130614060506089540
:103E2000092E0394000C11F4882352F0BB0F40F4C8
:103E3000BF2B11F460FF04C06F5F7F4F8F4F9F4F08
:103E4000089557FD9058440F551F59F05F3F71F08A
:103E50004795880F97FB991F61F09F3F79F08795F1
:103E60000895121613061406551FF2CF4695F1DF7A
:103E700008C0161617061806991FF1CF869571050A
:103E8000610508940895E894BB2766277727CB013E
:103E900097F908950E94AE1E08F48FEF08959B01D4
:103EA000AC0160E070E080E89FE30C94D01D0E94BC
:103EB0006A1F0C94101F0E94021F38F00E94091FF5
:103EC00020F0952311F00C94D21E0C94D81E1124CE
:103ED0000C94441F0E94211F70F3959FC1F3950F0E
:103EE00050E0551F629FF001729FBB27F00DB11D7E
:103EF000639FAA27F00DB11DAA1F649F6627B00D0E
:103F0000A11D661F829F2227B00DA11D621F739FF6
:103F1000B00DA11D621F839FA00D611D221F749F04
:103F20003327A00D611D231F849F600D211D822F4B
:103F3000762F6A2F11249F5750409AF0F1F0882372
:103F40004AF0EE0FFF1FBB1F661F771F881F91509F
:103F50005040A9F79E3F510580F00C94D21E0C945E
:103F6000441F5F3FE4F3983ED4F3869577956795B9
:103F7000B795F795E7959F5FC1F7FE2B880F911DC9
:103F80009695879597F9089519F416F40C94D81E10
:103F90000C9413200E94291FB8F39923C9F3B6F398
:103FA0009F57550B87FF0E9421200024A0E640EA7E
:103FB000900180585695979528F4805C660F771F7E
:103FC000881F20F026173707480730F4621B730B51
:103FD000840B202931294A2BA69517940794202574
:103FE00031254A2758F7660F771F881F20F02617BC
:103FF0003707480730F4620B730B840B200D311D1B
:10400000411DA09581F7B901842F9158880F96958D
:10401000879508959B01AC010C94571F0E94AE1E1A
:10402000880B990B08959F3F31F0915020F48795AC
:1040300077956795B795880F911D9695879597F910
:10404000089591505040660F771F881FD2F708954A
:104050000F931F93CF93DF938230910510F482E08A
:1040600090E0E0915404F091550430E020E0B0E09D
:10407000A0E0309799F42115310509F44AC0281BB6
:10408000390B24303105D8F58A819B816115710582
:1040900089F1FB0193838283FE0111C0408151812C
:1040A0000281138148175907E0F04817590799F41E
:1040B000109761F012960C93129713961C933296F8
:1040C000CF01DF91CF911F910F9108950093540478
:1040D00010935504F4CF2115310551F042175307C1
:1040E00038F0A901DB019A01BD01DF01F801C1CF60
:1040F000EF01F9CF9093550480935404CDCFFE0186
:10410000E20FF31F81939193225031093983288361
:10411000D7CF2091520430915304232B41F42091A6
:1041200007013091080130935304209352042091E9
:104130000501309106012115310541F42DB73EB737
:104140004091090150910A01241B350BE091520462
:10415000F0915304E217F307A0F42E1B3F0B28172E
:10416000390778F0AC014E5F5F4F2417350748F0F0
:104170004E0F5F1F509353044093520481939193C9
:104180009FCFF0E0E0E09CCFCF93DF930097E9F082
:10419000FC01329713821282A0915404B09155040D
:1041A000ED0130E020E01097A1F420813181820FF1
:1041B000931F20915204309153042817390709F0B6
:1041C00061C0F0935304E0935204DF91CF910895BE
:1041D000EA01CE17DF07E8F54A815B819E014115B0
:1041E0005105B1F7E901FB83EA8349915991C40F65
:1041F000D51FEC17FD0761F4808191810296840F31
:10420000951FE90199838883828193819B838A83A7
:10421000F0E0E0E012968D919C9113970097B9F52C
:104220002D913C911197CD010296820F931F209101
:104230005204309153042817390739F6309751F555
:104240001092550410925404B0935304A093520456
:10425000BCCFD383C28340815181840F951FC8177F
:10426000D90761F44E5F5F4F88819981480F591FCC
:10427000518340838A819B819383828321153105F9
:1042800009F0B0CFF0935504E09354049ECFFD01A4
:10429000DC01C0CF13821282D7CFFB01DC0104C046
:1042A0008D910190801921F441505040C8F7881B2E
:0842B000990B0895F894FFCF6B
:1042B800E405E405010000560480000000000085C4
:1042C80006E5051206ED0643062106350600000040
:1042D8000092086508430A4208F704520843086E2A
:1042E800616E00696E66006F7666000D0A00494EC1
:1042F800495449414C495A494E47004261747465D2
:104308007279206C6576656C00496E697469616CB8
:10431800697A696E67204932432064657669636506
:10432800732E2E2E00200054657374696E67206406
:10433800657669636520636F6E6E656374696F6E19
:10434800732E2E2E004661696C656420746F20649C
:10435800657465637420616E6420696E697469614F
:0E4368006C697A652073656E736F72210000B8
:00000001FF
