:100000000C9451040C9489130C9462130C940814EE
:100010000C9408140C9408140C9479040C9479042E
:100020000C9479040C9479040C9479040C9479045C
:100030000C9479040C9479040C9479040C9479044C
:100040000C9418130C9479040C94D6130C94B013DC
:100050000C9479040C9479040C9479040C9479042C
:100060000C9480140C947904084AD73B3BCE016E63
:1000700084BCBFFDC12F3D6C74319ABD56833DDAFF
:100080003D00C77F11BED9E4BB4C3E916BAAAABE0E
:10009000000000803F00FB00003E000B0036000126
:1000A00000020003000000650054FFEF0000FA802A
:1000B000000B12820001000200000000000000009E
:1000C00000000000000000280000FFFF4581FFFF46
:1000D000FA7200000000000003E8000000010001C7
:1000E0007FFFFFFE8001001B0000000000000000F9
:1000F000000000000000004000004000000002CBB3
:1001000047A2200000002000000000000000400086
:1001100000006000000041FF000000000B2A00000A
:10012000165500002182FD872650FD800000001F2B
:100130000000000580000000000000010000000237
:10014000000000030000400000000000046F0002F7
:10015000653200005EC040000000000000000000AA
:10016000000000000000FB8C6F5DFD5D08D9007C85
:10017000733B006C12CC3200139D3200D0D632009B
:100180000800400001F4FFE6807902000000000052
:10019000D0D600002710FB00000040000000000047
:1001A000000000000000000000010000000000004E
:1001B0000100010000000000FA36FFBC308E00058F
:1001C000FBF0FFD95BC8FFD09ABE000010A9FFF476
:1001D0001EB200CEBBF700000001000000040002C8
:1001E00000020200000CFFC280000001800000CF6E
:1001F000800040000000000000000000000000003F
:1002000006000000001400000000000000000000D4
:1002100000000000000000000000000000000000DE
:100220000000000000000923A135000000000000CC
:1002300000000000000000000000033F68B67935B0
:1002400028BCC67ED16C8000FFFF4000000000008B
:10025000B26A000000000000000000000000000082
:100260003FF000000030000000000000000000002F
:10027000000000000000000000000000000000007E
:100280000000000040000000254D002F706D0000B0
:1002900005AE000C02D00000000000650054FFEF26
:1002A0000000000000000000010000440001000503
:1002B0008BC1000001000000000000650000005438
:1002C0000000FFEF00000000000000000000000040
:1002D000000000000000000000000000000000001E
:1002E000000000000000000000000000000000000E
:1002F00000000000000000000001000000020000FB
:1003000000000000000000000000000000000000ED
:1003100000000000000000000000000000000000DD
:10032000000000000000001B0000000000000000B2
:1003300000000000000000000000000000000000BD
:1003400000000000000000000000000000000000AD
:10035000000000000000001B000000000000000082
:10036000000000000000000000000000000000008D
:10037000000000000000000000000000000000007D
:10038000000000000000000000000000000000006D
:10039000000000000000D8DCBAA2F1DEB2B8B4A8B8
:1003A0008191F74A907F916AF3F9DBA8F9B0BAA07E
:1003B00080F2CE81F3C2F1C1F2C3F3CCA2B280F1DC
:1003C000C6D880BAA7DFDFDFF2A7C3CBC5B6F087F8
:1003D000A2942448703C95406834589B78A2F183DD
:1003E000922D557DD8B1B4B8A1D09180F270F37040
:1003F000F27C80A8F101B09887D943D886C988BA21
:10040000A1F20EB89780F1A9DFDFDFAADFDFDFF20C
:10041000AA4CCD6CA90CC92C97979797F1A989265E
:100420004666B0B4BA80ACDEF2CAF1B28C02A9B6AC
:100430009800890E161EB8A9B4992C547CB08AA8CD
:1004400096365676F1B9AFB4B083C0B8A89711B15B
:100450008F98B9AFF0240844106418F1A329557D92
:10046000AF83B593AFF0002850F1A3869F61A6DA61
:10047000DEDFD9FAA38696DB31A6D9F8DFBAA68FDC
:10048000C2C5C7B28CC1B8A2DFDFDFA3DFDFDFD810
:10049000D8F1B8A8B286B4980D355DB8AA98B087DF
:1004A0002D353DB2B6BAAF8C96198F9FA70E161E8A
:1004B000B49AB8AA872C547CB9A3DEDFDFA3B1803D
:1004C000F2C4CDC9F1B8A9B499830D355D89B9A33A
:1004D0002D557DB593A30E161EA92C547CB8B4B02F
:1004E000F19783A81184A50998A383F0DA2408441E
:1004F000106418D8F1A529557DA58595021A2E3AC4
:10050000565A4048F9F3A3D9F8F0988324084410C8
:1005100064189782A8F111F098A224084410641876
:10052000DAF3DED883A59401D9A302F1A2C3C5C72B
:10053000D8F18492A24DDA2AD84869D92AD86855C8
:10054000DA32D85071D932D8705DDA3AD85879D9C0
:100550003AD87893A34DDA2AD84869D92AD8685569
:10056000DA32D85071D932D8705DDA3AD85879D9A0
:100570003AD878A88A9AF02850789EF38818F19F84
:100580001D98A8D908D8C89F129EF315A8DA121092
:10059000D8F1AFC8978734B5B994A421F3D922D83C
:1005A000F22DF3D92AD8F235F3D932D881A460607C
:1005B00061D961D86C6869D969D8747071D971D8FA
:1005C000B1A384193D5DA3831A3E5E931030811060
:1005D00011B8B0AF8F94F2DA3ED8B49AA88729DA6E
:1005E000F8D8879A35DAF8D8879A3DDAF8D8B1B9C9
:1005F000A49885022E56A581000C14A397B08AF109
:100600002DD928D84DD948D86DD968D8B1840DDAFC
:100610000ED8A32983DA2C0ED8A3844983DA2C4C74
:100620000ED8B8B0A88A9AF520AADADFD8A840AACE
:10063000D0DADED8A860AADAD0DFD8F19786A83160
:100640009B069907AB9728889BF00C201440B8B004
:10065000B4A88C9CF0042851791D301438B282ABB8
:10066000D0982C505078789BF11AB0F08A9CA82929
:1006700051798B2951798A2470598B2058718A4479
:1006800069388B3940688A6448318B304960A58865
:10069000200971584468113964493019F1AC002CB3
:1006A000547CF08CA804285078F1889726A8599893
:1006B000AC8C02264666F0899CA829517924705991
:1006C000446938644831A98809205970AB11384011
:1006D00069A8193148608CA83C415C207C00F187F6
:1006E000981986A86E767EA999882D557D9EB9A306
:1006F0008A228A6E8A568A5E9FB183062646660ED5
:100700002E4E6E9DB8AD002C547CF2B18CB499B9CC
:10071000A32D557D8191AC38AD3AB58391AC2DD9DF
:1007200028D84DD948D86DD968D88C9DAE29D90420
:10073000AED851D904AED879D904D881F39DAD0093
:100740008DAE1981ADD901D8F2AEDA26D88E9129B5
:1007500083A7D9ADADADADF32AD8D8F1B0AC8991AE
:100760003E5E76F3AC2E2EF1B18C5A9CAC2C282830
:10077000289CAC3018A8988128343C9724A72834AA
:100780003C9C24F2B089AC912C4C6C8A9B2DD9D81E
:10079000D851D9D8D879D9D8D8F19E88A331DAD808
:1007A000D8912DD928D84DD948D86DD968D8B183DA
:1007B00093353D8025DAD8D88569DAD8D8B49381C5
:1007C000A328343CF3AB8BF8A391B609B4D9ABDEC4
:1007D000FAB0879CB9A3DDF1202830389AF128308F
:1007E000389DF1A3A3A3A3F2A3B49080F2A3A3A383
:1007F000A3A3A3A3A3A3A3B2A3A3A3A3A3A3B087C9
:10080000B599F128303898F1A3A3A3A397A3A3A384
:10081000A3F39BA330DCB9A7F1262626FED8FFFF61
:10082000000001001E000B0D004282291A14100264
:100830001A81002A151203114D6F746F72205370C4
:100840006565640000000000240027002A00000005
:10085000000800020100000304070000000000007F
:100860000000000000002300260029000000000016
:10087000250028002B0004040404040404040202DC
:10088000020202020303030303030102040810200F
:1008900040800102040810200102040810209F1566
:1008A000F11D11241FBECFEFD8E0DEBFCDBF11E098
:1008B000A0E0B1E0E0EBF5E402C005900D92AE39A6
:1008C000B107D9F724E0AEE9B1E001C01D92A63925
:1008D000B207E1F714E0C0E5D4E004C02197FE01BF
:1008E0000E94571ECF34D107C9F70E94E9160C9415
:1008F000CB220C940000CF92DF92EF92FF926B011B
:100900007C01E0911B03F0911C0382E08083C11401
:1009100081EED806E104F104A1F060E079E08DE316
:1009200090E0A70196010E940D1E21503109410956
:1009300051095695479537952795211580E1380738
:10094000A8F0E0911B03F0911C03108260E874E8AA
:100950008EE190E0A70196010E940D1E2150310901
:10096000410951095695479537952795E091170309
:10097000F09118033083E0911903F0911A0320835A
:1009800010922303E0911F03F091200386E08083FF
:10099000E0911D03F0911E03808180618083E091CE
:1009A0001D03F0911E03808188608083E0911D0308
:1009B000F0911E03808180688083E0911D03F09197
:1009C0001E0380818F7D8083FF90EF90DF90CF901A
:1009D00008958091BA029091B902891B990B0895EC
:1009E00090E0FC01E25BF74F2491FC01E657F74FE2
:1009F0003491FC01EA58F74FE491EE23C9F0222329
:100A000039F0233001F1A8F4213019F1223029F115
:100A1000F0E0EE0FFF1FE459F74FA591B4918FB7A7
:100A2000F894EC91611126C030953E233C938FBF22
:100A300008952730A9F02830C9F0243049F7809173
:100A400080008F7D03C0809180008F77809380002D
:100A5000DFCF84B58F7784BDDBCF84B58F7DFBCFAF
:100A60008091B0008F778093B000D2CF8091B0009A
:100A70008F7DF9CF3E2BDACFCF93DF9390E0FC014F
:100A8000E657F74F24918A58974FFC0184918823A9
:100A9000D1F090E0880F991FFC01EC5BF74FA59116
:100AA000B491FC01E459F74FC591D49161110EC086
:100AB0009FB7F8948C91E22FE0958E238C93288138
:100AC000E223E8839FBFDF91CF9108958FB7F89419
:100AD000EC91E22BEC938FBFF6CF1F93CF93DF9374
:100AE000182FEB0161E00E943C05209739F460E08B
:100AF000812FDF91CF911F910C94F004CF3FD1054E
:100B000011F461E0F5CFE12FF0E0E25BF74FE49103
:100B1000E33031F140F4E130B1F0E230E1F0C038DF
:100B2000D1057CF7E4CFE73029F1E83059F1E43022
:100B3000B1F780918000806280938000D0938B0019
:100B4000C0938A0004C084B5806884BDC7BDDF91AE
:100B5000CF911F91089584B5806284BDC8BDF7CF41
:100B600080918000806880938000D0938900C0933A
:100B70008800EDCF8091B00080688093B000C09372
:100B8000B300E5CF8091B00080628093B000C09345
:100B9000B400DDCF3FB7F894809195029091960212
:100BA000A0919702B091980226B5A89B05C02F3F4F
:100BB00019F00196A11DB11D3FBFBA2FA92F982F83
:100BC0008827BC01CD01620F711D811D911D42E07E
:100BD000660F771F881F991F4A95D1F708958F9246
:100BE0009F92AF92BF92CF92DF92EF92FF924B0112
:100BF0005C010E94CA056B017C010E94CA056C1948
:100C00007D098E099F09683E734081059105A8F30F
:100C100021E0821A9108A108B10888EEC80E83E08D
:100C2000D81EE11CF11C81149104A104B10429F720
:100C3000FF90EF90DF90CF90BF90AF909F908F90FC
:100C400008952FB7F894609191027091920280916B
:100C50009302909194022FBF089581E080938D02BA
:100C60000895089508950895AF92BF92CF92DF92AC
:100C7000EF92FF920F931F93CF93DF936C017B0151
:100C80008B01040F151FEB015E01AE18BF08C017E2
:100C9000D10759F06991D601ED91FC910190F08155
:100CA000E02DC6010995892B79F7C501DF91CF9118
:100CB0001F910F91FF90EF90DF90CF90BF90AF907A
:100CC0000895FC01538D448D252F30E0842F90E052
:100CD000821B930B541710F0CF9608950197089537
:100CE000FC01918D828D981761F0A28DAE0FBF2F00
:100CF000B11D5D968C91928D9F5F9F73928F90E056
:100D000008958FEF9FEF0895FC01918D828D9817C4
:100D100031F0828DE80FF11D858D90E008958FEF01
:100D20009FEF0895FC01918D228D892F90E0805CCA
:100D30009F4F821B91098F73992708958BE093E051
:100D40000E94920621E0892B09F420E0822F089569
:100D500080E090E0892B29F00E949E0681110C947E
:100D600000000895FC01A48DA80FB92FB11DA35A4E
:100D7000BF4F2C91848D90E001968F739927848FBB
:100D8000A689B7892C93A089B1898C9183708064DE
:100D90008C93938D848D981306C00288F389E02D7F
:100DA00080818F7D80830895EF92FF920F931F9330
:100DB000CF93DF93EC0181E0888F9B8D8C8D98130E
:100DC0001AC0E889F989808185FF15C09FB7F8941A
:100DD000EE89FF896083E889F98980818370806466
:100DE00080839FBF81E090E0DF91CF911F910F91B1
:100DF000FF90EF900895F62E0B8D10E00F5F1F4FC0
:100E00000F731127E02E8C8D8E110CC00FB607FCCE
:100E1000FACFE889F989808185FFF5CFCE010E945C
:100E2000B206F1CFEB8DEC0FFD2FF11DE35AFF4F12
:100E3000F0829FB7F8940B8FEA89FB8980818062EA
:100E4000CFCFCF93DF93EC01888D8823B9F0AA89A7
:100E5000BB89E889F9898C9185FD03C0808186FD75
:100E60000DC00FB607FCF7CF8C9185FFF2CF8081C4
:100E700085FFEDCFCE010E94B206E9CFDF91CF9181
:100E8000089520912402309125022817390771F422
:100E90009091230280912202981741F0E091230261
:100EA000F0E0EE51FE4F808190E008958FEF9FEFCC
:100EB00008950895EF92FF920F931F93CF93DF93BE
:100EC000DC015C96ED90FC905D97E114F10479F4FF
:100ED00081E090E013969C938E93129790E080E0CF
:100EE000DF91CF911F910F91FF90EF900895519650
:100EF000ED91FC91529750968C915097982F909528
:100F00000FB75E962C915E97122F127021FD60959F
:100F1000F8942081112319F1282B2083E7012197D0
:100F2000F1F728E0462F50E0308160FF1AC0382BDF
:100F30003083E7012197F1F7BA0175956795215044
:100F400089F7112381F08081892380830FBF5C960C
:100F50008D919C910197F1F781E090E0C1CF292319
:100F6000DCCF3923E5CF9081892BEFCF209124026C
:100F7000309125022817390771F4809122022091BF
:100F8000230290E0805C9F4F821B910960E470E037
:100F90000E942F1E089590E080E008952091240281
:100FA0003091250228173907B9F4909123028091D6
:100FB0002202981789F0E0912302F0E0EE51FE4FF3
:100FC00080812091230230E02F5F3F4F2F73332722
:100FD0002093230290E008958FEF9FEF08952091D2
:100FE000BF01260F3327331F21323105ECF4209146
:100FF000E102FC0190E080E0243069F082E0089595
:10100000A091BF012191AC0141565E4FA40FB52FB5
:10101000B11D2C930196861798F38091BF01680F3C
:101020006093BF0180E0089581E008951092E1028D
:1010300081E08093E0021092BB0261E082E10E94B5
:10104000F00461E083E10E94F004E9EBF0E08081CC
:101050008E7F808380818D7F808388E48093B80039
:1010600085E48093BC000895CF93DF9391E0909343
:101070009E018823B9F0C091B800D091BA00809148
:10108000BC008A7B8093BC0060E082E10E94F00497
:1010900060E083E10E94F0040E941608D093BA0039
:1010A000C093B800DF91CF9108958F929F92AF9235
:1010B000BF92CF92DF92EF92FF920F931F93CF9345
:1010C000DF93D0910A03D13208F0D7C0182FC09116
:1010D00009030E94CA056B017C018091E102811124
:1010E0006BC082E08093E1021093E0028FEF809367
:1010F000DF021092DE02D093DD02A9EEB2E0EDEB4A
:10110000F2E080E0D81391C01092BC028091BC0242
:10111000CC0FC82BC093BC028091BB02813009F078
:1011200088C01092BB020E94CA056B017C018091AD
:10113000BC028093BB008091E3029091E402A091F5
:10114000E502B091E602892B8A2B8B2BA1F00E943D
:10115000CA050091E3021091E4022091E50230916A
:10116000E6026C197D098E099F09061717072807E3
:10117000390708F442C08091BC0083FDD8CF85ECCC
:101180008093BC000E94CA056B017C018091E10242
:10119000823009F450C08091DF028F3F09F46FC0A4
:1011A0008091DF02803209F46CC08091DF028033CD
:1011B00009F469C084E026C08091E3029091E402C2
:1011C000A091E502B091E602892B8A2B8B2B09F4C2
:1011D00084CF0E94CA058090E3029090E402A09020
:1011E000E502B090E6026C197D098E099F0986160A
:1011F0009706A806B90608F070CF8091E2020E9417
:10120000340885E01092E80210920A031092E70277
:10121000DF91CF911F910F91FF90EF90DF90CF90D2
:10122000BF90AF909F908F9008959D9191938F5F05
:1012300069CF85EEA5CF8091E3029091E402A09161
:10124000E502B091E602892B8A2B8B2B09F49ECF05
:101250000E94CA050091E3021091E4022091E50288
:101260003091E6026C197D098E099F090617170750
:101270002807390708F08ACFC0CF81E0C3CF80E0CC
:10128000C1CF82E0BFCF83E0BDCFE091B9028091B2
:10129000BA02E81730F4F0E0E756FD4F808190E0A5
:1012A00008958FEF9FEF08959091B9028091BA024F
:1012B0002FEF3FEF981748F4E92FF0E0E756FD4F86
:1012C000208130E09F5F9093B902C9010895CF92C9
:1012D000DF92EF92FF920F931F93CF93DF937C01E6
:1012E000CB018A012091E702222389F0EB016B01F7
:1012F000C40ED51ECC15DD0569F06991D701ED91BD
:10130000FC910190F081E02DC7010995F3CF642F86
:101310000E94EF07C801DF91CF911F910F91FF90BD
:10132000EF90DF90CF900895CF93DF931F92CDB7CA
:10133000DEB769832091E7022223F9F020910A03A6
:10134000203258F021E030E0FC013383228390E02A
:1013500080E00F90DF91CF9108958091E802E82F0F
:10136000F0E0E751FD4F998190838F5F8093E80211
:1013700080930A0381E090E0ECCF61E0CE0101961A
:101380000E94EF07F7CFFF920F931F93CF93DF9346
:10139000042FF22E132F91E09093E702809309031C
:1013A0001092E80210920A0388EA93E00E949409DE
:1013B000CF2DD12F0C0F1D2F111DC017D10731F0CC
:1013C000699188EA93E00E949409F7CF81E00E9436
:1013D000550891E0811190E0892FDF91CF911F9105
:1013E0000F91FF900895CF93DF931F92CDB7DEB793
:1013F00049839E012F5F3F4F41E00E94C3090F9038
:10140000DF91CF91089590E080E00895FC01808104
:10141000918186279183808328E040815181CA0190
:101420009695879540FF04C031E0832730EA9327E3
:1014300091838083215089F70895DC0114968D9162
:101440009C91DC01ED91FC910190F081E02D0994DB
:10145000CF93DF93EC018C819D81DC01ED91FC91B8
:101460000084F185E02D0995892BB9F08C819D814F
:10147000DC01ED91FC910284F385E02D0995AA81B0
:10148000BB81109741F3ED91FC9111970190F08190
:10149000E02D682FCD010995DECFDF91CF91089522
:1014A000CB01DB01ED91FC910190F081E02D0994DD
:1014B000CF93DF93FC018189811116C084819581CE
:1014C00042855385EC01AB81BC8189859A858A0F61
:1014D0009B1FA817B90741F0EA013991AE012D9180
:1014E0003217B9F381E0818BDF91CF910895CF93CB
:1014F000DF93FC01118AC481D581AB81BC81028458
:10150000F385E02D89859A858E0F9F1FE817F907CF
:1015100019F02D912193FACFDF91CF910895AF92D9
:10152000BF92CF92DF92EF92FF920F931F93CF93D0
:10153000DF9300D000D0CDB7DEB7FC01A085B18528
:10154000109709F499C08B017C01FB0180818823ED
:1015500059F1D70152969C91992309F48DC0803896
:1015600009F49CC0803C09F4D5C0803409F07DC0EA
:10157000C7010E94770AD70118968D919C911997FF
:101580001496ED91FC912185328547815085240F79
:10159000351F43815481DC01ED91FC910680F78178
:1015A000E02D00E060E43CC0F701A480B580F501C7
:1015B00085819681FC012081FB0143815481452B6B
:1015C00089F5222309F43EC0F501C180D2808081D3
:1015D000853008F460C083E090E09C012F5F3F4FAE
:1015E0008E010F5F1F4F70E060E0A801F601E60F6B
:1015F000F71FB490F801B1928F016F5F7F4F6817AA
:101600007907A1F7640F751F80EFFB018083ED91CF
:10161000FC9111970680F781E02D00E060E0CD019C
:10162000099523C04181528121E0FC013191CF0114
:10163000FA016191AF01631320E03111F6CF22234B
:1016400009F4C2CFF5012385348541815281ED91A2
:10165000FC9111970680F781E02D01E060E0CD015B
:10166000099581E0D70152968C930E942106F701DB
:1016700064877587868797870F900F900F900F90DC
:10168000DF91CF911F910F91FF90EF90DF90CF905E
:10169000BF90AF90089582E090E09FCFC7010E9475
:1016A000580AF80183819481D7011496ED91FC9139
:1016B00015972185328582179307E1F451962C9175
:1016C000211118C0D80111964D915C910380F481CD
:1016D000E02DD7011A966D917C918E0F9F1FE81710
:1016E000F90741F0DA012D91AD012193DB012D9332
:1016F000BD01F5CFF70180859185DC01ED91FC916D
:101700000680F781E02D00E030E020E050E040E08E
:1017100060E886CFC7010E94580AF701818960EC12
:10172000811161ECD70118968D919C9119971496AF
:10173000ED91FC9127813085438154810184F285AC
:10174000E02D4E0F5F1FDC01ED91FC910680F781CB
:10175000E02D00E065CFCF93DF93DC0118966D910B
:101760007C916115710569F0EC018E819F81DC012E
:10177000ED91FC910680F781E02D09951986188678
:101780001A8ADF91CF91089508950895CF93DF933A
:10179000FC0180899189009711F46535F1F5268562
:1017A00037858217930758F18389811136C04485A4
:1017B000558581E090E08217930740F4DA01A80F85
:1017C000B91F7C91753511F00196F5CF281B390BA7
:1017D000318B208B9C01D901A81BB90B4485558501
:1017E000C685D7852C173D0750F4EA01C20FD31FD9
:1017F0007881A40FB51F7C932F5F3F4FECCFA4855A
:10180000B585808991899C012F5F3F4F318B208B5B
:10181000A80FB91F6C9381E0828BDF91CF9108955F
:1018200004970C94C60B1F93CF93DF93EC01162FF4
:1018300088859985DC01ED91FC910480F581E02D8E
:101840000995612FCE010A96DF91CF911F910C94DB
:10185000060A8F929F92BF92CF92DF92EF92FF92F1
:101860000F931F93CF93DF93FC01A085B185109751
:1018700009F45AC06901152FB42EF62EEC018FEF32
:101880009FEF938782874901F6E08F0E911CED91BF
:10189000FC9111970280F381E02DB401CD010995EF
:1018A00065E5CE010E94130C682DCE010E94130C39
:1018B000692DCE010E94130C6F2DCE010E94130CD6
:1018C000EB2CF12ECE0CDF1CCE14DF0471F00023C4
:1018D00049F0F7016491CE010E94130CBFEFEB1A9F
:1018E000FB0AF2CFD7016C91F6CF88859985DC0190
:1018F000ED91FC910480F581E02D6A85099588853C
:1019000099856B85DC01ED91FC910480F581E02DDA
:10191000DF91CF911F910F91FF90EF90DF90CF90CB
:10192000BF909F908F900994DF91CF911F910F915D
:10193000FF90EF90DF90CF90BF909F908F90089591
:101940003F924F925F926F927F928F929F92AF924F
:10195000BF92CF92DF92EF92FF920F931F93CF939C
:10196000DF9300D000D000D01F92CDB7DEB7FC01CE
:10197000A085B185109709F4A4C08C01ED91FC916C
:1019800011970190F081E02DCD010995D801529673
:101990008C915297882309F494C052961C92F12C92
:1019A000E12C44244A94542C33243394F801808944
:1019B000918997012A5F3F4F8217930708F481C0EE
:1019C000248535854701FFEF8F1A9F0AF901EE0D37
:1019D000FF1D4081453509F072C0C280280D391DB8
:1019E000D9012C91DC2CC22E8E199F098C159D05D6
:1019F00008F465C0B6E0CB16D10408F460C05F827D
:101A00004E82570137016C0C7D1CA614B70478F484
:101A1000D8011C96ED91FC91EA0DFB1D6081CE0171
:101A200006960E94060ABFEFAB1ABB0AEECF8E8164
:101A30009F81892B09F043C0F80184859585FC01BD
:101A4000EE0DFF1D23812983F4E0EF0EF11CE80E5B
:101A5000F91EFB82EA8226E0C21AD108DD82CC821E
:101A6000D80153963C92539712968D919C91009772
:101A700051F0DC01ED91FC910190F081E02DBE016F
:101A80006F5F7F4F099590E080E0A301480F591FD9
:101A9000F801208931894217530760F42485358580
:101AA000420F531FDA014C91280F391FF90140836F
:101AB0000196EBCF918B808B138A912C812C740132
:101AC00075CF27960FB6F894DEBF0FBECDBFDF915E
:101AD000CF911F910F91FF90EF90DF90CF90BF902B
:101AE000AF909F908F907F906F905F904F903F90BE
:101AF000089521E0FC0180859185892B09F420E07F
:101B0000822F0895FC011382128211861086089597
:101B100008954F925F926F927F928F929F92AF92B1
:101B2000BF92CF92DF92EF92FF920F931F93CF93CA
:101B3000DF93CDB7DEB74C0127013801DC015F969A
:101B40005C934E935E975D967C936E935C979196B3
:101B50003C932E939097DA961C92FC0112AA13AA3A
:101B600014AA15AA80E090E0AFE7B3E486AB97AB88
:101B7000A0AFB1AF84E690E0A0E0B0E086A797A761
:101B8000A0ABB1AB118E108E20E030E0A901C801EE
:101B9000B7010E943C1F87FD53C020E030E0A9013F
:101BA000C601B5010E943C1F87FD4AC020E030E01D
:101BB000A9016B897C898D899E890E943C1F87FDC4
:101BC0003FC081E090E0D4015B969C938E935A973E
:101BD000DB968C93DB97F4014082518262827382A0
:101BE0001496AD92BD92CD92DC9217978B899C8909
:101BF000AD89BE8980879187A287B3874486558641
:101C0000668677862DEC3CEC4CEC5DE3C601B501B5
:101C10000E94C820F401608B718B828B938B2DEC1A
:101C20003CEC4CEC5DE36B897C898D899E890E943C
:101C3000411FD40154966D937D938D939C93579738
:101C40000E942106F401C6A4D7A4E0A8F1A86C194B
:101C50007D098E099F0962A373A384A395A3DF91D5
:101C6000CF911F910F91FF90EF90DF90CF90BF9099
:101C7000AF909F908F907F906F905F904F9008955E
:101C80002F923F924F925F926F927F928F929F928C
:101C9000AF92BF92CF92DF92EF92FF920F931F937A
:101CA000CF93DF93CDB7DEB72A970FB6F894DEBF98
:101CB0000FBECDBFE82ED62EF42E3A83298318010D
:101CC0000E9421064B015C01CE2CCC0C00E01A8650
:101CD00011E02F2D30E03C832B83C101B0E0A0E068
:101CE0008D839E83AF83B8870F1508F013C11093BF
:101CF000E702E09209031092E80210920A036D2DA8
:101D000088EA93E00E94940981E00E9455081093AC
:101D1000E7021092E80210920A030E94CA052B0102
:101D20003C018091E102811175C08B819C81801BF7
:101D300091098132910514F080E290E08987813227
:101D400010F090E299871093E1021093E002AFEF58
:101D5000A093DF021092DE02898581508093DD021C
:101D60001093BC028091BC028C298093BC028091AC
:101D7000BB02813009F091C01092BB020E94CA05DB
:101D80002B013C018091BC028093BB008091E30257
:101D90009091E402A091E502B091E602892B8A2B92
:101DA0008B2BA1F00E94CA052091E3023091E4023E
:101DB0004091E5025091E602641975098609970978
:101DC000261737074807590708F445C08091BC001B
:101DD00083FDD8CFB5ECB093BC000E94CA052B019F
:101DE0003C018091E102813009F45BC08091DE0208
:101DF0003985831718F44091DE024987EDEBF2E054
:101E0000A9E9B2E080E05985851751F191919D9340
:101E10008F5FF9CF8091E3029091E402A091E502F7
:101E2000B091E602892B8A2B8B2B09F47ACF0E9482
:101E3000CA052091E3023091E4024091E5025091FD
:101E4000E6026419750986099709261737074807B6
:101E5000590708F066CF8091E2020E943408198683
:101E60001092B90289858093BA028091B90299854E
:101E7000981709F448C021143104A9F588EA93E0C1
:101E80000E945409E981FA81AA85EA0FF11DA7FD94
:101E9000FA958083AF5FAA87E8CF25EE2093BC0038
:101EA0009CCF8091E3029091E402A091E502B09171
:101EB000E602892B8A2B8B2B09F493CF0E94CA054B
:101EC0002091E3023091E4024091E5025091E60254
:101ED00064197509860997092617370748075907AE
:101EE00008F07FCFB8CF0E942106681979098A09C6
:101EF0009B092D813E814F815885621773078407A6
:101F0000950708F4BBCF8F2D30E23F1508F480E22F
:101F1000080FEACE21143104D1F00E942106AB0152
:101F2000BC01481959096A097B09C101B0E0A0E068
:101F3000481759076A077B0750F04A85842F440FDA
:101F4000990BF816190619F014F05FEF5A878A8575
:101F50002A960FB6F894DEBF0FBECDBFDF91CF91AA
:101F60001F910F91FF90EF90DF90CF90BF90AF90B7
:101F70009F908F907F906F905F904F903F902F90A9
:101F80000895CF92DF92EF92FF920F931F93CF931A
:101F9000DF931F92CDB7DEB7F82EE62EC42ED22ED9
:101FA00008EE13E09E012F5F3F4F41E00E94400E7C
:101FB00081E090E001C0880FCA94EAF74981DD20F2
:101FC00081F0482B49836E2D8F2D0E94F3090F90CD
:101FD000DF91CF911F910F91FF90EF90DF90CF9005
:101FE000089580954823EECF0F931F93CF93DF93EF
:101FF000C0EDD3E008EE13E021ED33E041E06AE309
:1020000088810E94400E8981DF91CF911F910F91AD
:1020100008950F931F93CF93DF93C0EDD3E008EEA5
:1020200013E021ED33E042E062E788810E94400E38
:1020300089819A81982789279827DF91CF911F91CD
:102040000F910895BF92CF92DF92EF92FF920F937C
:102050001F93CF93DF931F92CDB7DEB7F82EE62EF6
:10206000C42EB22ED02E08EE13E09E012F5F3F4FFC
:1020700041E00E94400E882371F18C2D8B19990B41
:10208000AC014F5F5F4F81E090E002C0880F991F65
:10209000BA94E2F70197042E01C0880F0A94EAF778
:1020A0000D2D01C0000F4A95EAF7482F4095998100
:1020B00049238023482B49836E2D8F2D0E94F309DD
:1020C0000F90DF91CF911F910F91FF90EF90DF90D4
:1020D000CF90BF90089580E0F3CFCF92DF92EF9240
:1020E000FF920F931F93CF93DF936C017B0184E1E9
:1020F00090E00E949921EC011B821A828FE091E00E
:10210000998388838DE191E09D838C83D7011F960D
:102110008D919C919F878E870E9499219D878C87A6
:10212000D6011296ED91FC91F987E887CE010496CD
:1021300093838283198A188A1A8A1B8AF701018974
:1021400012890115110539F1D80118968D919C91CC
:102150001997892B21F012960D911C91F2CFF8015D
:10216000D782C682D187C0871B830A83108A0E94C8
:102170002106D8011C966D937D938D939C931F9798
:1021800052961C92DF91CF911F910F91FF90EF908B
:10219000DF90CF90089583E190E00E9499218C0117
:1021A00083E291E0F80191838083F582E4821186D5
:1021B0001086D70119968D919C910E949921F80162
:1021C00093878287C8010E94770AD70151968D9123
:1021D0009C915297F8019383828352961C930E939D
:1021E0005197BECF2F923F924F925F926F927F9204
:1021F0008F929F92AF92BF92CF92DF92EF92FF9217
:102200000F931F93CF93DF933C015B01242E522E3B
:10221000302E6DE68091D0030E94F309452D6EE6C5
:102220008091D0030E94F30980E190E00E949921FF
:102230006C01D0E0C0E0002329F080E190E00E9432
:102240009921EC01F12CE12CC70140964A2C4E1843
:10225000A816B90610F080E1482E80E091E08519BB
:1022600091094816190619F014F0452C41943320B1
:1022700079F0DE0190E080E093012E0D3F1D841582
:1022800050F4F901E80FF91FE491ED930196F7CFAF
:10229000E301CE0DDF1D9E01442D6FE68091D0033A
:1022A0000E94C309842C912CC114D104D1F1422D78
:1022B0004F716DE68091D0030E94F309452D6EE6C3
:1022C0008091D0030E94F30908EE13E09601442D9B
:1022D0006FE68091D0030E94400EA401B601CE01AA
:1022E0000E94BE22892BE9F0C6010E9435223320CC
:1022F00021F0CE010E943522312C832DDF91CF9128
:102300001F910F91FF90EF90DF90CF90BF90AF9013
:102310009F908F907F906F905F904F903F902F9005
:102320000895E80CF91CEA14FB04A8F4540C09F411
:102330002394422D4F716DE68091D0030E94F309E2
:10234000452D6EE68091D0030E94F3097DCFCE012A
:102350000E943522D2CFC6010E9435223110F7CF1C
:1023600033243394CACFFC0101900020E9F7319760
:10237000AF01481B590BBC018BE093E00C94340671
:102380008F929F92AF92BF920F931F93CF93DF9341
:10239000CDB7DEB7A1970FB6F894DEBF0FBECDBFA5
:1023A00019A2423008F44AE08E010F5D1F4F842EBF
:1023B000912CB12CA12CA50194010E940D1EE62F99
:1023C000B901CA01EA30F4F4E05DD801EE938D0161
:1023D000232B242B252B79F790E080E0109719F020
:1023E000CD010E94B311A1960FB6F894DEBF0FBEC7
:1023F000CDBFDF91CF911F910F91BF90AF909F9074
:102400008F900895E95CE1CF4F925F926F927F9237
:102410008F929F92AF92BF92CF92DF92EF92FF92F4
:102420000F931F93CF936B017C01742EAC019B0122
:102430000E947F21882399F081E791E0CF911F913D
:102440000F91FF90EF90DF90CF90BF90AF909F9053
:102450008F907F906F905F904F900C94B3114601D6
:102460005701E894B7F82FEF3FEF4FE75FE7C5015B
:10247000B4010E947F2181110DC02FEF3FEF4FE784
:102480005FE7C501B4010E943C1F18161CF485E7E4
:1024900091E0D4CF2FEF3FEF4FE75FE4C701B601E4
:1024A0000E94BB2018161CF489E791E0C7CF2FEFDC
:1024B0003FEF4FE75FECC701B6010E943C1F87FD6D
:1024C000F3CF20E030E0A901C701B6010E943C1F14
:1024D00010E000E087FF0AC06DE28BE093E00E940D
:1024E000D4068C01F7FAF094F7F8F094C0E060E0BD
:1024F00070E080E09FE37C1641F020E030E040E2B5
:1025000051E40E94411FCF5FF6CFA70196010E94C0
:102510005E1E2B013C010E94B31F4B015C014AE08F
:102520000E94C0117C01E00EF11ECC23C1F1C50157
:10253000B4010E94E21F9B01AC01C301B2010E94E1
:102540005D1E4B015C016EE28BE093E00E94D406BD
:10255000E80EF91EC15018F120E030E040E251E4ED
:10256000C501B4010E94C8202B013C010E94B31F89
:102570004B01B12CA12C4AE0C501B4010E94C0114D
:10258000E80EF91EC501B4010E94E21F9B01AC01D7
:10259000C301B2010E945D1E4B015C01DBCFC7018C
:1025A000CF911F910F91FF90EF90DF90CF90BF9050
:1025B000AF909F908F907F906F905F904F90089515
:1025C00085ED8093BC008091E3029091E402A0919C
:1025D000E502B091E6020796A11DB11D23E0B69574
:1025E000A795979587952A95D1F72091BC0024FD52
:1025F00003C01092E10208954091E3025091E40279
:102600006091E5027091E602452B462B472B69F35A
:102610000097A105B10541F025E32A95F1F70000E7
:102620000197A109B109E1CF8091E2020C9434082D
:102630001F920F920FB60F9211242F933F938F93F7
:102640009F93AF93BF938091910290919202A0913A
:102650009302B09194023091900223E0230F2D3722
:1026600058F50196A11DB11D20939002809391020F
:1026700090939202A0939302B0939402809195025A
:1026800090919602A0919702B09198020196A11D97
:10269000B11D8093950290939602A0939702B093F8
:1026A0009802BF91AF919F918F913F912F910F9081
:1026B0000FBE0F901F90189526E8230F0296A11DBC
:1026C000B11DD2CF1F920F920FB60F9211242F93EC
:1026D0003F934F935F936F937F938F939F93AF93AA
:1026E000BF93EF93FF93E0910301F09104010995EB
:1026F000FF91EF91BF91AF919F918F917F916F91DA
:102700005F914F913F912F910F900FBE0F901F90AF
:1027100018951F920F920FB60F9211242F933F938B
:102720004F935F936F937F938F939F93AF93BF93D9
:10273000EF93FF93E0910101F09102010995FF9160
:10274000EF91BF91AF919F918F917F916F915F9129
:102750004F913F912F910F900FBE0F901F901895A2
:102760001F920F920FB60F9211242F933F934F9306
:102770005F936F937F938F939F93AF93BF93EF93E9
:10278000FF938BE093E00E94B206FF91EF91BF911F
:10279000AF919F918F917F916F915F914F913F91F9
:1027A0002F910F900FBE0F901F9018951F920F92B0
:1027B0000FB60F9211242F938F939F93EF93FF9354
:1027C000E0911B03F0911C038081E0912103F091C3
:1027D000220382FD1BC09081809124038F5F8F7341
:1027E00020912503821741F0E0912403F0E0E55F9A
:1027F000FC4F958F80932403FF91EF919F918F91D0
:102800002F910F900FBE0F901F9018958081F4CFDD
:102810001F920F920FB60F9211242F933F934F9355
:102820005F936F937F938F939F93AF93BF93EF9338
:10283000FF93E0912402F0912502309749F0A6859C
:10284000B7858585968D91FF14C09C918923A1F44D
:10285000FF91EF91BF91AF919F918F917F916F9178
:102860005F914F913F912F910F900FBE0F901F904E
:1028700018959C91892361F7A389B4899C918589D6
:10288000809589238C93868997890197F1F7608DCC
:10289000718DA685B785558538E020E0CB0101977D
:1028A000F1F7822F90E095958795282F4C9145233D
:1028B00009F02068315091F7868D81FD2095809137
:1028C000220290E001968F739927309123023817E6
:1028D00099F0A0912202B0E0AE51BE4F2C938093AC
:1028E0002202828D938D0197F1F7A389B4898C918F
:1028F0009589892B8C93ACCF868D8160868FF1CFA3
:102900001F920F920FB60F9211242F933F934F9364
:102910005F936F937F938F939F93AF93BF93EF9347
:10292000FF938091B900887F803609F44AC0F0F5A2
:10293000883209F4A7C018F5803109F49BC0B8F4B7
:10294000882309F4F9C0883009F494C0FF91EF910D
:10295000BF91AF919F918F917F916F915F914F91B7
:102960003F912F910F900FBE0F901F9018958831B7
:1029700009F488C0803251F78093DF0214C080349C
:1029800009F49DC040F48033B9F38833F9F680939D
:10299000DF0285ECB0C0803509F485C0883509F4C4
:1029A00096C0883499F60E94E012D0CF883909F495
:1029B0008CC038F5883729F050F4883611F080370C
:1029C00029F683E08093E1021092E10157C0883834
:1029D00009F47BC0803919F0803809F0B7CF8091B5
:1029E000E101803208F071C0E091E10181E08E0FD9
:1029F0008093E1018091BB00F0E0EF53FE4F8083B4
:102A00003DC0803B39F0E0F4803A09F479C0883A5F
:102A100009F09CCF84E08093E1021092C0011092F3
:102A2000BF01E0912802F091290209958091BF0130
:102A300081110FC081E08093BF0110929F0109C0F6
:102A4000803C09F4A6CF883C09F4A3CF883B09F069
:102A50007DCFE091C00181E08E0F8093C001F0E056
:102A6000E156FE4F80818093BB009091C001809120
:102A7000BF0129C08091BC028093BB0085EC80938C
:102A8000BC0064CF9091DE028091DD02981758F56A
:102A9000E091DE0281E08E0F8093DE02F0E0E354ED
:102AA000FD4F8081E9CFE091DE0281E08E0F8093BF
:102AB000DE028091BB00F0E0E354FD4F80839091F3
:102AC000DE028091DD029817C8F285E8D8CFE09148
:102AD000DE0281E08E0F8093DE028091BB00F0E089
:102AE000E354FD4F80838091E00281115CCF81E04F
:102AF0008093BB0284EA8093BC001092E10226CF4F
:102B000085EC8093BC001092E1028091E10180325B
:102B100030F4E091E101F0E0EF53FE4F108260915C
:102B2000E10170E0E0912602F091270281EC91E052
:102B300009951092E1010ACF1092DF0234CF8F92F3
:102B40009F92AF92BF92CF92DF92EF92FF920F933C
:102B50001F93CF93DF9310920E0310920D0388EE14
:102B600093E0A0E0B0E080930F0390931003A09354
:102B70001103B09312032FE331E030930C03209341
:102B80000B0325EC30E0309318032093170324EC5B
:102B900030E030931A032093190320EC30E0309397
:102BA0001C0320931B0321EC30E030931E03209381
:102BB0001D0322EC30E03093200320931F0326EC0A
:102BC00030E03093220320932103109224031092CB
:102BD000250310922603109227031092AB03109244
:102BE000AA038093AC039093AD03A093AE03B0937C
:102BF000AF0321E531E03093A9032093A80310929D
:102C00007604109275048093770490937804A093CF
:102C10007904B0937A0483E691E0909374048093EE
:102C2000730410928A041092890410928C041092FA
:102C30008B0410928E0410928D04109290041092C6
:102C40008F04609191046E7F6D7F6093910466950F
:102C5000617081E0682788E00E94F00461E088E00C
:102C60000E943C05E2E9F8E0E491E0938304EEE79A
:102C7000F8E0E491F0E0EE0FFF1FE459F74F859183
:102C80009491909385048093840460E087E00E948F
:102C90003C058091910481FD04C061E087E00E94C1
:102CA000F00487E080937F04E1E9F8E0E491E093A9
:102CB0008004EDE7F8E0E491F0E0EE0FFF1FEE593D
:102CC000F74F8591949190938204809381049DE3C2
:102CD000892E8F922CE4922E9F92DCECDF93CDEC28
:102CE000CF933DECA32E3CECB32E3CE4C32E3DE34E
:102CF000D32EE12CF12C00E01FE32BE234E04FE275
:102D000054E063E374E087E394E00E94890D8F92BE
:102D10009F92DF93CF9323EE33E047EE53E06BEEC9
:102D200073E08FEE93E00E94890D88E68093D003D4
:102D300080E090E0A0E8BFE38093C0039093C103DC
:102D4000A093C203B093C3031092C4031092C503AF
:102D50001092C6031092C7031092C8031092C903C1
:102D60001092CA031092CB031092CC031092CD03A1
:102D70001092CE031092CF031092B4031092B503B9
:102D80001092B6031092B7031092B8031092B903D1
:102D90001092BA031092BB031092BC031092BD03B1
:102DA0001092BE031092BF038DB79EB708960FB660
:102DB000F8949EBF0FBE8DBFDF91CF911F910F91F1
:102DC000FF90EF90DF90CF90BF90AF909F908F904B
:102DD0000895CF93DF93CDB7DEB76A970FB6F89417
:102DE000DEBF0FBECDBF789484B5826084BD84B54C
:102DF000816084BD85B5826085BD85B5816085BDF6
:102E000080916E00816080936E00109281008091AD
:102E10008100826080938100809181008160809335
:102E20008100809180008160809380008091B1005A
:102E300084608093B1008091B00081608093B00085
:102E400080917A00846080937A0080917A00826019
:102E500080937A0080917A00816080937A008091DB
:102E60007A00806880937A001092C10060E875E271
:102E700080E090E00E947B048DE791E00E94B31116
:102E80008AE891E00E94B311109230021092310250
:102E900010923202109233021092340210923502D4
:102EA00010923602109237021092380210923902B4
:102EB00010923A0210923B0260E08EE00E943C05C4
:102EC00083E08093000180EC80937C0080917A0005
:102ED000806480937A0080917A0086FDFCCFE09038
:102EE0007800F09079008DE891E00E94B311B7016D
:102EF000072E000C880B990B0E94E41F20E030EC99
:102F00004FE754E40E94411F24EA30E745ED50E4C6
:102F10000E94C82042E00E9404128AE891E00E94C8
:102F2000B3111092EB031092EC031092ED03109288
:102F3000EE03109233041092340410923504109270
:102F400036041092E3031092E4031092E50310920A
:102F5000E60310922B0410922C0410922D04109270
:102F60002E04812C912C30EAA32E31ECB32E8092CA
:102F7000690490926A04A0926B04B0926C04C12C14
:102F8000D12C40EAE42E41E4F42EC0926D04D0929C
:102F90006E04E0926F04F0927004809171048823B3
:102FA00009F458C02090550430905604D1014D903A
:102FB0005D906D907C90A7019601C301B2010E94C3
:102FC000BB20181634F5F101C082D182E282F3826F
:102FD00080905D0490905E04A0905F04B0906004C7
:102FE000C0906D04D0906E04E0906F04F090700477
:102FF000A7019601C501B4010E94BB201816D4F4A4
:10300000C0925D04D0925E04E0925F04F09260048E
:1030100021C020E030E040EA51ECC301B2010E943F
:103020003C1F87FFD5CFD1018D929D92AD92BC926E
:103030001397CECFC0906904D0906A04E0906B04DF
:10304000F0906C04A7019601C501B4010E943C1FD9
:1030500087FDD6CF812C912C90EAA92E91ECB92E28
:103060008092210490922204A0922304B09224041E
:10307000C12CD12C20EAE22E21E4F22EC0922504AC
:10308000D0922604E0922704F0922804809129042B
:10309000882309F458C020900D0430900E04F101EB
:1030A0004080518062807380A7019601C301B20104
:1030B0000E94BB2018163CF5D101CD92DD92ED9215
:1030C000FC9213978090150490901604A09017041A
:1030D000B0901804C0902504D0902604E0902704F6
:1030E000F0902804A7019601C501B4010E94BB20FD
:1030F0001816CCF4C0921504D0921604E09217046E
:10310000F092180420C020E030E040EA51ECC30106
:10311000B2010E943C1F87FFD5CFF10180829182CE
:10312000A282B382CFCFC0902104D0902204E0903D
:103130002304F0902404A7019601C501B4010E9464
:103140003C1F87FDD7CF61E083E00E943C0561E032
:1031500089E00E943C0561E08AE00E943C0561E054
:103160008BE00E943C051092B9021092BA021092B4
:10317000E80210920A030E94160881E396E09093F9
:1031800029028093280282E396E09093270280939D
:10319000260288E18093B80001E023E042E06BE67C
:1031A0008091D0030E94221000E022E044E06BE115
:1031B0008091D0030E94221022E044E06CE18091D3
:1031C000D0030E94221020E046E06BE68091D003FD
:1031D0000E94C10F21E047E06BE68091D0030E947E
:1031E000C10F6EE170E080E090E00E94EF0520E00A
:1031F00046E06BE68091D0030E94C10F40E76DE688
:103200008091D0030E94F30946E06EE68091D003DE
:103210000E94F30940E06DE68091D0030E94F3091B
:103220004FE765E28091D0030E94F30920E045E07A
:103230006AE68091D0030E94C10F48E665E2809162
:10324000D0030E94F30921E041E06AE68091D003B7
:103250000E94C10F64E170E080E090E00E94EF0501
:1032600003E023E042E06BE68091D0030E9422104D
:1032700042E168E38091D0030E94F30944E069E1F0
:103280008091D0030E94F30901E023E045E06AE168
:103290008091D0030E94221003E023E042E06AE123
:1032A0008091D0030E94221022E044E06BE18091E3
:1032B000D0030E94221001E020E040E069E877E0BE
:1032C00086E990E00E94F210882309F47AC01982FE
:1032D00081E08A8300E026E142E062E070E0CE0116
:1032E00001960E94F21043E060E78091D0030E94B3
:1032F000F30940E061E78091D0030E94F30920E0E8
:1033000040E060E08091D0030E94C10F42E06FE195
:103310008091D0030E94F3094CE961E28091D003CF
:103320000E94F30940E560E28091D0030E94F30916
:1033300040E062E28091D0030E94F30921E046E080
:103340006AE68091D0030E94C10F21E043E06AE663
:103350008091D0030E94C10F20E047E06AE680918F
:10336000D0030E94C10F8AE290E09093E203809321
:10337000E10321E042E06AE68091D0030E94C10FA0
:103380000E94F40F21E047E06AE68091D0030E949A
:10339000C10F8DE296E0909302018093010180912C
:1033A0006900836080936900E89A0E94F40F80931B
:1033B0008C028091E1039091E203909389028093C3
:1033C000880261E08DE00E943C0586E090E00E946A
:1033D00099216C01DC0113961C921E92129789E2CE
:1033E00091E011969C938E938BE093E015969C93BD
:1033F0008E93149760E875E280E090E00E947B0471
:1034000087E190E00E9499217C01EFE1F8E084914E
:10341000E0E2F8E08F3F09F050C08491E1E2F8E08B
:10342000E491FE2FE82FD7011A96FC93EE9319979B
:10343000E2E2F8E08491E3E2F8E0E491FE2FE82F85
:103440001896FC93EE931797E4E2F8E02491CF01ED
:1034500002963196E491FE2FE22FD7011C96FC9341
:10346000EE931B9712969C938E931197FC01849177
:103470008C938AE292E014969C938E9313971996FC
:103480002D913C911A9717968D919C911897820FC8
:10349000931FFC01E65DFD4F1E96FC93EE931D9776
:1034A00010824CE851E016965C934E931597EAE231
:1034B000F2E0815088F01192FCCF90E0D7011A968B
:1034C0009C938E931997E491F0E01896FC93EE93F9
:1034D0001797E1E2F8E0BACF2A5F3F4FF701308B50
:1034E0002787148A138A168A158A128A118A84E019
:1034F00090E00E94992123E331E0DC0111963C9396
:103500002E931396DC92CE921297B7010E946D1003
:10351000F0928F02E0928E0222242394312CC090EC
:103520008E02D0908F02F601E188F288B12CE1146E
:10353000F10409F447C0D70118966D917C91199751
:1035400061157105C9F116968D919C91DC01ED9183
:10355000FC910480F581E02D0995F7018085918526
:10356000DC01ED91FC910280F381E02D0995882327
:1035700001F10E942106F701448455846684778412
:10358000641975098609970961347F4181059105A0
:1035900098F00E942106D7011C966D937D938D9320
:1035A0009C931F9752961C92529750968C91882309
:1035B00019F0C7010E94AB0BF7018289B80EE280B7
:1035C000F380B5CFD6011D96ED91FC911E97B08288
:1035D0005396ED90FC90E114F10461F0D701ED9168
:1035E000FC910190F081E02DC7010995F701E2807F
:1035F000F380F1CFD6015596ED90FC90E114F104E3
:1036000061F0D701ED91FC910280F381E02DC701BB
:103610000995F701E280F380F1CF10928D020E94AC
:10362000F40FF82E80938C020E94091090938B0265
:1036300080938A02F4FC03C08115944039F521E09F
:1036400042E06AE68091D0030E94C10F64E670E018
:1036500080E090E00E94EF0580912C0290912D0275
:1036600001968B3091050CF0B7C290932D02809398
:103670002C0280E090E0892B09F451CF0E949E0635
:10368000882309F44CCF0E94000049CFF1FEDECF21
:10369000E0908A02F0908B02C0908802D09089025C
:1036A000EC14FD0438F40E94091090938B0280936F
:1036B0008A02EECFCC2009F487C208EE13E028E49A
:1036C00032E04C2D64E78091D0030E94400EEC184C
:1036D000FD08F0928B02E0928A02A0904C02B0901A
:1036E0004D02BA24AB24BA24C0905002D0905102AB
:1036F000DC24CD24DC24E0905402F0905502FE241A
:10370000EF24FE24609148027091490276276727D2
:103710007627072E000C880B990B0E94E41F20E0EF
:1037200030E040E858E30E94C8202B013C01409261
:10373000C0035092C1036092C2037092C303B501EB
:10374000BB0C880B990B0E94E41F20E030E040E89E
:1037500058E30E94C8204B015C018092C403909200
:10376000C503A092C603B092C703B601DD0C880B57
:10377000990B0E94E41F20E030E040E858E30E94EB
:10378000C8206B837C838D839E836093C803709372
:10379000C9038093CA039093CB03B701FF0C880B36
:1037A000990B0E94E41F20E030E040E858E30E94BB
:1037B000C8206F83788789879A876093CC0370933A
:1037C000CD038093CE039093CF039B01AC01C50141
:1037D000B4010E94C8206B017C012B813C814D818A
:1037E0005E81C301B2010E94C8209B01AC01C701E8
:1037F000B6010E945D1E9B01AC010E945E1E6B8B98
:103800007C8B8D8B9E8B6093B4037093B5038093F8
:10381000B6039093B703A5019401C301B2010E94BE
:10382000C8206B017C012F81388549855A856B81C1
:103830007C818D819E810E94C8209B01AC01C701C3
:10384000B6010E945E1E9B01AC010E945E1E6F8746
:10385000788B898B9A8B6093B8037093B9038093AC
:10386000BA039093BB03A3019201C301B2010E946A
:10387000C8206B017C01A5019401C501B4010E941F
:10388000C8209B01AC01C701B6010E945D1E6B01FF
:103890007C012B813C814D815E81CA01B9010E946E
:1038A000C8209B01AC01C701B6010E945D1E6B01DF
:1038B0007C012F81388549855A85CA01B9010E944A
:1038C000C8209B01AC01C701B6010E945E1E6B8738
:1038D0007C878D879E876093BC037093BD03809324
:1038E000BE039093BF03A3019201C301B2010E94E2
:1038F0005E1E6B017C01A5019401C501B4010E940B
:103900005E1E6F8B788F898F9A8FA3019201C701FA
:10391000B6010E94C8202B013C01A50194016F89CA
:10392000788D898D9A8D0E94C8209B01AC01C301BE
:10393000B2010E945E1E20E030E040E85FE30E949A
:103940005D1E2B013C012B813C814D815E816F8985
:10395000788D898D9A8D0E94C8204B015C012F8142
:10396000388549855A85C701B6010E94C8209B0148
:10397000AC01C501B4010E945D1EA30192010E9429
:10398000DD1E2B013C0140923C0250923D026092B0
:103990003E0270923F022F85388949895A89CA01AF
:1039A000B9010E94C8206B017C012B853C854D85A7
:1039B0005E85CA01B9010E94C8209B01AC01C70104
:1039C000B6010E945E1E0E943B219B01AC016B89E7
:1039D0007C898D899E890E94DD1E6B017C01C092CD
:1039E0004002D0924102E0924202F09243022B85C3
:1039F0003C854D855E856F85788989899A890E9485
:103A0000DD1E4B015C018092440290924502A0921F
:103A10004602B092470220E030E0A9016B857C8528
:103A20008D859E850E943C1F87FF1AC020E030E0F4
:103A3000A901C701B6010E94BB20A7019601181673
:103A40000CF0C5C06BED7FE089E490E40E945D1E40
:103A5000609340027093410280934202909343022C
:103A60002091300230913102409132025091330264
:103A7000C301B2010E945D1E20E030E044E353E444
:103A80000E94C8202BED3FE049E450E40E94411F12
:103A90006B017C0120913402309135024091360255
:103AA0005091370260914002709141028091420230
:103AB000909143020E945D1E20E030E044E353E415
:103AC0000E94C8202BED3FE049E450E40E94411FD2
:103AD0006093EB037093EC038093ED039093EE03FC
:103AE000209138023091390240913A0250913B02C4
:103AF000C501B4010E945D1E20E030E044E353E4C0
:103B00000E94C8202BED3FE049E450E40E94411F91
:103B10006093330470933404809335049093360497
:103B200042E0C701B6010E9404128BE991E00E94B5
:103B3000B3116091EB037091EC038091ED039091D0
:103B4000EE0342E00E9404128BE991E00E94B3115F
:103B5000609133047091340480913504909136045F
:103B600042E00E9404128AE891E00E94B311E090C2
:103B70002E02F0902F02B70183E00E946D05B7017D
:103B800089E00E946D05B7018AE00E946D05B701CA
:103B90008BE00E946D0580912C0290912D020A9776
:103BA00039F42FEFE21AF20AF0922F02E0922E027D
:103BB00080912E0290912F020B970CF447CD3092FA
:103BC0002F0220922E0242CD1092480280CD6BED42
:103BD0007FE089E490EC3ACF30922D0220922C02C3
:103BE00048CD83E691E090937404809373048091B0
:103BF0002402909125028357944071F4E091860449
:103C0000F091870490818091880480958923808336
:103C100010922502109224020895A1E21A2EAA1BE6
:103C2000BB1BFD010DC0AA1FBB1FEE1FFF1FA2176C
:103C3000B307E407F50720F0A21BB30BE40BF50B69
:103C4000661F771F881F991F1A9469F760957095F2
:103C5000809590959B01AC01BD01CF01089597FB24
:103C6000072E16F4009407D077FD09D00E94431E5A
:103C700007FC05D03EF4909581959F4F089570956F
:103C800061957F4F0895AA1BBB1B51E107C0AA1F76
:103C9000BB1FA617B70710F0A61BB70B881F991FED
:103CA0005A95A9F780959095BC01CD010895EE0F26
:103CB000FF1F0590F491E02D09945058BB27AA27C7
:103CC0000E94751E0C9481200E94732038F00E947F
:103CD0007A2020F039F49F3F19F426F40C944920FF
:103CE0000EF4E095E7FB0C944320E92F0E9492200C
:103CF00058F3BA17620773078407950720F079F421
:103D0000A6F50C94B4200EF4E0950B2EBA2FA02D3E
:103D10000B01B90190010C01CA01A0011124FF2778
:103D2000591B99F0593F50F4503E68F11A16F04073
:103D3000A22F232F342F4427585FF3CF4695379572
:103D40002795A795F0405395C9F77EF41F16BA0B37
:103D5000620B730B840BBAF09150A1F0FF0FBB1FE5
:103D6000661F771F881FC2F70EC0BA0F621F731F2E
:103D7000841F48F4879577956795B795F7959E3F8B
:103D800008F0B0CF9395880F08F09927EE0F97951C
:103D9000879508950E94732060F080E891E009F40F
:103DA0009EEF0E947A2028F040E851E071F45EEF27
:103DB0000CC00C9449200C94B420E92FE0780E94A8
:103DC000922040F3092E052AB1F32617370748073A
:103DD000590738F00E2E07F8E02569F0E025E06479
:103DE0000AC0EF6307F8009407FADB01B9019D01EF
:103DF000DC01CA01AD01EF930E94581F0E9481208F
:103E00000E940D1F5F91552339F02BED3FE049E4EF
:103E100050FD49EC0C945E1E0895DF93DD27B92F09
:103E2000BF7740E85FE31616170648075B0718F4EC
:103E3000D92F0E94C0209F938F937F936F930E94EE
:103E40007B21E8E6F0E00E944C200E9481202F9127
:103E50003F914F915F910E94DB20DD2351F09058FC
:103E6000A2EA2AED3FE049EC5FE3D0785D270E94AB
:103E7000751EDF910C9481200E941F2008F481E0C0
:103E800008950E94551F0C9481200E947A2058F0BA
:103E90000E94732040F029F45F3F29F00C944320E6
:103EA00051110C94B5200C9449200E94922068F383
:103EB0009923B1F3552391F3951B550BBB27AA27E3
:103EC00062177307840738F09F5F5F4F220F331F1D
:103ED000441FAA1FA9F335D00E2E3AF0E0E832D0E5
:103EE00091505040E695001CCAF72BD0FE2F29D0E8
:103EF000660F771F881FBB1F261737074807AB07BA
:103F0000B0E809F0BB0B802DBF01FF2793585F4F2E
:103F10003AF09E3F510578F00C9443200C94B52064
:103F20005F3FE4F3983ED4F3869577956795B79510
:103F3000F7959F5FC9F7880F911D9695879597F91B
:103F40000895E1E0660F771F881FBB1F6217730794
:103F50008407BA0720F0621B730B840BBA0BEE1FA9
:103F600088F7E09508950E949A2088F09F5798F06E
:103F7000B92F9927B751B0F0E1F0660F771F881F6E
:103F8000991F1AF0BA95C9F714C0B13091F00E9488
:103F9000B420B1E008950C94B420672F782F8827BF
:103FA000B85F39F0B93FCCF3869577956795B395AF
:103FB000D9F73EF490958095709561957F4F8F4F1E
:103FC0009F4F0895E89409C097FB3EF49095809523
:103FD000709561957F4F8F4F9F4F9923A9F0F92FCF
:103FE00096E9BB279395F695879577956795B7954D
:103FF000F111F8CFFAF4BB0F11F460FF1BC06F5F33
:104000007F4F8F4F9F4F16C0882311F096E911C044
:10401000772321F09EE8872F762F05C0662371F065
:1040200096E8862F70E060E02AF09A95660F771F79
:10403000881FDAF7880F9695879597F90895990F55
:104040000008550FAA0BE0E8FEEF16161706E80762
:10405000F907C0F012161306E407F50798F0621B83
:10406000730B840B950B39F40A2661F0232B242B58
:10407000252B21F408950A2609F4A140A6958FEF77
:10408000811D811D089597F99F6780E870E060E0C9
:1040900008959FEF80EC0895DF93CF931F930F93C4
:1040A000FF92EF92DF927B018C01689406C0DA2EBA
:1040B000EF010E94DB20FE01E894A5912591359146
:1040C00045915591A6F3EF010E94751EFE019701DF
:1040D000A801DA9469F7DF90EF90FF900F911F919C
:1040E000CF91DF91089500240A941616170618063A
:1040F0000906089500240A941216130614060506EC
:104100000895092E0394000C11F4882352F0BB0F7C
:1041100040F4BF2B11F460FF04C06F5F7F4F8F4FDF
:104120009F4F089557FD9058440F551F59F05F3F1A
:1041300071F04795880F97FB991F61F09F3F79F0C9
:1041400087950895121613061406551FF2CF46954B
:10415000F1DF08C0161617061806991FF1CF8695CD
:104160007105610508940895E894BB2766277727B1
:10417000CB0197F908950E941F2008F48FEF08954E
:104180009B01AC0160E070E080E89FE30C94411F6C
:104190000E94DB200C9481200E94732038F00E9442
:1041A0007A2020F0952311F00C9443200C944920A0
:1041B00011240C94B5200E94922070F3959FC1F3B6
:1041C000950F50E0551F629FF001729FBB27F00DC5
:1041D000B11D639FAA27F00DB11DAA1F649F66271A
:1041E000B00DA11D661F829F2227B00DA11D621F69
:1041F000739FB00DA11D621F839FA00D611D221F23
:10420000749F3327A00D611D231F849F600D211D06
:10421000822F762F6A2F11249F5750409AF0F1F089
:1042200088234AF0EE0FFF1FBB1F661F771F881FF2
:1042300091505040A9F79E3F510580F00C944320C7
:104240000C94B5205F3FE4F3983ED4F386957795C0
:104250006795B795F795E7959F5FC1F7FE2B880F98
:10426000911D9695879597F9089519F416F40C9475
:1042700049200C9484210E949A20B8F39923C9F311
:10428000B6F39F57550B87FF0E9492210024A0E6AA
:1042900040EA900180585695979528F4805C660F07
:1042A000771F881F20F026173707480730F4621B56
:1042B000730B840B202931294A2BA6951794079458
:1042C000202531254A2758F7660F771F881F20F0D1
:1042D00026173707480730F4620B730B840B200D49
:1042E000311D411DA09581F7B901842F9158880F88
:1042F0009695879508959B01AC010C94C8200E9467
:104300001F20880B990B08959F3F31F0915020F4A6
:10431000879577956795B795880F911D96958795A1
:1043200097F9089591505040660F771F881FD2F774
:1043300008950F931F93CF93DF938230910510F46C
:1043400082E090E0E0919404F091950430E020E068
:10435000B0E0A0E0309799F42115310509F44AC086
:10436000281B390B24303105D8F58A819B816115D2
:10437000710589F1FB0193838283FE0111C04081A5
:1043800051810281138148175907E0F048175907F6
:1043900099F4109761F012960C93129713961C9350
:1043A0003296CF01DF91CF911F910F910895009325
:1043B000940410939504F4CF2115310551F0421760
:1043C000530738F0A901DB019A01BD01DF01F801B3
:1043D000C1CFEF01F9CF9093950480939404CDCF92
:1043E000FE01E20FF31F819391932250310939832B
:1043F0002883D7CF2091920430919304232B41F44A
:104400002091070130910801309393042093920486
:1044100020910501309106012115310541F42DB798
:104420003EB74091090150910A01241B350BE091E0
:104430009204F0919304E217F307A0F42E1B3F0BB4
:104440002817390778F0AC014E5F5F4F2417350706
:1044500048F04E0F5F1F5093930440939204819352
:1044600091939FCFF0E0E0E09CCFCF93DF93009754
:10447000E9F0FC01329713821282A0919404B0916A
:104480009504ED0130E020E01097A1F42081318106
:10449000820F931F209192043091930428173907BB
:1044A00009F061C0F0939304E0939204DF91CF91FF
:1044B0000895EA01CE17DF07E8F54A815B819E0186
:1044C00041155105B1F7E901FB83EA8349915991FF
:1044D000C40FD51FEC17FD0761F48081918102960E
:1044E000840F951FE90199838883828193819B833F
:1044F0008A83F0E0E0E012968D919C9113970097EB
:10450000B9F52D913C911197CD010296820F931F21
:1045100020919204309193042817390739F6309787
:1045200051F51092950410929404B0939304A093C3
:104530009204BCCFD383C28340815181840F951FE5
:10454000C817D90761F44E5F5F4F88819981480F82
:10455000591F518340838A819B81938382832115D4
:10456000310509F0B0CFF0939504E09394049ECF09
:10457000FD01DC01C0CF13821282D7CFFB01DC0129
:1045800004C08D910190801921F441505040C8F72A
:10459000881B990B089514E0C0E5D4E004C0FE0127
:1045A0000E94571E2196C135D107C9F7F894FFCF55
:1045B000013306330600009604800000000000A0CE
:1045C0000C790D820D290CC60BFCFF0000100C00AD
:1045D0000000008F0A00000000280A880D1D0A0054
:1045E0000000006D10C50B500AC40B00000000D481
:1045F0000634066106210792067006840600000054
:104600000094096709030A5907E904540945090098
:104610000000005A073406030A5907B607CE0741BF
:10462000076E616E00696E66006F766600494E49DE
:104630005449414C495A494E47000D0A00426174A1
:0E46400074657279206C6576656C0020000050
:00000001FF
